:020000040000FA
:10000000905C0220D9000000E7000000513200009F
:10001000EB000000ED000000EF0000000000000019
:10002000000000000000000000000000F1000000DF
:10003000F3000000000000001901000000000000B3
:1000400029010000390100004901000059010000A8
:100050006901000079010000890100009901000098
:10006000A9010000B9010000C9010000D901000088
:10007000E9010000F9010000090200001902000076
:10008000290200000000000000000000390200000A
:1000900000000000000000005502000065020000A2
:1000A000750200008502000095020000A502000014
:1000B0000000000000000000000000000000000040
:1000C0000000000000000000000000000000000030
:1000D00000000000000000004FF0E0211020C1F8F7
:1000E000800108488047FEE7FEE7FEE7FEE7FEE7FF
:1000F000FEE7FEE7FEE7000003480449044A054B1B
:10010000704700001D03000090500220905C022008
:10011000905402209054022010B56648006810B137
:1001200064480068804710BD10B56348006810B18E
:1001300061480068804710BD10B56048006810B184
:100140005E480068804710BD10B55D48006810B17A
:100150005B480068804710BD10B55A48006810B170
:1001600058480068804710BD10B55748006810B166
:1001700055480068804710BD10B55448006810B15C
:1001800052480068804710BD10B55148006810B152
:100190004F480068804710BD10B54E48006810B148
:1001A0004C480068804710BD10B54B48006810B13E
:1001B00049480068804710BD10B54848006810B134
:1001C00046480068804710BD10B54548006810B12A
:1001D00043480068804710BD10B54248006810B120
:1001E00040480068804710BD10B53F48006810B116
:1001F0003D480068804710BD10B53C48006810B10C
:100200003A480068804710BD10B53948006810B101
:1002100037480068804710BD10B53648006810B1F7
:1002200034480068804710BD10B53348006810B1ED
:1002300031480068804710BD10B53048006810B1E3
:100240002E48006880472E48006810B12C4800688E
:10025000804710BD10B52B48006810B129480068D0
:10026000804710BD10B52848006810B126480068C6
:10027000804710BD10B52548006810B123480068BC
:10028000804710BD10B52248006810B120480068B2
:10029000804710BD10B51F48006810B11D480068A8
:1002A000804710BD10B51C48006810B11A4800689E
:1002B000804710BD00000120080001200C00012033
:1002C0001000012014000120180001201C00012052
:1002D0002000012024000120280001202C00012002
:1002E0003000012034000120380001203C000120B2
:1002F0004000012044000120480001204C00012062
:100300005000012054000120580001205C00012011
:1003100060000120640001206800012000F002F864
:1003200000F05EF80AA090E8000C82448344AAF131
:100330000107DA4501D100F053F8AFF2090EBAE82F
:100340000F0013F0010F18BFFB1A43F00103184709
:10035000C02F0100F02F01000A444FF0000C10F8EC
:10036000013B13F0070408BF10F8014B1D1108BF33
:1003700010F8015B641E05D010F8016B641E01F8D3
:10038000016BF9D113F0080F1EBF10F8014BAD1C23
:100390000C1B09D16D1E58BF01F801CBFAD505E041
:1003A00014F8016B01F8016B6D1EF9D59142D6D39B
:1003B000704700000023002400250026103A28BFC3
:1003C00078C1FBD8520728BF30C148BF0B607047C7
:1003D0001FB59DE8030000F093F91FBD10B510BDD7
:1003E00000F044FA1146FFF7F3FF0EF045FF00F06E
:1003F00062FA03B4FFF7F2FF03BC00F093FA0000C7
:1004000070B5064600F060F9056806F10B0020F0B3
:100410000704B4429CBF002070BD2B466A68BAB185
:100420001068A04210D304F1080188423CBF506814
:10043000586007D35168101941601168091B0160A9
:1004400058601460101D70BD13465268002AE7D131
:100450002146284600F040F90028DED170BD53EA5D
:10046000020C00F069802DE9F04B4FF00006002BE4
:100470001FBFB3FA83F503FA05F424FA05F65E40CC
:1004800012BF1643B2FA82F502FA05F4C5F120054F
:100490001EBF22FA05FC44EA0C04203556EA044C3F
:1004A0004FEA144418BF641C4FF000084FF00009D5
:1004B000904271EB030C39D3002919BFB1FA81F7CF
:1004C00001FA07F6B0FA80F700FA07F6C7F120073D
:1004D0001EBF20FA07FC46EA0C062037B6FBF4FCE8
:1004E000A7EB0507103F07F01F0BCBF120060CFA16
:1004F0000BFB2CFA06F644BFB3460026202FA4BF00
:100500005E464FF0000B5BEA060C08BF4FF0010B94
:1005100019EB0B09ABFB027C48EB0608C01B06FB82
:1005200002CC0BFB03CC71EB0C01C1E70B4602467E
:1005300041464846BDE8F08B13B54FF000004FF040
:100540000001AFF30080BDE81C40704710B54C10AF
:1005500084EA530404D54042C1F1000138BF491E6A
:100560001B4204D55242C3F1000338BF5B1EFFF7A4
:1005700076FF14F0804F04D04042C1F1000138BF33
:10058000491E14F0004F04D05242C3F1000338BF9B
:100590005B1E10BD032A40F2308010F0030C00F007
:1005A000158011F8013BBCF1020F624498BF11F8AD
:1005B00001CB00F8013B38BF11F8013BA2F1040266
:1005C00098BF00F801CB38BF00F8013B11F00303DE
:1005D00000F0F380083AC0F0088051F8043B083A74
:1005E00051F804CBA0E80810F5E7121D5CBF51F8E4
:1005F000043B40F8043BAFF30080D20724BF11F85E
:10060000013B11F801CB48BF11F8012B24BF00F8C2
:10061000013B00F801CB48BF00F8012B704702F006
:10062000FF0343EA032242EA024200F002B84FF01D
:1006300000020429C0F0128010F0030C00F01B80AF
:10064000CCF1040CBCF1020F18BF00F8012BA8BFBD
:1006500020F8022BA1EB0C0100F00DB85FEAC17C81
:1006600024BF00F8012B00F8012B48BF00F8012B34
:1006700070474FF0000200B5134694469646203965
:1006800022BFA0E80C50A0E80C50B1F12001BFF44B
:10069000F7AF090728BFA0E80C5048BF0CC05DF8B1
:1006A00004EB890028BF40F8042B08BF704748BFFF
:1006B00020F8022B11F0804F18BF00F8012B704773
:1006C0007047704770470000004870473450022060
:1006D000704770477047704738B504460A46002097
:1006E0006946AFF30080002808BF38BD0246009974
:1006F000204600F099F8012038BD012000F0AEB886
:10070000F8B5AFF30080054600200C46102000BF6E
:100710000646A819A0420DD9324669460020AFF31B
:100720000080070008BF00F099F80098A04218BFA9
:100730000546C419FFF7C8FF05600746F01D20F005
:1007400007004619284600F00AF8B44208BFF8BD71
:10075000A21B31463868BDE8F84000F065B80021BA
:100760000160C0E9011070471020704770B5044661
:10077000051FFFF7A9FF0068002C14BF446870BD77
:10078000002C18BFAC423CBF20466468F8D3016817
:100790000A18AA4218BF456003D12A6805461144C9
:1007A000016028684119A1421CBF6C6070BD61687E
:1007B000696021680844286070BD10B5203AC0F017
:1007C0000B80B1E81850203AA0E81850B1E8185052
:1007D000A0E81850BFF4F5AF5FEA027C24BFB1E88F
:1007E0001850A0E8185044BF18C918C0BDE8104000
:1007F0005FEA827C24BF51F8043B40F8043B08BF09
:100800007047D20728BF31F8023B48BF11F8012BCF
:1008100028BF20F8023B48BF00F8012B70470000BA
:10082000004870472C500220034640688C46002840
:1008300018BF88423CBF03464068F8D31868184484
:10084000884207D00CF1030020F00700001D411A78
:10085000521A0146081D0A60FFF788BF10B500F064
:1008600039F8BDE8104000F02FB870477546FFF723
:10087000D7FFAE4605006946534620F0070085467F
:1008800018B020B5FFF738FCBDE820404FF0000657
:100890004FF000074FF000084FF0000B21F0070168
:1008A000AC46ACE8C009ACE8C009ACE8C009ACE8AB
:1008B000C0098D46704710B50446AFF3008020464E
:1008C000BDE81040FFF795BD002801D000F02AB820
:1008D0007047000010B5012805D0002103A000F0EA
:1008E00027F8012010BD09A1F8E70000534947523D
:1008F000544D454D3A204F7574206F6620686561F0
:1009000070206D656D6F7279000000003A204865B7
:100910006170206D656D6F727920636F7272757092
:100920007465640001491820ABBEFEE72600020092
:1009300070B505460C460A2000E06D1C00F011F869
:1009400035B128780028F8D102E0641C00F009F8DD
:1009500014B120780028F8D1BDE870400A20AFF328
:10096000008008B569468DF800000320ABBE08BDC5
:100970000348C17801290CBF01204078704700006E
:10098000980201200B490A4808600B49802081F831
:1009900000044FF0E021C001C1F800010748416E9A
:1009A00041F001014166416E21F008014166704746
:1009B000C1090000400001200EE000E000300040CE
:1009C00010B54FF0E0214FF48040C1F88002074C91
:1009D000E06E10F0010F08BF10BD07200EF090FB75
:1009E000A06E40F00100A06610BD00000030004085
:1009F0000548D0F8381141F00101C0F83811034919
:100A0000012008607047000000100040F002012043
:100A10002DE9F843FF4C4FF00109D4F8000110F024
:100A2000400F18BFBDE8F883FB4D01230326E8699A
:100A300002224FF008080178C1F3411C0021BCF1EB
:100A4000000F0DD00A27BCF1010F00F05181BCF15D
:100A5000020F04BF4278982A00F0B58100F0A3B9D4
:100A600090F801C0BCF10C0F80F09D81DFE80CF024
:100A70000611FD3EFD878BFD8F96FCFB8088E749C4
:100A800001EB40002862AA81BDE8F843002000F095
:100A900031BB827812F0FF0202D0012A09D01CE09B
:100AA0008188DE4810F8112022F0010200F81120A0
:100AB00013E0D4F8002122F00802C4F80021828853
:100AC000D64810F8123023F0020300F8123000224A
:100AD000A964C5E92222E9712972D4F8200140F005
:100AE0000100C4F82001AE70BDE8F883817811F0F0
:100AF000FF0103D0012929D000F055B98288C749E8
:100B000011F8123043F0010301F81230808810F020
:100B1000800F00F00E010CD04FF4B07000EB81009C
:100B200040F4801040F00050016821F480510160D1
:100B3000D3E74FF4C07000EB810040F4801040F028
:100B40000050016821F480510160C6E7D4F82011FB
:100B500041F00101C4F82011D4F8001141F008015E
:100B6000C4F80011AE70EB702B718188AB4810F89F
:100B7000112042F0020200F81120BDE8F8834088FD
:100B8000C4F80401A9E7BDE8F84300F07DB92D627F
:100B9000AB81BDE8F843002000F0ACBA84F8A13185
:100BA000202284F8A22184F8A31184F8A5611221DF
:100BB00084F8A91184F8AA61142184F8A8111621D7
:100BC00084F8AB114021C4F86411C4F88811C4F84A
:100BD0006C11C4F87411232184F8AD1184F8AE119E
:100BE00084F8AC1184F8AF11C4F82883D4F82C131E
:100BF00041F40021C4F82C13D4F82C1341F008015F
:100C0000C4F82C13D4F82C1321F40021C4F82C13AD
:100C1000D4F82C1321F00801C4F82C135102C4F8A5
:100C200018137F49C4F81C13D4F8181341F00101BC
:100C3000C4F81813D4F8641121F48051C4F8641175
:100C4000D4F8881121F48051C4F88811D4F86C11BB
:100C500021F48051C4F86C11D4F8741121F480513E
:100C6000C4F8741102E021E016E09CE042F2107139
:100C7000C4F81011D4F8201141F00101C4F820117A
:100C8000D4F8041141F08001C4F80411AE708078EA
:100C900028706B70BDE8F8838DF80010C5F820D07F
:100CA000AB81002000F026FABDE8F883808858B1B7
:100CB000012810D002287FF410AFD4F8740120F47A
:100CC0008050C4F8740108E7D4F8640120F480501F
:100CD000C4F8640101E7D4F8880120F48050C4F816
:100CE0008801D4F86C0120F48050C4F86C01F4E65B
:100CF0004178012907D04B4A02295BD0092924D029
:100D00000A2947D04FE0408800F47F41B1F5407F89
:100D100049D1C0B206280CD0082844D1424880F8F6
:100D2000008047702862AA81BDE8F843002000F0E7
:100D3000E1B93E48696A0844286240F20110A8817E
:100D4000BDE8F843002000F0D5B9418801F47F42A6
:100D5000B2F5407F27D1C9B2072908D134492962A9
:100D6000C088A881012000F0C5F94FF00009E869AA
:100D70008178052905D0B9F1000F08BFBDE8F883D7
:100D800011E02C492962C088A881BDE8F843012000
:100D900000F0B0B9418811F0FF004FEA112118BFEF
:100DA00011547FF49AAED4F8200140F00400C4F846
:100DB000200192E6807810442862AB81BDE8F843B8
:100DC000002000F097B980880428ECD00528EAD1EB
:100DD000194C4FF48070A4460426CCF80070ACF88F
:100DE00004000520ACF80600ACF808104221CCF84D
:100DF0000A10302111A0CCF80E60ACF81210421E7F
:100E00000CF112010C2057788F7012F8027F01F854
:100E1000047F1FE0000010207805012098130220B5
:100E200034200220AA130220880501204D0401204D
:100E30009005012086050120AA11022053656C65EA
:100E4000637469766553757370656E64456E61622F
:100E50006C656400401ED6D1CCF84460CCF84830B4
:100E6000BCF80800401CACF80800DCF80000423078
:100E7000CCF80000696A21442962A881BDE8F843E2
:100E8000002000F037B900002DE9F0418A4F002220
:100E90000124F9694FF0030C4888050A0F2D00F072
:100EA000E78008DC4FF01201012D0AD0022D10D08E
:100EB000032D19D026E02623212D7DD0222D7CD094
:100EC00020E07E483862B981BDE8F041002000F0A2
:100ED00011B97B48796A084438625220B881BDE86C
:100EE000F041002000F006B910F0FF031BD0012BE9
:100EF00024D0022B2DD0EE2B04BFA0F50073B3F548
:100F0000F77331D06F48D0F8201141F00401C0F8D8
:100F10002011D0F8201141F00101C0F8201187F80C
:100F200002C0BDE8F0816848796A0844386204204C
:100F3000B881BDE8F041002000F0DCB86348796A70
:100F4000084438623220B881BDE8F041002000F04A
:100F5000D1B85F48796A084438621A20B881BDE880
:100F6000F041002000F0C6B85A4B1846017080F8D6
:100F700001C04FF04D0C80F802C04FF0530C80F8C8
:100F800004C04FF0460C80F806C04FF0540C80F8B7
:100F900008C04FF0310C80F80AC04FF0300C80F8D8
:100FA0000CC080F80EC04FF0980C80F810C042744E
:100FB000786A1844386201E006E02AE0B981BDE8A9
:100FC000F041002000F096B8434D4FF0090C284640
:100FD000212680F800C0467040F21116468002714A
:100FE0004471222282718988002904BF40F2CD21F8
:100FF000A0F8071003D0012908BFA0F80730786ACD
:1010000028443862A7F80CC0BDE8F041002000F089
:1010100071B8888810B1012820D024E030482F4CC6
:101020000026016821604068606008256019402240
:101030002C49FFF7AFFA05F1400085B2701CC6B22B
:101040000A2EF3D3601945222749FFF7A3FA796ADC
:1010500005F1450021443962B88104E02348796AEA
:1010600008443862BB81BDE8F041002000F042B87E
:101070001F4A05211046072301700F2141700C21E2
:10108000418004714371102383710223C371037A79
:1010900043F01E030372437A23F00F030A3323F055
:1010A000F003B0334372786A10443862B981BDE806
:1010B000F041002000F01EB8780501200C0301204B
:1010C0001E03012000001020700301207403012082
:1010D000A603012098110220A9140220671D0220F6
:1010E000C0030120C8030120080401204E0501208F
:1010F0008C1102201D4B1A46996A928921B1402910
:1011000038BF89B208D208E0D969C988914204D3AE
:10111000402A38BF114600D34021D3F824C08C4464
:10112000A2EB0C02C3F824C09A6201225A71104A41
:10113000D2F82CC32CF4803CC2F82CC3D2F82CC3B8
:101140002CF0010CC2F82CC30902C0F1010041EAE5
:101150004000C2F80003186AC2F80403D2F8000382
:1011600040F00100C2F8000370470000780501203C
:10117000000010202DE9F84F0121DFF8B8B0DFF8AA
:10118000B8900F464FF00008CDF8001059F828101D
:101190000A685A453BD100254FF00B0A0B1F2C461D
:1011A0004FF0050C1544F3E902623444BCF1010C24
:1011B000F8D1AAF101032A1951F82330D34226D1DC
:1011C00021B30022DFF874E09246009259F82A8099
:1011D00058F8802F724520D100254FF0050BA8F15B
:1011E00004032C464FF0020C1544F3E90262344428
:1011F000BCF1010CF8D1ABF101032A1958F82330E6
:10120000D3420AD100272C22FFF7C4F90AE008F1E3
:101210000108B8F1020FB9D304E00AF1010ABAF1EA
:10122000020FD3D3009838430CBF01200020BDE843
:10123000F88F000010704700040301202070470061
:101240004FF08040D0F8701111F0020F08BF7047C6
:10125000D0F8741141F00201C0F8741170474FF0DA
:101260008040D0F8701111F0010F08BF7047D0F81E
:10127000741141F00101C0F874117047392828BF7A
:101280007047DFE800F01D242B323940474E555C93
:10129000636A6F74797E83888D92979CA1A6ABB0A8
:1012A000B7BEC5CCD3F4FBF1F0EFEEEDECEBEAE921
:1012B000E8E7E6E5E4E3E2E1E0DFDEDDDCDBDA00FF
:1012C0004FF08040D0F8000100F0010070474FF06F
:1012D0008040D0F80001C0F3400070474FF08040DC
:1012E000D0F80001C0F3800070474FF08040D0F884
:1012F0000001C0F3C00070474FF08040D0F80001FB
:10130000C0F3001070474FF08040D0F80001C0F3E8
:10131000401070474FF08040D0F80001C0F38010BB
:1013200070474FF08040D0F80001C0F3C010704704
:101330004FF08040D0F80001C0F3002070474FF01C
:101340008040D0F80001C0F3402070474FF080404B
:10135000D0F80001C0F3802070474FF08040D0F8F3
:101360002001DBE04FF08040D0F82001DDE04FF0BD
:101370008040D0F82001DFE04FF08040D0F820011D
:10138000E1E04FF08040D0F82001E3E04FF08040F2
:10139000D0F82001E5E04FF08040D0F82001E7E0F0
:1013A0004FF08040D0F82001E9E04FF08040D0F8C5
:1013B0002001EBE04FF08040D0F82001EDE04FF04D
:1013C0008040D0F82001EFE04FF08040D0F82001BD
:1013D000F1E04FF08040D0F82001F3E04FF0804082
:1013E000D0F82001F5E04FF08040D0F82001C0F3A4
:1013F000803070474FF08040D0F82001C0F3C030FB
:1014000070474FF08040D0F82001C0F30040704793
:101410004FF08040D0F82001C0F3404070474FF0BB
:101420008040D0F82001C0F3804070474FF08040EA
:10143000D0F82001C0F3C0407047C6E0BEE0B6E07F
:10144000AEE0A6E09EE096E08EE086E07EE076E00C
:101450006EE066E05EE057E04FE047E03FE037E0F7
:101460002FE027E01FE017E00FE007E0FFE74FF075
:101470008040D0F82001C0F3005070474FF080400A
:10148000D0F82001C0F3405070474FF08040D0F8B2
:101490002001C0F3805070474FF08040D0F8200109
:1014A000C0F3C05070474FF08040D0F82001C0F327
:1014B000006070474FF08040D0F82001C0F34060DA
:1014C00070474FF08040D0F82001C0F38060704733
:1014D0004FF08040D0F82001C0F3C06070474FF05B
:1014E0008040D0F82001C0F3007070474FF080407A
:1014F000D0F82001C0F3407070474FF08040D0F822
:101500002001C0F3807070474FF08040D0F8200178
:10151000C00F70474FF08040D0F8500100F001003C
:1015200070474FF08040D0F85001C0F34000704742
:101530004FF08040D0F85001C0F3800070474FF06A
:101540008040D0F85001C0F3C00070474FF0804099
:10155000D0F85001C0F3001070474FF08040D0F831
:101560005001C0F3401070474FF08040D0F8500158
:10157000C0F3801070474FF08040D0F85001C0F3A6
:10158000C01070474FF08040D0F85001C0F30020E9
:1015900070474FF08040D0F85001C0F340207047B2
:1015A0004FF08040D0F85001C0F3802070474FF0DA
:1015B0008040D0F85001C0F3C02070474FF0804009
:1015C000D0F85001C0F3003070474FF08040D0F8A1
:1015D0005001C0F340307047392828BF7047DFE81A
:1015E00000F01D242B323940474E555C636A6F74FE
:1015F000797E83888D92979CA1A6ABB0B7BEC5CCEF
:10160000D3F4FBF1F0EFEEEDECEBEAE9E8E7E6E529
:10161000E4E3E2E1E0DFDEDDDCDBDA004FF0804036
:10162000D0F8040100F0010070474FF08040D0F87E
:101630000401C0F3400070474FF08040D0F804012F
:10164000C0F3800070474FF08040D0F80401C0F331
:10165000C00070474FF08040D0F80401C0F3001084
:1016600070474FF08040D0F80401C0F3401070473D
:101670004FF08040D0F80401C0F3801070474FF065
:101680008040D0F80401C0F3C01070474FF0804094
:10169000D0F80401C0F3002070474FF08040D0F82C
:1016A0000401C0F3402070474FF08040D0F804019F
:1016B000C0F3802070474FF08040D0F82401DBE079
:1016C0004FF08040D0F82401DDE04FF08040D0F8AA
:1016D0002401DFE04FF08040D0F82401E1E04FF03A
:1016E0008040D0F82401E3E04FF08040D0F824019E
:1016F000E5E04FF08040D0F82401E7E04FF0804073
:10170000D0F82401E9E04FF08040D0F82401EBE06C
:101710004FF08040D0F82401EDE04FF08040D0F849
:101720002401EFE04FF08040D0F82401F1E04FF0C9
:101730008040D0F82401F3E04FF08040D0F824013D
:10174000F5E04FF08040D0F82401C0F380307047BE
:101750004FF08040D0F82401C0F3C03070474FF004
:101760008040D0F82401C0F3004070474FF0804023
:10177000D0F82401C0F3404070474FF08040D0F8CB
:101780002401C0F3804070474FF08040D0F824011E
:10179000C0F3C0407047C6E0BEE0B6E0AEE0A6E0F1
:1017A0009EE096E08EE086E07EE076E06EE066E029
:1017B0005EE057E04FE047E03FE037E02FE027E012
:1017C0001FE017E00FE007E0FFE74FF08040D0F8A0
:1017D0002401C0F3005070474FF08040D0F824013E
:1017E000C0F3405070474FF08040D0F82401C0F360
:1017F000805070474FF08040D0F82401C0F3C050B3
:1018000070474FF08040D0F82401C0F3006070476B
:101810004FF08040D0F82401C0F3406070474FF093
:101820008040D0F82401C0F3806070474FF08040C2
:10183000D0F82401C0F3C06070474FF08040D0F86A
:101840002401C0F3007070474FF08040D0F82401AD
:10185000C0F3407070474FF08040D0F82401C0F3CF
:10186000807070474FF08040D0F82401C00F70475F
:101870004FF08040D0F8540100F0010070474FF065
:101880008040D0F85401C0F3400070474FF08040D2
:10189000D0F85401C0F3800070474FF08040D0F87A
:1018A0005401C0F3C00070474FF08040D0F854019D
:1018B000C0F3001070474FF08040D0F85401C0F3DF
:1018C000401070474FF08040D0F85401C0F38010B2
:1018D00070474FF08040D0F85401C0F3C0107047FB
:1018E0004FF08040D0F85401C0F3002070474FF013
:1018F0008040D0F85401C0F3402070474FF0804042
:10190000D0F85401C0F3802070474FF08040D0F8E9
:101910005401C0F3C02070474FF08040D0F854010C
:10192000C0F3003070474FF08040D0F85401C0F34E
:101930004030704730B514460546042918BF00F002
:10194000ACFD022C03D02146284600F0CDFB022B33
:1019500008BF30BD19462846BDE8304000F010B839
:1019600004490348086005490348086070470000BF
:1019700041120000280001205F1200002C0001200D
:10198000392828BF7047DFE800F01D262D363D447A
:101990004B525960676E757E858C939AA1A8AFB63D
:1019A000BDC4CBF2F9EFEEEDECEBEAE9E8E7E6E5F2
:1019B000E4E3E2E1E0DFDEDDDCDBDAD9D8D7D6D55F
:1019C000D4D3D2004FF08040D0F8042161F300025C
:1019D000C0F8042170474FF08040D0F8042161F333
:1019E000410205E04FF08040D0F8042161F382020B
:1019F000C0F8042170474FF08040D0F8042161F313
:101A0000C302F5E74FF08040D0F8042161F30412DF
:101A1000EEE74FF08040D0F8042161F34512E7E78C
:101A20004FF08040D0F8042161F38612E0E74FF0D8
:101A30008040D0F8042161F3C712D9E74FF080400D
:101A4000D0F8042161F30822D2E74FF08040D0F8AB
:101A5000042161F34922CBE74FF08040D0F8042104
:101A600061F38A22C4E74FF08040D0F8242161F36B
:101A7000000205E04FF08040D0F8242161F34102DC
:101A8000C0F8242170474FF08040D0F8242161F342
:101A90008202F5E74FF08040D0F8242161F3C302C1
:101AA000EEE74FF08040D0F8242161F30412E7E71D
:101AB0004FF08040D0F8242161F34512E0E74FF069
:101AC0008040D0F8242161F38612D9E74FF080409E
:101AD000D0F8242161F3C712D2E74FF08040D0F84C
:101AE000242161F30822CBE74FF08040D0F8242175
:101AF00061F34922C4E74FF08040D0F8242161F31C
:101B00008A22BDE74FF08040D0F8242161F3CB2238
:101B1000B6E74FF08040D0F8242161F30C32AFE7F4
:101B20004FF08040D0F8242161F34D32A8E7F9E06E
:101B3000F1E0E9E0E1E0D9E0D1E0C9E0C1E0B9E0FD
:101B4000B1E0A9E0A1E097E08FE087E07FE077E0F7
:101B50006FE067E05FE057E04FE047E03FE037E0ED
:101B60002FE027E01FE017E00FE007E0FFE74FF06E
:101B70008040D0F8242161F38E3281E74FF080401D
:101B8000D0F8242161F3CF327AE74FF08040D0F8CB
:101B9000242161F3104273E74FF08040D0F82421F4
:101BA00061F351426CE74FF08040D0F8242161F39B
:101BB000924265E74FF08040D0F8242161F3D34290
:101BC0005EE74FF08040D0F8242161F3145257E7CC
:101BD0004FF08040D0F8242161F3555250E74FF088
:101BE0008040D0F8242161F3965249E74FF08040BD
:101BF000D0F8242161F3D75242E74FF08040D0F86B
:101C0000242161F318623BE74FF08040D0F8242193
:101C100061F3596234E74FF08040D0F8242161F33A
:101C20009A622DE74FF08040D0F8242161F3DB6207
:101C300026E74FF08040D0F8242161F31C721FE7A3
:101C40004FF08040D0F8242161F35D7218E74FF027
:101C50008040D0F8242161F39E7211E74FF080405C
:101C6000D0F8242161F3DF720AE74FF08040D0F80A
:101C7000542161F3000205E04FF08040D0F8542178
:101C800061F34102C0F8542170474FF08040D0F812
:101C9000542161F38202F5E74FF08040D0F85421DF
:101CA00061F3C302EEE74FF08040D0F8542161F3B6
:101CB0000412E7E74FF08040D0F8542161F3451259
:101CC000E0E74FF08040D0F8542161F38612D9E765
:101CD0004FF08040D0F8542161F3C712D2E74FF0A3
:101CE0008040D0F8542161F30822CBE74FF08040C8
:101CF000D0F8542161F34922C4E74FF08040D0F876
:101D0000542161F38A22BDE74FF08040D0F854217E
:101D100061F3CB22B6E74FF08040D0F8542161F355
:101D20000C32AFE74FF08040D0F8542161F34D32D0
:101D3000A8E7392828BF7047DFE800F01D262D36B8
:101D40003D444B525960676E757E858C939AA1A86D
:101D5000AFB6BDC4CBF2F9EFEEEDECEBEAE9E8E7A4
:101D6000E6E5E4E3E2E1E0DFDEDDDCDBDAD9D8D78B
:101D7000D6D5D4D3D2004FF08040D0F80C2161F3F7
:101D80000102C0F80C2170474FF08040D0F80C21C0
:101D900061F3830205E04FF08040D0F80C2161F33D
:101DA0000512C0F80C2170474FF08040D0F80C218C
:101DB00061F38712F5E74FF08040D0F80C2161F312
:101DC0000922EEE74FF08040D0F80C2161F38B221E
:101DD000E7E74FF08040D0F80C2161F30D32E0E7E7
:101DE0004FF08040D0F80C2161F38F32D9E74FF0EB
:101DF0008040D0F80C2161F31142D2E74FF08040CF
:101E0000D0F80C2161F39342CBE74FF08040D0F83B
:101E10000C2161F31552C4E74FF08040D0F82C211B
:101E200061F3010205E04FF08040D0F82C2161F30E
:101E30008302C0F82C2170474FF08040D0F82C214D
:101E400061F30512F5E74FF08040D0F82C2161F3E3
:101E50008712EEE74FF08040D0F82C2161F3092281
:101E6000E7E74FF08040D0F82C2161F38B22E0E7C8
:101E70004FF08040D0F82C2161F30D32D9E74FF0BC
:101E80008040D0F82C2161F38F32D2E74FF08040B0
:101E9000D0F82C2161F31142CBE74FF08040D0F80D
:101EA0002C2161F39342C4E74FF08040D0F82C21FD
:101EB00061F31552BDE74FF08040D0F82C2161F35B
:101EC0009752B6E74FF08040D0F82C2161F31962A9
:101ED000AFE74FF08040D0F82C2161F39B62A8E778
:101EE000FBE0F3E0EBE0E3E0DBE0D3E0CBE0C3E0FA
:101EF000BBE0B3E0ABE0A3E099E091E089E081E0F2
:101F000079E071E069E061E059E051E049E041E0E9
:101F100039E031E029E021E017E00FE007E0FFE7DA
:101F20004FF08040D0F82C2161F31D7281E74FF013
:101F30008040D0F82C2161F39F727AE74FF0804007
:101F4000D0F8302161F3010205E04FF08040D0F875
:101F5000302161F38302C0F8302170474FF0804098
:101F6000D0F8302161F30512F5E74FF08040D0F84A
:101F7000302161F38712EEE74FF08040D0F8302136
:101F800061F30922E7E74FF08040D0F8302161F398
:101F90008B22E0E74FF08040D0F8302161F30D3222
:101FA000D9E74FF08040D0F8302161F38F32D2E78B
:101FB0004FF08040D0F8302161F31142CBE74FF071
:101FC0008040D0F8302161F39342C4E74FF0804065
:101FD000D0F8302161F31552BDE74FF08040D0F8C2
:101FE000302161F39752B6E74FF08040D0F83021AE
:101FF00061F31962AFE74FF08040D0F8302161F310
:102000009B62A8E74FF08040D0F8302161F31D7249
:10201000A1E74FF08040D0F8302161F39F729AE73A
:102020004FF08040D0F85C2161F3010205E04FF0F1
:102030008040D0F85C2161F38302C0F85C217047D6
:102040004FF08040D0F85C2161F30512F5E74FF0C6
:102050008040D0F85C2161F38712EEE74FF08040BA
:10206000D0F85C2161F30922E7E74FF08040D0F817
:102070005C2161F38B22E0E74FF08040D0F85C21D7
:1020800061F30D32D9E74FF08040D0F85C2161F365
:102090008F32D2E74FF08040D0F85C2161F31142DB
:1020A000CBE74FF08040D0F85C2161F39342C4E766
:1020B0004FF08040D0F85C2161F31552BDE74FF03E
:1020C0008040D0F85C2161F39752B6E74FF0804032
:1020D000D0F85C2161F31962AFE74FF08040D0F88F
:1020E0005C2161F39B62A8E7392828BF7047DFE8CD
:1020F00000F01D262D363D444B525960676E757EAB
:10210000858C939AA1A8AFB6BDC4CBF2F9EFEEEDE2
:10211000ECEBEAE9E8E7E6E5E4E3E2E1E0DFDEDD77
:10212000DCDBDAD9D8D7D6D5D4D3D2004FF0804073
:10213000D0F8082161F30002C0F8082170474FF081
:102140008040D0F8082161F3410205E04FF0804063
:10215000D0F8082161F38202C0F8082170474FF0DF
:102160008040D0F8082161F3C302F5E74FF08040CA
:10217000D0F8082161F30412EEE74FF08040D0F868
:10218000082161F34512E7E74FF08040D0F80821BD
:1021900061F38612E0E74FF08040D0F8082161F348
:1021A000C712D9E74FF08040D0F8082161F3082228
:1021B000D2E74FF08040D0F8082161F34922CBE705
:1021C0004FF08040D0F8082161F38A22C4E74FF035
:1021D0008040D0F8282161F3000205E04FF08040F4
:1021E000D0F8282161F34102C0F8282170474FF050
:1021F0008040D0F8282161F38202F5E74FF080405B
:10220000D0F8282161F3C302EEE74FF08040D0F808
:10221000282161F30412E7E74FF08040D0F828212D
:1022200061F34512E0E74FF08040D0F8282161F3D8
:102230008612D9E74FF08040D0F8282161F3C71209
:10224000D2E74FF08040D0F8282161F30822CBE795
:102250004FF08040D0F8282161F34922C4E74FF0C5
:102260008040D0F8282161F38A22BDE74FF08040FA
:10227000D0F8282161F3CB22B6E74FF08040D0F8A8
:10228000282161F30C32AFE74FF08040D0F82821CD
:1022900061F34D32A8E7F9E0F1E0E9E0E1E0D9E0EF
:1022A000D1E0C9E0C1E0B9E0B1E0A9E0A1E097E088
:1022B0008FE087E07FE077E06FE067E05FE057E086
:1022C0004FE047E03FE037E02FE027E01FE017E076
:1022D0000FE007E0FFE74FF08040D0F8282161F3DE
:1022E0008E3281E74FF08040D0F8282161F3CF3261
:1022F0007AE74FF08040D0F8282161F3104273E76D
:102300004FF08040D0F8282161F351426CE74FF044
:102310008040D0F8282161F3924265E74FF0804079
:10232000D0F8282161F3D3425EE74FF08040D0F827
:10233000282161F3145257E74FF08040D0F828214C
:1023400061F3555250E74FF08040D0F8282161F3F7
:10235000965249E74FF08040D0F8282161F3D752D8
:1023600042E74FF08040D0F8282161F318623BE744
:102370004FF08040D0F8282161F3596234E74FF0E4
:102380008040D0F8282161F39A622DE74FF0804019
:10239000D0F8282161F3DB6226E74FF08040D0F8C7
:1023A000282161F31C721FE74FF08040D0F82821EC
:1023B00061F35D7218E74FF08040D0F8282161F397
:1023C0009E7211E74FF08040D0F8282161F3DF7250
:1023D0000AE74FF08040D0F8582161F3000205E091
:1023E0004FF08040D0F8582161F34102C0F85821E5
:1023F00070474FF08040D0F8582161F38202F5E732
:102400004FF08040D0F8582161F3C302EEE74FF05F
:102410008040D0F8582161F30412E7E74FF0804084
:10242000D0F8582161F34512E0E74FF08040D0F832
:10243000582161F38612D9E74FF08040D0F8582137
:1024400061F3C712D2E74FF08040D0F8582161F312
:102450000822CBE74FF08040D0F8582161F34922A1
:10246000C4E74FF08040D0F8582161F38A22BDE7DD
:102470004FF08040D0F8582161F3CB22B6E74FF0FF
:102480008040D0F8582161F30C32AFE74FF0804024
:10249000D0F8582161F34D32A8E7392828BF70479A
:1024A000DFE800F01D262D363D444B525960676E23
:1024B000757E858C939AA1A8AFB6BDC4CBF2F9EF17
:1024C000EEEDECEBEAE9E8E7E6E5E4E3E2E1E0DFA4
:1024D000DEDDDCDBDAD9D8D7D6D5D4D3D2004FF0C5
:1024E0008040D0F8182161F30102C0F8182170472C
:1024F0004FF08040D0F8182161F3830205E04FF0DF
:102500008040D0F8182161F30512C0F818217047F7
:102510004FF08040D0F8182161F38712F5E74FF0B3
:102520008040D0F8182161F30922EEE74FF0804097
:10253000D0F8182161F38B22E7E74FF08040D0F804
:10254000182161F30D32E0E74FF08040D0F81821F8
:1025500061F38F32D9E74FF08040D0F8182161F352
:102560001142D2E74FF08040D0F8182161F3934236
:10257000CBE74FF08040D0F8182161F31552C4E743
:102580004FF08040D0F8402161F3010205E04FF0A8
:102590008040D0F8402161F38302C0F840217047A9
:1025A0004FF08040D0F8402161F30512F5E74FF07D
:1025B0008040D0F8402161F38712EEE74FF0804071
:1025C000D0F8402161F30922E7E74FF08040D0F8CE
:1025D000402161F38B22E0E74FF08040D0F84021AA
:1025E00061F30D32D9E74FF08040D0F8402161F31C
:1025F0008F32D2E74FF08040D0F8402161F3114292
:10260000CBE74FF08040D0F8402161F39342C4E71C
:102610004FF08040D0F8402161F31552BDE74FF0F4
:102620008040D0F8402161F39752B6E74FF08040E8
:10263000D0F8402161F31962AFE74FF08040D0F845
:10264000402161F39B62A8E7FBE0F3E0EBE0E3E00D
:10265000DBE0D3E0CBE0C3E0BBE0B3E0ABE0A3E082
:1026600099E091E089E081E079E071E069E061E082
:1026700059E051E049E041E039E031E029E021E072
:1026800017E00FE007E0FFE74FF08040D0F840216F
:1026900061F31D7281E74FF08040D0F8402161F373
:1026A0009F727AE74FF08040D0F8442161F3010235
:1026B00005E04FF08040D0F8442161F38302C0F878
:1026C000442170474FF08040D0F8442161F3051257
:1026D000F5E74FF08040D0F8442161F38712EEE730
:1026E0004FF08040D0F8442161F30922E7E74FF032
:1026F0008040D0F8442161F38B22E0E74FF0804026
:10270000D0F8442161F30D32D9E74FF08040D0F882
:10271000442161F38F32D2E74FF08040D0F844215A
:1027200061F31142CBE74FF08040D0F8442161F3D0
:102730009342C4E74FF08040D0F8442161F3155232
:10274000BDE74FF08040D0F8442161F39752B6E7DF
:102750004FF08040D0F8442161F31962AFE74FF0A9
:102760008040D0F8442161F39B62A8E74FF080409D
:10277000D0F8442161F31D72A1E74FF08040D0F8FA
:10278000442161F39F729AE74FF08040D0F86821AE
:1027900061F3010205E04FF08040D0F8682161F359
:1027A0008302C0F8682170474FF08040D0F868215C
:1027B00061F30512F5E74FF08040D0F8682161F32E
:1027C0008712EEE74FF08040D0F8682161F30922CC
:1027D000E7E74FF08040D0F8682161F38B22E0E713
:1027E0004FF08040D0F8682161F30D32D9E74FF007
:1027F0008040D0F8682161F38F32D2E74FF08040FB
:10280000D0F8682161F31142CBE74FF08040D0F857
:10281000682161F39342C4E74FF08040D0F868210B
:1028200061F31552BDE74FF08040D0F8682161F3A5
:102830009752B6E74FF08040D0F8682161F31962F3
:10284000AFE74FF08040D0F8682161F39B62A8E7C2
:10285000392828BF7047DFE800F01D262D363D449B
:102860004B525960676E757E858C939AA1A8AFB65E
:10287000BDC4CBF2F9EFEEEDECEBEAE9E8E7E6E513
:10288000E4E3E2E1E0DFDEDDDCDBDAD9D8D7D6D580
:10289000D4D3D2004FF08040D0F8102161F3010270
:1028A000C0F8102170474FF08040D0F8102161F33C
:1028B000830205E04FF08040D0F8102161F305124B
:1028C000C0F8102170474FF08040D0F8102161F31C
:1028D0008712F5E74FF08040D0F8102161F309220C
:1028E000EEE74FF08040D0F8102161F38B22E7E74C
:1028F0004FF08040D0F8102161F30D32E0E74FF047
:102900008040D0F8102161F38F32D9E74FF080403A
:10291000D0F8102161F31142D2E74FF08040D0F897
:10292000102161F39342CBE74FF08040D0F81021A3
:1029300061F31552C4E74FF08040D0F8342161F3C1
:10294000010205E04FF08040D0F8342161F38302AA
:10295000C0F8342170474FF08040D0F8342161F343
:102960000512F5E74FF08040D0F8342161F387126B
:10297000EEE74FF08040D0F8342161F30922E7E719
:102980004FF08040D0F8342161F38B22E0E74FF024
:102990008040D0F8342161F30D32D9E74FF0804008
:1029A000D0F8342161F38F32D2E74FF08040D0F875
:1029B000342161F31142CBE74FF08040D0F834214D
:1029C00061F39342C4E74FF08040D0F8342161F3C3
:1029D0001552BDE74FF08040D0F8342161F3975293
:1029E000B6E74FF08040D0F8342161F31962AFE7C9
:1029F0004FF08040D0F8342161F39B62A8E7FBE000
:102A0000F3E0EBE0E3E0DBE0D3E0CBE0C3E0BBE00E
:102A1000B3E0ABE0A3E099E091E089E081E079E008
:102A200071E069E061E059E051E049E041E039E0FE
:102A300031E029E021E017E00FE007E0FFE74FF089
:102A40008040D0F8342161F31D7281E74FF080405F
:102A5000D0F8342161F39F727AE74FF08040D0F8CC
:102A6000382161F3010205E04FF08040D0F83821B1
:102A700061F38302C0F8382170474FF08040D0F8EE
:102A8000382161F30512F5E74FF08040D0F8382186
:102A900061F38712EEE74FF08040D0F8382161F300
:102AA0000922E7E74FF08040D0F8382161F38B220C
:102AB000E0E74FF08040D0F8382161F30D32D9E7DC
:102AC0004FF08040D0F8382161F38F32D2E74FF0D9
:102AD0008040D0F8382161F31142CBE74FF08040BD
:102AE000D0F8382161F39342C4E74FF08040D0F82A
:102AF000382161F31552BDE74FF08040D0F83821FE
:102B000061F39752B6E74FF08040D0F8382161F377
:102B10001962AFE74FF08040D0F8382161F39B6233
:102B2000A8E74FF08040D0F8382161F31D72A1E78B
:102B30004FF08040D0F8382161F39F729AE74FF050
:102B40008040D0F8602161F3010205E04FF0804041
:102B5000D0F8602161F38302C0F8602170474FF024
:102B60008040D0F8602161F30512F5E74FF0804016
:102B7000D0F8602161F38712EEE74FF08040D0F883
:102B8000602161F30922E7E74FF08040D0F860212F
:102B900061F38B22E0E74FF08040D0F8602161F3D1
:102BA0000D32D9E74FF08040D0F8602161F38F32C9
:102BB000D2E74FF08040D0F8602161F31142CBE7BB
:102BC0004FF08040D0F8602161F39342C4E74FF0AA
:102BD0008040D0F8602161F31552BDE74FF080408E
:102BE000D0F8602161F39752B6E74FF08040D0F8FB
:102BF000602161F31962AFE74FF08040D0F86021A7
:102C000061F39B62A8E700B50346FEF7E5FC0028E8
:102C10000CBF0121002118465DF804EBFEF7B0BEA1
:102C200070B506460D46D6E90001002450EA0102BF
:102C30000ED00CF0EBF9104A12682346FDF70FFC9A
:102C400064220023FDF70BFC296880B20844286049
:102C50000A480068A20342EA904182034FF0804094
:102C6000D0F8B801C0F30D0010432143C6E90001BC
:102C7000288880B270BD000000030120FC02012002
:102C800010B5154C2068016A042902D2016A491C5A
:102C90000162016A042938BF10BD017F002908BF05
:102CA00010BD816A282902D2816A491C8162816A29
:102CB000282938BF10BD90F824100520FEF760FECB
:102CC000206890F82410002914BF0021012180F809
:102CD00024100021816210BD3002012002463B48D1
:102CE00010B50068012441880B2A6CD2DFE802F09D
:102CF0006B6C061B2F6C6C425263670011F4805F93
:102D000062D041F2030001F0B3FF012001F052FE56
:102D10000B2002F0E1FC2D4941F203000968002973
:102D200018BF488050E011F4805F4DD041F203009D
:102D300001F09EFF012001F03DFE0D2002F0CCFCD1
:102D4000224841F20301006800283DD031E011F42F
:102D5000805F39D041F2050001F08AFF012001F0C7
:102D600029FE0E2002F0B8FC184841F20501006867
:102D700000B31EE042F2030001F07AFF012001F0EF
:102D800019FE0B2002F0A8FC104842F20301006873
:102D900080B10EE044F2010001F06AFF012001F071
:102DA00009FE092002F098FC084844F2010100687D
:102DB00000B1418008E0007902F07AFC04E040793B
:102DC00002F08AFC00E00024204610BD3002012001
:102DD00004490028096814BF40F6010041F20300CD
:102DE0004880704730020120034850F88C1F21F4BE
:102DF000F87130310160704700200040034850F8FE
:102E00008C1F21F4F8710160704700000020004021
:102E100070B50E46054600240CF02EF902460E4809
:102E200015F4006F15D115F0010F12D015F0040F35
:102E300004BF15F0080F002E0CD10848002A08BF67
:102E400000F5E15406D0012A14BF022A00F56154AE
:102E500000E00446204670BD420A0220000E012018
:102E6000064800688168142902D28168491C816083
:102E7000816814292CBF807900207047300201201E
:102E8000014800680078704730020120014800685E
:102E90004088704730020120064800680169142903
:102EA00002D20169491C0161016914292CBF007B10
:102EB000002070473002012006480068816914290B
:102EC00002D28169491C8161816914292CBF007D6E
:102ED000002070473002012010B50CF0B7F801490E
:102EE000086010BD3002012004490348086004490D
:102EF000E02081F8140D7047BD5100000000012052
:102F00000EE000E00949096858B18B790022012BD5
:102F100006D1074BD3F88CC02CF4F87CC3F88CC0D6
:102F20008A71087109200870704700003002012082
:102F300000200040094909688A7920B1002A04BFAD
:102F400000228A6007E0012A05D1054A52F88C3F29
:102F500023F4F87313608871704700003002012079
:102F6000002000400949096858B18B790022012BE3
:102F700006D1074BD3F88CC02CF4F87CC3F88CC076
:102F80008A7148710A2008707047000030020120E1
:102F9000002000400849096858B18B790022012BB4
:102FA00006D1064BD3F88CC02CF4F87CC3F88CC047
:102FB0008A71087070470000300201200020004034
:102FC00002490968002918BF488070473002012073
:102FD00070B50C4D04002A68107B04D0002804BF93
:102FE000002010610BE0012809D121B1002125202A
:102FF000FEF7C6FC03E001212520FEF7C1FC28688E
:10300000047370BD3002012004490128096801BF22
:103010000A7D002A00228A6108757047300201206B
:1030200070B5124C06004FF000052068007F01D0FB
:1030300070B118E0012816D100210520FEF7A0FC90
:103040000223012203210520FEF774FC206808E01A
:1030500000231A4603210520FEF76CFC2068056258
:10306000856280F824502068067770BD3002012008
:103070004FF080416FF07F40C1F8840170474FF0FE
:1030800080414FF0FF30C1F8840170474FF080411C
:103090000020C1F87C01D1F8802122F00102C1F8A2
:1030A00080214FF0E0210122C1F88021C1F8802267
:1030B00002490860024908707047000008000120BA
:1030C000EC0201201449134808604FF0E020012170
:1030D000C0F88012E02280F80024C0F800118807B0
:1030E0006FF07F42C0F88421D0F87C2142F00102C9
:1030F000C0F87C21D0F87C2142F00202C0F87C218B
:10310000D0F8802142F00102C0F88021034801700C
:10311000704700008D77000008000120EC020120BC
:103120002DE9F041484C2068478817F4006F09D119
:103130002D20FEF7A3F80028FAD02D20FEF79EF8E8
:103140000128FAD0DFF804810120C8F828003846A9
:1031500001F082FC384602F09FFA42F210700BF048
:1031600015FF00F0E1FD01F06FFB002635466660BB
:1031700002E00020BDE8F081384602F07DFA012827
:103180000DD0384602F088FA42F210700BF0FEFEC5
:1031900060686D1C401C6060052DEDD9E9E717F4EF
:1031A000006F17D020680125007F50B900231A4610
:1031B00003210520FEF7BEFB20680662866280F8C8
:1031C0002460206805774FF4FA700BF0DFFE0CF0F6
:1031D000BDF913E02D20FEF751F80128FAD02D207B
:1031E000FEF74CF80028FAD02D20FEF747F801280A
:1031F000FAD02D20FEF742F80028FAD0012002F084
:1032000051FA012000F07CFD384601F0CFF9002092
:1032100001F0FCFA012001F0CDFB4FF040210F201E
:103220008862C8F8286020680121027B002A08BF54
:1032300006610173027D0121002A08BF86610175C4
:103240000120BDE8F081000030020120D00D0120F6
:10325000FEE7000070B504460A2020706078002662
:1032600020F0FE00683040F00100607035463346C3
:103270003246314601200CF01DFF00231A46194644
:1032800004200CF017FF608800280FD900234FF4AA
:103290008062194603200CF00DFF61190871681C4B
:1032A00085B2701C86B26088B042EFD800231A46FF
:1032B000194602200CF0FEFE17482146D0F8C2073E
:1032C0001E2804D31548816D491C816570BD124CC0
:1032D000002908BF70BD012084F8C60794F8C00714
:1032E000422200EB401004EB4000001DFDF752F9B4
:1032F000D4F8C2070021401CC4F8C20794F8C007E4
:10330000401CC0B284F8C0071E2828BF84F8C0172C
:1033100084F8C61770BD0000A015022078050120B2
:1033200070B504460A20A070E078002620F0FE0068
:10333000683040F00100E070354633463246314691
:1033400001200CF0B7FE00231A46194604200CF0A9
:10335000B1FEA08800280FD900234FF480621946DF
:1033600003200CF0A7FE61198871681C85B2701CDF
:1033700086B2A088B042EFD800231A461946022030
:103380000CF098FE2046BDE8704003F0A7BB70B576
:103390000024054623462246214601200CF08AFEE1
:1033A00000231A46194604200CF084FE6888002881
:1033B0000CD92819641C0379A1B24FF48052032060
:1033C0000CF078FE6888A4B2A042F2D80023BDE8D1
:1033D00070401A46194602200CF06CBE1A4910B50E
:1033E0001848086000210220FFF757F80021032049
:1033F000FFF753F84FF0E0214FF000700022C1F8C2
:103400000002C1F80001114880F80024104850F86B
:10341000801F21F07F0109310160416841F0010105
:103420004160016821F07F010931016040F2FF71C4
:103430008160C16941F00101C161C16941F48071DC
:10344000C16110BD553400006000012019E000E0AA
:10345000007000402DE9F047E74DD5F8BC00C0F3FF
:103460000E49D5F8940020F00100C5F89400E34C13
:103470000026607901280DD166710420FDF7FEFE5B
:1034800018B901210420FEF77BFAA6700020E6603F
:10349000C4E90E00D5F894000127C0F303400128C9
:1034A0002CD0D5F89400DFF85883C0F303400328EC
:1034B000D5F8940056D0C0F30340022800F02981CB
:1034C000D5F89400C0F30340042818BFBDE8F08786
:1034D000E07800281ABF606A0028BDE8F08710F87D
:1034E000011BC5F8A0106062D8F80010002953D065
:1034F0006089A28D104480B288474DE02069B8B140
:10350000E079002818BFBDE8F087E771A6700021B8
:10351000E660C4E90E110420FDF7B0FE002818BFD4
:10352000BDE8F08701210420FEF72AFABDE8F08704
:10353000E078012819BF60780128E079002818BFD9
:10354000BDE8F087D4E907100A5CC5F8A02000F1B7
:1035500001002062095CC5F8A01000F101002062A2
:10356000BDE8F08710F0080F1BD0E07801287DD06F
:1035700000287CD0606A002808BFBDE8F08710F8FA
:10358000011BC5F8A0106062D8F8001021B1608955
:10359000A28D104480B28847E06A401CE062BDE81A
:1035A000F087E1789748002977D0B9F1010F14D05E
:1035B000B9F1020F1DD098BFBDE8F087A06A0028BE
:1035C00008BFBDE8F087D5F8A41000F8011BA06281
:1035D000206B401C2063BDE8F087D5F8A400C0B282
:1035E000608160894FF6FF7101EA00206081BDE8CB
:1035F000F087D5F8A4106289C9B21143618121799D
:10360000D1B961890A0242EA112189B20222202934
:1036100038D061890B0243EA112189B2222931D0C5
:1036200061890B0243EA112189B225292AD06089D8
:10363000B0F5A87F08BFE2702771D5F89C0040F074
:103640000100C5F89C0070480168002908BFBDE86A
:10365000F08760898847A0622663E662606200287E
:1036600008BFBDE8F08710F8011B01E033E035E04A
:10367000C5F8A0106062D8F80010002918BF608952
:103680008AD039E72771E6706189090A017061897A
:1036900041702261BDE8F087FFE7D5F8C81011F44A
:1036A000803F18BFBDE8F087D5F8A410CAB22169E1
:1036B000642928BFBDE8F0874254491C2161007885
:1036C000252808BFBDE8F087A6700021E660C4E9A0
:1036D0000E11BDE8F087E6706770277027702069CB
:1036E00030B1D4E90510095CC5F8A010401CA061F8
:1036F0006078012806BFE0790028BDE8F087D4E9AA
:103700000710095CC5F8A01000F101002062BDE8B7
:10371000F087206978B33B480088222802D025280A
:103720002AD043E03748817811F00F0F04D1C278D6
:1037300002F00F02082A04D001F00F02012A09D179
:1037400003E06661A661277030E0C27802F00F02E4
:10375000082A03D011F0300F28D103E06661A6617A
:10376000267023E0C07800F00F0001281ED16661AA
:10377000A66167711AE01FE02248277201790929C2
:1037800014D1011D4022A830FCF704FF1F488178A6
:10379000092909D1C17811F0010F02D0FFF7C0FD4E
:1037A00002E0801CFFF7F3FD2770A7706421154825
:1037B000FCF73DFF266104E0E079002804BFE771D3
:1037C000A7712078012808BF677004D066700021B7
:1037D000E660C4E90E11A079012818BFBDE8F087A2
:1037E0000420FDF74BFD18B901210420FEF7C8F8AD
:1037F000A671BDE8F087000000700040980201202B
:103800007C07012084100220780701202A11022061
:1038100010B50BF0DDFD0A4C60600AF095FCA0606D
:103820000AF098FCE0600BF0D3FC01F0F3FE0BF023
:10383000DFFCBDE8104042F210700BF0A7BB0000A7
:10384000080601204FF04021002818BF0F204864CF
:1038500070472DE9F0470BF02BFC90F8D80010F0E2
:10386000010FC0F34009C0F38008C0F3C007C0F3E4
:103870000016C0F34015C0F380144FEAD01A00F0D0
:103880000A8100210B20FEF708FE00210C20FEF724
:1038900004FE00210D20FEF700FE00210E20FEF7A1
:1038A000FCFD00210B20FEF744FA03210C20FEF75B
:1038B00040FA01210D20FEF73CFAB9F1000F00F0AB
:1038C000138100210F20FEF7E8FD00211020FEF7F4
:1038D000E4FD00211120FEF7E0FD00211220FEF79B
:1038E000DCFD00210F20FEF724FA03211020FEF753
:1038F00020FA01211120FEF71CFAB8F1000F00F0A8
:103900001C8100211320FEF7C8FD00211420FEF7C2
:10391000C4FD00211520FEF7C0FD00211620FEF792
:10392000BCFD00211320FEF704FA03211420FEF74A
:1039300000FA01211520FEF7FCF9002F00F0268186
:1039400000211720FEF7A9FD00211820FEF7A5FD94
:1039500000211920FEF7A1FD00211A20FEF79DFD90
:1039600000211720FEF7E5F903211820FEF7E1F901
:1039700001211920FEF7DDF9002E00F03081002131
:103980001B20FEF78AFD00211C20FEF786FD00218A
:103990001D20FEF782FD00211E20FEF77EFD002186
:1039A0001B20FEF7C6F902211C20FEF7C2F90221F6
:1039B0001D20FEF7BEF9002D00F03A8100211F20E6
:1039C000FEF76BFD00212020FEF767FD002121207E
:1039D000FEF763FD00212220FEF75FFD00211F207E
:1039E000FEF7A7F902212020FEF7A3F902212120EA
:1039F000FEF79FF9002C00F0448100212320FEF700
:103A00004CFD00212420FEF748FD00212620FEF772
:103A100044FD00212320FEF78CF902212420FEF72B
:103A200088F9BAF1000F00F04B8100212720FEF742
:103A300034FD00212820FEF730FD00212A20FEF76A
:103A40002CFD00212720FEF774F902212820FEF723
:103A500070F901210E20FEF7FBFE01211220FEF776
:103A6000F7FE01211620FEF7F3FE01211A20FEF7D2
:103A7000EFFE01211E20FEF7EBFE01212220FEF7C2
:103A8000E7FE01212620FEF7E3FEBDE8F047012115
:103A90002A20FEF7DDBE00231A4603210B20FDF786
:103AA00049FF00231A4603210C20FDF743FF0023A2
:103AB0001A4603210D20FDF73DFF00231A4603217E
:103AC0000E20FDF737FF01210B20FEF7C1FE01217B
:103AD0000C20FEF7BDFE01210D20FEF7B9FE0121ED
:103AE0000E20FEF7B5FEE8E600231A4603210F205C
:103AF000FDF720FF00231A4603211020FDF71AFFCF
:103B000000231A4603211120FDF714FF00231A4653
:103B100003211220FDF70EFF01210F20FEF798FE72
:103B200001211020FEF794FE01211120FEF790FEE6
:103B300001211220FEF78CFEDFE600231A46032146
:103B40001320FDF7F7FE00231A4603211420FDF78A
:103B5000F1FE00231A4603211520FDF7EBFE00239A
:103B60001A4603211620FDF7E5FE01211320FEF77A
:103B70006FFE01211420FEF76BFE01211520FEF7D8
:103B800067FE01211620FEF763FED6E600231A46E3
:103B900003211720FDF7CEFE00231A46032118202B
:103BA000FDF7C8FE00231A4603211920FDF7C2FEC7
:103BB00000231A4603211A20FDF7BCFE012117201D
:103BC000FEF746FE01211820FEF742FE01211920D2
:103BD000FEF73EFE01211A20FEF73AFECCE6002356
:103BE0001A4603211B20FDF7A5FE00231A460321D8
:103BF0001C20FDF79FFE00231A4603211D20FDF720
:103C000099FE00231A4603211E20FDF793FE012191
:103C10001B20FEF71DFE01211C20FEF719FE0121CD
:103C20001D20FEF715FE01211E20FEF711FEC2E643
:103C300000231A4603211F20FDF77CFE00231A46AD
:103C400003212020FDF776FE00231A4603212120C0
:103C5000FDF770FE00231A4603212220FDF76AFEBD
:103C600001211F20FEF7F4FD01212020FEF7F0FDC9
:103C700001212120FEF7ECFD01212220FEF7E8FDC5
:103C8000B8E600231A4603212320FDF753FE002344
:103C90001A4603212420FDF74DFE00231A46032176
:103CA0002620FDF747FE01212320FEF7D1FD01214B
:103CB0002420FEF7CDFD01212620FEF7C9FDB0E648
:103CC00000231A4603212720FDF734FE00231A465D
:103CD00003212820FDF72EFE00231A4603212A2067
:103CE000FDF728FE01212720FEF7B2FD0121282043
:103CF000FEF7AEFD01212A20FEF7AAFDA9E600008D
:103D00004FF0E0224FF40021C2F88012DFF814C017
:103D100020238CF80034002814BFC2F80011C2F828
:103D20008011704713E000E01A4910B51848086088
:103D30000BF0BEF90446FFF78CFDD4F8D8004FF025
:103D400040210860D4F8DC0048601F20C861486941
:103D500020F001004861486940F00200486148696C
:103D600020F004004861486920F008004861486973
:103D700020F010004861886920F47F7088618869AC
:103D800020F47F308861886920F47F70886110BDDD
:103D9000993D00004C00012070B50BF09BF90BF031
:103DA0008DF9FFF773F84FF08041896911F0005FDA
:103DB00008BF70BD1F214FF04024E1610125082696
:103DC000B0F5885F47D014DC41F20302A0EB02019A
:103DD00090421CD008DCA0F50060013812BFFF281B
:103DE00003200BF08DF958E0022918BF062954D1A1
:103DF0000DE0A0F10300B0F500501CBF022806281A
:103E000005D0A0F1FD00B0F5005F24D045E0FFF73C
:103E100037F8FEF763FF00281CBF0020FFF7BAF851
:103E200022480068FFF732F810F4006F0CD110F050
:103E3000010F09D0E662606920F0010060616069ED
:103E400040F00200606100E0E562206F20F0FE00BB
:103E5000206701201FE0FFF713F8FEF73FFFC8B10E
:103E60000020FFF797F8FFF711F810F4006F0CD15E
:103E700010F0010F09D0E662606920F00100606176
:103E8000606940F00200606100E0E562206F20F0B0
:103E9000FE00206702200BF033F9FEF7E1FF002857
:103EA00018BFFEF7A1FF0F20A06270BDE80201203D
:103EB0006D4B10B4D3F88C2022F40072C3F88C2020
:103EC0006A4A1080B2F802C02CF4FF4C2CF4004C6B
:103ED0000CF5807CA2F802C0D1F800C04FEA1C4C5F
:103EE000A2F804C0B1F800C0A2F806C01081B2F870
:103EF0000AC02CF4FF4C2CF4004C0CF5807CA2F88A
:103F00000AC0D1F804C04FEA1C4CA2F80CC0B1F8AA
:103F100004C0A2F80EC01082B2F812C02CF4FF4CFC
:103F20002CF4004C0CF5807CA2F812C0D1F808C02B
:103F30004FEA1C4CA2F814C0B1F808C0A2F816C091
:103F40001083508B20F4FF4020F4004000F5807077
:103F50005083C868000C90838889D0834FF040203C
:103F6000016821F480710160016821F40071016031
:103F7000016821F480610160016821F40061016041
:103F8000016821F480510160016821F40051016051
:103F9000016A21F0FF01C91C0162016A21F47F411D
:103FA00001F540710162016A21F47F0101F54031A0
:103FB0000162016A21F07F4101F140710162416AB1
:103FC00021F0FF01C91C4162416A21F47F4101F5E2
:103FD00040714162816821F47F418160816821F0F4
:103FE000FF01C91C8160826C002161F30C028264B4
:103FF0000822D0F848C0022464F31C4CC0F848C022
:10400000D0F84CC0042464F30C0CC0F84CC0D0F8B9
:104010004CC0062464F31C4CC0F84CC0D0F858C007
:1040200062F30C0CC0F858C0826D4FF00A0C6CF3B0
:104030001C428265C26D4FF00C0C6CF30C02C26521
:10404000C26D4FF00E0C6CF31C42C26541610F2132
:104050004164416C0029FCD1D3F88C0040F400701D
:10406000C3F88C0010BC7047002000400000042002
:1040700070B4DFF8C4C1DCF88C3023F40073CCF8E2
:104080008C306E4B6E4C012A0DD0022A08BF40F4D2
:10409000006008D0032A08BF40F4805003D0042AEF
:1040A00008BF40F4C05018805A8822F4FF4242F4FE
:1040B000004280325A8000229A80DA8018815D891D
:1040C00025F4FF4545F4004580355D819A81DA810C
:1040D00018825D8A25F4FF4545F4004580355D82F0
:1040E0009A82DA821883588B20F4FF4040F4004013
:1040F000803058839A834FF04020DA83036843F47A
:1041000080730360036843F400730360036843F43F
:1041100080630360036843F400630360036823F46F
:1041200080530360036823F400530360036823F49F
:1041300080430360036823F400430360036A23F0B1
:10414000FF03DB1C0362036A23F47F4303F5407320
:104150000362036A23F47F0303F540330362036AB7
:1041600023F07F4303F140730362436A23F0FF03AC
:10417000DB1C4362436A23F47F4303F540734362CD
:10418000436A23F47F0303F540334362436A23F019
:104190007F4303F140734362836823F47F4303F555
:1041A00080738360836823F0FF035B1C8360836CF0
:1041B00062F30C0383640823856C022666F31C45B6
:1041C0008564C56C042666F30C05C564C56C0626BB
:1041D00066F31C45C564856D63F30C058565836DC9
:1041E0000A2565F31C438365C36D0C2565F30C0339
:1041F000C365C36D0E2565F31C43C36542610F2281
:104200004264426C002AFCD120684FEA30400860CA
:10421000A0684FEA3040486020694FEA304088602B
:10422000A0694FEA3040C860DCF88C0040F40070B0
:10423000CCF88C0070BC70470020004000000420C7
:104240002000042070B584B00D4606465FF00004DF
:1042500046EA043055F82410009105EB84018A6881
:1042600001920A690292896903916946FFF720FE6B
:10427000641C022CECD304B070BD2DE9F04184B075
:1042800090460C46064600256F463B1F46EA053021
:1042900002215C6043F8084F491EFAD14246694644
:1042A00000F006F86D1C022DEFD304B0BDE8F081DC
:1042B000DFF874C130B4DCF88C3023F40073CCF830
:1042C0008C305A4B18805C8824F4FF4424F400445A
:1042D00004F580745C800C68240C9C800C88DC8065
:1042E00018815C8924F4FF4424F4004404F58074AC
:1042F0005C814C68240C9C818C88DC8118825C8AEF
:1043000024F4FF4424F4004404F580745C828C6837
:10431000240C9C820C89DC821883588B20F4FF408B
:1043200020F4004000F580705883C868000C988322
:104330008889D8834FF04020016821F480710160A2
:10434000016821F400710160016821F4806101605D
:10435000016821F400610160016821F4805101606D
:10436000016821F400510160016A21F0FF01C91CBC
:104370000162016A21F47F4101F540710162016A25
:1043800021F47F0101F540310162016A21F07F4192
:1043900001F140710162416A21F0FF01C91C4162D3
:1043A000416A21F47F4101F540714162816821F445
:1043B0007F418160816821F0FF01C91C8160836CAD
:1043C000002161F30C0383640823846C022565F3E8
:1043D0001C448464C46C042565F30C04C464C46C7C
:1043E000062565F31C44C464846D63F30C04846582
:1043F000836D0A2464F31C438365C36D0C2464F34A
:104400000C03C365C36D0E2464F31C43C365416193
:104410004264416C0029FCD1DCF88C0040F400704F
:10442000CCF88C0030BC7047002000400000042015
:104430005C4B10B4D3F88C2022F40072C3F88C20AB
:10444000594A1080B2F802C02CF4FF4C2CF4004CF6
:104450000CF1800CA2F802C04FEA114CA2F804C083
:10446000D1801081548924F4FF4424F40044803422
:104470005481A2F80CC0D1811082548A24F4FF44E4
:1044800024F4004480345482A2F814C0D1821083F2
:10449000508B20F4FF4020F4004080305083A2F87D
:1044A0001CC04FF04020D183016821F4807101606D
:1044B000016821F400710160016821F480610160EC
:1044C000016821F400610160016821F480510160FC
:1044D000016821F400510160016A21F0FF01C91C4B
:1044E0000162016A21F47F4101F540710162016AB4
:1044F00021F47F0101F540310162016A21F07F4121
:1045000001F140710162416A21F0FF01C91C416261
:10451000416A21F47F4101F540714162816821F4D3
:104520007F418160816821F0FF01C91C8160826C3C
:10453000002161F30C028264826C4FF0080C0224AB
:1045400064F31C428264C26C042464F30C02C264EF
:10455000C26C062464F31C42C264826D6CF30C02CC
:104560008265826D4FF00A0C6CF31C428265C26D4D
:104570004FF00C0C6CF30C02C265C26D4FF00E0CC8
:104580006CF31C42C26541610F214164416C0029FA
:10459000FCD1D3F88C0040F40070C3F88C0010BC40
:1045A00070470000002000400000042010B54FF0CC
:1045B0004024616821F001016160616821F002011D
:1045C0006160616821F004016160616821F00801A7
:1045D0006160616821F010016160616821F0200173
:1045E0006160616821F04001616010F4006F6068F3
:1045F00020F4F04009D000F5B0406060606820F41D
:10460000F06000F58070606008E000F520506060A8
:10461000606820F4F06000F580706060606820F4ED
:10462000004060600F20E063206B20F0FF000F303F
:104630002063206B20F47F4000F580702063206BA6
:1046400020F47F0000F510202063206B20F0F8504C
:1046500000F1206020630820E062206840F4807050
:104660002060206840F400702060206840F4806082
:104670002060206840F400602060606B40F0010022
:104680006063606940F0020060610AF0EDFC0028A0
:104690001EBF0128022810BD4FF41051594820F8C0
:1046A000401F428842F400424280428822F4804205
:1046B0004280428822F47E5202F5D0624280A0F805
:1046C000CC11B0F8CE2142F40042A0F8CE21B0F8CF
:1046D000CE2122F48042A0F8CE21B0F8CE2122F4DF
:1046E0007E5202F5D062A0F8CE21A0F89813B0F85F
:1046F0009A2342F40042A0F89A23B0F89A2322F4B5
:104700008042A0F89A23B0F89A2322F47E5202F550
:10471000D062A0F89A233C48018000F10200018891
:1047200041F400410180018821F480410180018829
:1047300021F47E5101F5D0610180206A20F0FF0054
:1047400000F171002062206A20F47F4000F5E24011
:104750002062206A20F47F0000F5E2002062206AD7
:1047600020F07F4000F1E2402062A06820F47F400A
:1047700000F5DE40A060A06820F0FF00A060A06807
:1047800020F0787000F1F070A060A06820F4F810BC
:1047900000F57020A060A06C6FF30C0000F1100019
:1047A000A064A06C6FF31C4000F50300A064E06CF3
:1047B0006FF30C0000F1F600E064E06C6FF31C4056
:1047C00000F1807000F5D200E064A06D6FF30C0082
:1047D00000F5EE70A065A06D6FF31C4000F18060E5
:1047E00000F54020A065E06D6FF30C0000F23C6026
:1047F000E065E06D6FF31C4000F1006000F5D8004B
:10480000E06510BD00000420A405042010B5FEF7EB
:104810003DFB10F4006F4FF001024FF040210DD12D
:1048200010F0010F0AD00820C862486920F001008A
:104830004861486940F00200486100E0CA62086FC0
:1048400020F0FE00086710BD4FF04020416B21F0C2
:1048500001014163416821F001014160416821F09B
:1048600002014160416821F004014160416821F08A
:1048700008014160416821F010014160416821F068
:1048800020014160416821F040014160416821F40C
:10489000F06101F580714160416821F4F04101F55A
:1048A00040514160416821F400414160816821F03C
:1048B000787101F1F0718160816821F4F81101F5DE
:1048C00070218160016B21F0FF0110310163016BE8
:1048D00021F47F4101F500710163016B21F47F0137
:1048E00001F570210163016B21F0F85101F1E061E4
:1048F000016370470248806890F90000704700002B
:104900002409012001484068704700002409012063
:1049100010B50B4CA068616890F90000C0EB401026
:1049200000EB0010084400F65C20E06003F0A4F9FE
:10493000E068BDE8104000F20A200BF0F1B9000079
:104940002409012010B5164C4FF4E1521349206898
:10495000FBF720FE40F67A6212496068FBF71AFE08
:1049600020680BF0D7F9606809F018FC60681F3008
:1049700003F07CF960683D300BF066FB60683F3007
:104980000AF08AFB606800F27C600BF0BDF90AF067
:1049900019FDBDE8104002F087BF00007408010057
:1049A0002409012094240100014989680870704796
:1049B0002409012005490A6860F300020A60D1F861
:1049C000C02060F30002C1F8C02070470020004002
:1049D0000023002998BF704730B4012403EB430241
:1049E00000EB820292F900C00CF01F054FEA5C1C3C
:1049F0004FEA8C0C0CF1E02C04FA05F5CCF880524F
:104A000092F900C05568BCF1000F4FEA4515B8BFD8
:104A10000CF00F0C0CF1E02CB4BF8CF8145D8CF88A
:104A2000005492F808C092F90020BCF1000F02F087
:104A30001F0C4FEA52124FEA820204FA0CFC02F1F8
:104A4000E02214BFC2F800C1C2F880C15B1C8B42D7
:104A5000C4D330BC7047000010B5644904468CB024
:104A600061480860634962480860644962480860B8
:104A7000644963480860204600F0FAF814F4006FB7
:104A80004FF002034FF001024FF003014FF02D00F1
:104A900008D0FCF74FFF0223012203212E20FCF750
:104AA00049FF05E0FCF746FF00212E20FDF7F5FC4D
:104AB00000212F20FDF7F1FC00213020FDF7EDFC57
:104AC00001212920FDF7E9FC03212F20FDF731F911
:104AD00003213020FDF72DF903212920FDF729F9C5
:104AE00000213220FDF7D9FC03213220FDF721F906
:104AF00000213320FDF7D1FC03213320FDF719F904
:104B00004FF080404049D0F8882014F4006F22F024
:104B10000102C0F88820D0F8882022F00202C0F8F4
:104B20008820D0F8882022F00402C0F88820D0F82D
:104B3000882042F48062C0F88820D0F8882028D0ED
:104B400042F4C072C0F88820D0F8882022F06002B9
:104B5000C0F88820D0F8882022F01802C0F88820F9
:104B6000D0F8882042F40072C0F88820B1E80D1017
:104B70008DE80D10B1E80D1004AC84E80D100FC9DC
:104B800008AC84E80F0004216846FFF721FF0CB051
:104B900010BD22F06002C0F88820D0F8882042F0D2
:104BA0001802C0F88820D0F8882022F4C072C0F81B
:104BB0008820D0F8882022F40072C0F88820303194
:104BC00004ACB1E80D108DE80D10B1E80D1084E8CB
:104BD0000D100FC908AC84E80F0004216846FFF7E8
:104BE000F7FE0CB010BD00008D5100003000012018
:104BF00081500000340001203551000038000120B0
:104C00000D4C00003C000120E407010010B54FF0FE
:104C10008044A06910F4800F05D0D4F88C0040F0D7
:104C20000100C4F88C00A06910F4001F05D0D4F86E
:104C30008C0040F00200C4F88C00D4F8980010F00A
:104C4000010F08BF10BDFEF727F928B1D4F82401E1
:104C500020F08060C4F82401044901204862D4F89F
:104C60008C0040F04000C4F88C0010BDD00D012035
:104C700070B582B006460AF033FA04460068019027
:104C8000F94D16F4006F37D09DF8060020F00200B1
:104C90008DF8060060686860A068A860A86820F0C9
:104CA000FC6000F58000A860A86820F47E5000F544
:104CB000A450A86020692861286920F01F0028619D
:104CC000286940F400702861286920F48060286118
:104CD000286940F480502861286920F40040286148
:104CE00040F21E50C5F8D400C5F8D800DF4840F2A5
:104CF0001621B0FBF1F052E09DF8060016F4804F4B
:104D00000DD040F002008DF8060016F0010F3CD0E7
:104D100060686860A068A8602069286135E020F0BC
:104D200002008DF8060016F0010F2ED016F0020FCB
:104D300010D060686860A0680090BDF8020020F4A0
:104D4000FC6000F59070ADF802000098A860206942
:104D500028611AE016F0040F17D060686860A06838
:104D60000090BDF8000020F47E5000F55060ADF8D2
:104D70000000BDF8020020F4FC6000F59070ADF872
:104D800002000098A86020692861D4F86801C5F87D
:104D9000D400D4F86C01C5F8D800D4F87001C5F877
:104DA000DC0001982860E068E86060696861A069DB
:104DB000A861E069E861206A2862606A6862A06AA6
:104DC000A862E06AE862D4F81801C5F88000D4F857
:104DD0001C01C5F88400D4F82001C5F8880016F03D
:104DE000040F1BD0D520C5F89000BDF801006FF36B
:104DF0008B0000F55570ADF80100BDF8000000F41F
:104E00007C40D530ADF80000BDF802006FF30D1006
:104E100000F55560ADF80200009805E0D4F82401D3
:104E2000C5F89000D4F82801C5F89400D4F82C01F6
:104E3000C5F898000AF054F906F40061002920D062
:104E40008B490968C5F89C108A490968C5F8A01003
:104E500089490968C5F8A41088490968C5F8A810E7
:104E6000D0F84011C5F8AC10D0F84411C5F8B01016
:104E7000D0F84811C5F8B410D0F84C01C5F8B80006
:104E80001FE0D0F83011C5F89C10D0F83411C5F8E7
:104E9000A010D0F83811C5F8A410D0F83C11C5F80E
:104EA000A810D0F84011C5F8AC10D0F84411C5F8DE
:104EB000B010D0F84811C5F8B410D0F84C01C5F8BE
:104EC000B800D4F85001C5F8BC00D4F85401C5F8B6
:104ED000C000D4F85801C5F8C400D4F85C01C5F886
:104EE000C800D4F86001C5F8CC00D4F86401C5F856
:104EF000D000D4F87401C5F8E000D4F87801C5F802
:104F0000E400D4F87C01C5F8EC00D4F88001C5F8C1
:104F1000F000D4F88401C5F8F400D4F88801C5F88D
:104F2000F800D4F88C01C5F8FC0005D0D5F8FC00D9
:104F300040F00200C5F8FC00D4F89001C5F800016B
:104F400016F0040F24D0BDF8000000F47C4000F1FE
:104F50006B00ADF80000BDF801006FF38B0000F5A9
:104F6000D670ADF801000098C5F80401BDF8040042
:104F700000F47C4000F16B00ADF80400BDF80500C2
:104F80006FF38B0000F5D670ADF80500019805E0D1
:104F9000D4F89401C5F80401D4F89801C5F80801C3
:104FA000D4F89C01C5F80C0116F0010F1CBFD4F811
:104FB000A001C5F81001D4F8A401C5F81401D4F873
:104FC000A801C5F81801D4F8AC01C5F81C01D4F843
:104FD000B001C5F82001D4F8B401C5F82801D4F80F
:104FE000B801C5F82C01D4F8BC01C5F83001D4F8DB
:104FF000C001C5F83401D4F8C401C5F838012868E7
:10500000C0F340440AF06CF800EB8400016B2963A4
:10501000806B68630AF064F850F8401FA963416828
:10502000E96381682964C16869640169A9644169A7
:10503000E96481692965C1696965016AA965416A8F
:10504000E965816A2966C16A6966016BA966416B77
:10505000E966816B2967C16B6967016CA967406C60
:10506000E86702B070BD000000200040E09C4100F5
:10507000D8020120DC020120E0020120E40201202C
:105080002DE9F0414FF08045A86910F4002F08BFCA
:10509000BDE8F081264CA06A0026012804BF2662E4
:1050A000E6613CD0FDF7F2FE074609F0D5FFD5F8E2
:1050B000501111F0080F09D0206A401C2062206AAC
:1050C000002818BF2662206A48BB1DE0E169491C20
:1050D000E161E169002918BFE66102281FD1FDF7EF
:1050E000BFFE002818BFFDF789FEFDF7D5FEB0B161
:1050F00017F0010F01D1E06988B9D5F8240140F01B
:105100008060C5F824010AE0E86840F04000E860EB
:10511000E86820F04000E860E6610120A061D5F871
:105120008C0040F01000C5F88C00BDE8F081000054
:10513000D00D012010B54FF08044A06910F4801FFD
:1051400008BF10BD1048816A012916D0416A0129A3
:1051500004BF0021416210D0FDF782FE002818BF75
:10516000FDF74CFEFDF798FE28B1D4F8240140F07D
:105170008060C4F82401FDF783FDD4F88C0040F072
:105180002000C4F88C0010BDD00D01204FF08040ED
:10519000816911F4802F05D0D0F88C1041F00801FE
:1051A000C0F88C10816911F4000F08BF7047D0F867
:1051B0008C1041F00401C0F88C10704710B509F054
:1051C0004BFFBDE81040FDF761BE00002DE9F04146
:1051D0003C4C207800281ABF60780028BDE8F08198
:1051E000A078032818BFBDE8F081E078012808BF47
:1051F000BDE8F0813448D0F8C207002808BFBDE8F8
:10520000F081314890F8C11701EB411100EB4102E8
:1052100013790B2B14BF0C2BBDE8F0812B4D2A48C2
:105220004FF00007102B90F8C617D0F8C207A0F176
:10523000010825D0607A012818BFBDE8F081224E10
:10524000012906F6942008BFBDE8F081111D422215
:10525000FBF7A0F9C6F8C28796F8C107401CC0B298
:1052600086F8C1071E2828BF86F8C1776772D5F86F
:10527000380120F4803000BFC5F83801BDE8F08166
:10528000A079012818BFBDE8F0810F4E0129A6F1D1
:10529000EE0008BFBDE8F081111D4222FBF77AF94C
:1052A000C6F8C28796F8C107401CC0B286F8C1078D
:1052B0001E2828BF86F8C177A771D5F8380120F4D9
:1052C0000030D9E778050120A01502200000102049
:1052D0004FF0804010F8A41F41F0020101707047A8
:1052E00070B58CB000250095B34E019502950395DD
:1052F0000495059506950795089509950A953068D2
:1053000020F00F00801D30600720F403A062D6F863
:10531000D00140F00200C6F8D0016846FBF72AFF32
:1053200018B39DF81400E16A60F30501E162BDF86D
:1053300014008109E06A61F38810E0629DF81800AA
:10534000E16A60F34D21E1629DF81C00E16A60F3BF
:105350001241E162C108E06A61F3D740E0629DF862
:105360001D10E06A61F31B60E062D6F8D00140F0E6
:105370000200C6F8D001306820F00F00801D3060B8
:105380008E4850F88C1F21F400710160016821F0F3
:1053900001010160009820F4062040F0FF0040F475
:1053A0001F4040F4E02000900098A060E5600120DC
:1053B000C4F88C018248016841F4E0210160814910
:1053C00004200860D4F8A800009020F0080040F005
:1053D000100000900098C4F8A80040F6B83009F01A
:1053E00099FF206E20F001002066206E20F48030AE
:1053F0002066206E20F47C4000F570502066D4F8C2
:10540000900020F00100C4F8900000BFD4F8940090
:105410000128FBD1D4F8900020F00200C4F89000DD
:10542000D4F8900040F00200C4F89000D4F8900046
:1054300020F00200C4F89000D4F8900040F00C0076
:10544000C4F89000D4F8900020F01000C4F8900048
:10545000D4F8900040F00100C4F890005AA2002057
:10546000D2E90012CDE90012A16F41F40051A16709
:10547000A16F21F4E03101F58031A167A16F41F402
:105480008021A167A16F21F00701A167A16F21F41D
:10549000C061A167A16F21F4FC718031A167A16F88
:1054A00021F40051A167E16FA1B980E0491C8A4253
:1054B0000BD213F800C0401CA16FC0B26CF3903146
:1054C000A1670021052828BF0020D4F87CC0BCF1CA
:1054D000000FEBD0206E20F03C00001D2066206EF7
:1054E00020F4707000F580702066206E20F00200BD
:1054F0002066206E20F001002066A06E20F01C00C7
:105500000C30A066A06E20F4F07000F59070A066DC
:10551000A06E20F00100A066A06E20F00200A06640
:10552000E06C20F00200E0644FF4967009F0F2FEA7
:10553000206D40F440602065206D40F4E04020651F
:10554000E06C40F00100E064A06E20F40070A06602
:10555000206D40F480302065606E20F0F000103047
:105560006066606E20F4706000F580606066606E5A
:1055700020F001006066606E20F00E006066606ED4
:1055800020F4604000F5C0406066606E20F480301A
:105590006066606E40F480506066A06840F4806091
:1055A000A060206E40F0010020660CB070BD0121AB
:1055B00040F266326B4688E70080004000200040E1
:1055C00024ED00E010ED00E0030201000400000003
:1055D0004FF0804141F8B40F0120886070474FF0D0
:1055E0008041C86840F02000C860D1F8A80020F0D1
:1055F0001000C1F8A8000020401C6428FCDBD1F892
:10560000A80040F01000C1F8A800C86820F02000F1
:10561000C860704710B500F06FF80B480949016089
:105620000A4941600A4981600A4901610A494161A8
:105630000A4901620A4981610A49C1610A49416214
:1056400010BD0000C960000044060120495E000052
:1056500021610000FD68000079670000C56200005C
:105660008D610000CB680000095700000148406AC6
:10567000004700004406012070B5064C05466168ED
:105680008847002814BF15F4006F70BD2069BDE87D
:10569000704000474406012001490968084700009E
:1056A000440601200149896808470000440601209A
:1056B00010B50446FFF7C8F806492046096A88472E
:1056C000FDF7E4FBFEF772FF4FF040210F20486426
:1056D00010BD00004406012010B50446FFF7B4F8E1
:1056E00004492046C9698847FDF7D0FBBDE8104052
:1056F000FEF75CBF4406012010B50AF0FFFA01492D
:10570000086010BD6C0601202DE9F04F83B0002425
:10571000FDF7AEFC0AF0FCFBCA48CB49006800F577
:10572000E06200F27C60C1E9030200F501704861AB
:105730004FF4C071C548FAF79CFF6021C448FAF7DE
:1057400098FF7021C348FAF794FFC3480021C34F64
:10575000C0F87012C0F87412C0F87812C0F87C1249
:10576000C0F88012C0F88412C0F8881200F1200539
:1057700000F5D07600F27E202C2107F15008A7F129
:105780003B0B0090B64A01EB81034F2002EB43191B
:1057900039F8102031B12C2919D000287ED04F289B
:1057A0007DD02CE03B5C03EB430A18F8003005EB9E
:1057B0008A0C5CF823E072444CF823200AEB0602C2
:1057C00013F802C00CF1010C03F802C017E03B5CB7
:1057D00018F800C003EB430A05EB8A0303EB8C03C4
:1057E000D3F8C0E07244C3F8C0200CEB06020AF103
:1057F000300312F803C00CF1010C02F803C0401E84
:10580000C6D2491EBED2904E002306F108078F4A29
:1058100003EB430C02F5C07102EB8C1201EB0C118F
:10582000CDE90012002007EB430BDDF804C000EBCC
:1058300040020CEB8209DDF800C000210CEB0208ED
:1058400039F8212018F801C092B2B2FBFCF2A2F2A2
:105850006C7212B246F2676C02FB0CF24FEAA25C69
:10586000BCEBE2725CD00124082827BFA0F1080538
:10587000D6F814A00546D6F810A09BF801E0BEF1BA
:10588000010F2BD0BEF1020F04BF01EB810C0CF114
:105890000F0C25D0BEF1030F20D021E000E00DE079
:1058A0001BF801006B4B53F820C0624443F82020E2
:1058B00003F17002135C5B1C1354A2E71BF8010098
:1058C000644B03EB8003D3F838C062449A63009AB8
:1058D000009B825C521CC2544E2059E701EB810CA4
:1058E00017F813E005EBCE050AEB850ADAF800504D
:1058F00025FA0CFE0EF01F0E002A724402DD1F2A4C
:1059000003D99DE0002AD8BF00224FF01F0E0EFAE7
:105910000CFE25EA0E0502FA0CF22A43CAF8002012
:10592000491C03298CD3401C1028FFF47EAF5B1C5C
:10593000022BFFF46CAFDFF81CE1DFF828910022A6
:105940000EF1700BC2EBC201002009EB420A0EEB14
:10595000C1080BEB410700BF38F820103B5C89B24F
:10596000B1FBF3F1002956D0A1F26C7109B246F2F5
:10597000676359438B15B3EBE1714CD09AF8013052
:105980000124002B0CBF336973690E2843D2DFE872
:1059900000F007240707070707070707070724077B
:1059A000DFF8C4C019F812501CF800C005EBCC0C8D
:1059B00013F82C50002905F01F05294403DD1F2989
:1059C000C8BF1F2102E00029D8BF002113F82C50C6
:1059D00061F3040503F82C501DE0DFF88CC019F8C2
:1059E00012501CF800C005EBCC0C03EB8C03B3F891
:1059F00001C00029CCF3C41C614403DD1F29C8BFCA
:105A00001F2102E00029D8BF0021B3F801C061F3D3
:105A1000CB1CA3F801C0401C0E289DD3521C022AA7
:105A200090D3002C04BF03B0BDE8F08F0220FDF737
:105A300099FAFDF71DFB03B0BDE8F04F0AF068BA14
:105A40001F2262E7280901206C060120E0200220C5
:105A500060220220C0220220C0200220BF060120B6
:105A6000000E012070060120B106012010B58AB099
:105A700010F0020F51D0854C2068C16A42F230000C
:105A8000FEF7D6FC2068016B42F23400FEF7D0FC32
:105A90002068416B42F23800FEF7CAFC2068816B37
:105AA00042F23C00FEF7C4FC2068C16B4FF4015089
:105AB000FEF7BEFC2068016C42F24400FEF7B8FC21
:105AC0002068416C42F24800FEF7B2FC2068816C0D
:105AD00042F24C00FEF7ACFC2068C16C42F2500070
