:020000040000FA
:10000000E09A0220D9000000E7000000011C000077
:10001000EB000000ED000000EF0000000000000019
:10002000000000000000000000000000F1000000DF
:10003000F3000000000000001901000000000000B3
:1000400029010000390100004901000059010000A8
:100050006901000079010000890100009901000098
:10006000A9010000B9010000C9010000D901000088
:10007000E9010000F9010000090200001902000076
:10008000290200000000000000000000390200000A
:1000900000000000000000005502000065020000A2
:1000A000750200008502000095020000A502000014
:1000B0000000000000000000000000000000000040
:1000C0000000000000000000000000000000000030
:1000D00000000000000000004FF0E0211020C1F8F7
:1000E000800108488047FEE7FEE7FEE7FEE7FEE7FF
:1000F000FEE7FEE7FEE7000003480449044A054B1B
:10010000704700001D030000E08E0220E09A0220EC
:10011000E0920220E092022010B56648006810B11B
:1001200064480068804710BD10B56348006810B18E
:1001300061480068804710BD10B56048006810B184
:100140005E480068804710BD10B55D48006810B17A
:100150005B480068804710BD10B55A48006810B170
:1001600058480068804710BD10B55748006810B166
:1001700055480068804710BD10B55448006810B15C
:1001800052480068804710BD10B55148006810B152
:100190004F480068804710BD10B54E48006810B148
:1001A0004C480068804710BD10B54B48006810B13E
:1001B00049480068804710BD10B54848006810B134
:1001C00046480068804710BD10B54548006810B12A
:1001D00043480068804710BD10B54248006810B120
:1001E00040480068804710BD10B53F48006810B116
:1001F0003D480068804710BD10B53C48006810B10C
:100200003A480068804710BD10B53948006810B101
:1002100037480068804710BD10B53648006810B1F7
:1002200034480068804710BD10B53348006810B1ED
:1002300031480068804710BD10B53048006810B1E3
:100240002E48006880472E48006810B12C4800688E
:10025000804710BD10B52B48006810B129480068D0
:10026000804710BD10B52848006810B126480068C6
:10027000804710BD10B52548006810B123480068BC
:10028000804710BD10B52248006810B120480068B2
:10029000804710BD10B51F48006810B11D480068A8
:1002A000804710BD10B51C48006810B11A4800689E
:1002B000804710BD00000120080001200C00012033
:1002C0001000012014000120180001201C00012052
:1002D0002000012024000120280001202C00012002
:1002E0003000012034000120380001203C000120B2
:1002F0004000012044000120480001204C00012062
:100300005000012054000120580001205C00012011
:1003100060000120640001206800012000F002F864
:1003200000F05EF80AA090E8000C82448344AAF131
:100330000107DA4501D100F053F8AFF2090EBAE82F
:100340000F0013F0010F18BFFB1A43F00103184709
:1003500094220100C42201000A444FF0000C10F85E
:10036000013B13F0070408BF10F8014B1D1108BF33
:1003700010F8015B641E05D010F8016B641E01F8D3
:10038000016BF9D113F0080F1EBF10F8014BAD1C23
:100390000C1B09D16D1E58BF01F801CBFAD505E041
:1003A00014F8016B01F8016B6D1EF9D59142D6D39B
:1003B000704700000023002400250026103A28BFC3
:1003C00078C1FBD8520728BF30C148BF0B607047C7
:1003D0001FB59DE8030000F093F91FBD10B510BDD7
:1003E00000F044FA1146FFF7F3FF0DF0BDFF00F0F7
:1003F00062FA03B4FFF7F2FF03BC00F093FA0000C7
:1004000070B5064600F060F9056806F10B0020F0B3
:100410000704B4429CBF002070BD2B466A68BAB185
:100420001068A04210D304F1080188423CBF506814
:10043000586007D35168101941601168091B0160A9
:1004400058601460101D70BD13465268002AE7D131
:100450002146284600F040F90028DED170BD53EA5D
:10046000020C00F069802DE9F04B4FF00006002BE4
:100470001FBFB3FA83F503FA05F424FA05F65E40CC
:1004800012BF1643B2FA82F502FA05F4C5F120054F
:100490001EBF22FA05FC44EA0C04203556EA044C3F
:1004A0004FEA144418BF641C4FF000084FF00009D5
:1004B000904271EB030C39D3002919BFB1FA81F7CF
:1004C00001FA07F6B0FA80F700FA07F6C7F120073D
:1004D0001EBF20FA07FC46EA0C062037B6FBF4FCE8
:1004E000A7EB0507103F07F01F0BCBF120060CFA16
:1004F0000BFB2CFA06F644BFB3460026202FA4BF00
:100500005E464FF0000B5BEA060C08BF4FF0010B94
:1005100019EB0B09ABFB027C48EB0608C01B06FB82
:1005200002CC0BFB03CC71EB0C01C1E70B4602467E
:1005300041464846BDE8F08B13B54FF000004FF040
:100540000001AFF30080BDE81C40704710B54C10AF
:1005500084EA530404D54042C1F1000138BF491E6A
:100560001B4204D55242C3F1000338BF5B1EFFF7A4
:1005700076FF14F0804F04D04042C1F1000138BF33
:10058000491E14F0004F04D05242C3F1000338BF9B
:100590005B1E10BD032A40F2308010F0030C00F007
:1005A000158011F8013BBCF1020F624498BF11F8AD
:1005B00001CB00F8013B38BF11F8013BA2F1040266
:1005C00098BF00F801CB38BF00F8013B11F00303DE
:1005D00000F0F380083AC0F0088051F8043B083A74
:1005E00051F804CBA0E80810F5E7121D5CBF51F8E4
:1005F000043B40F8043BAFF30080D20724BF11F85E
:10060000013B11F801CB48BF11F8012B24BF00F8C2
:10061000013B00F801CB48BF00F8012B704702F006
:10062000FF0343EA032242EA024200F002B84FF01D
:1006300000020429C0F0128010F0030C00F01B80AF
:10064000CCF1040CBCF1020F18BF00F8012BA8BFBD
:1006500020F8022BA1EB0C0100F00DB85FEAC17C81
:1006600024BF00F8012B00F8012B48BF00F8012B34
:1006700070474FF0000200B5134694469646203965
:1006800022BFA0E80C50A0E80C50B1F12001BFF44B
:10069000F7AF090728BFA0E80C5048BF0CC05DF8B1
:1006A00004EB890028BF40F8042B08BF704748BFFF
:1006B00020F8022B11F0804F18BF00F8012B704773
:1006C000704770477047000000487047848E0220D2
:1006D000704770477047704738B504460A46002097
:1006E0006946AFF30080002808BF38BD0246009974
:1006F000204600F099F8012038BD012000F0AEB886
:10070000F8B5AFF30080054600200C46102000BF6E
:100710000646A819A0420DD9324669460020AFF31B
:100720000080070008BF00F099F80098A04218BFA9
:100730000546C419FFF7C8FF05600746F01D20F005
:1007400007004619284600F00AF8B44208BFF8BD71
:10075000A21B31463868BDE8F84000F065B80021BA
:100760000160C0E9011070471020704770B5044661
:10077000051FFFF7A9FF0068002C14BF446870BD77
:10078000002C18BFAC423CBF20466468F8D3016817
:100790000A18AA4218BF456003D12A6805461144C9
:1007A000016028684119A1421CBF6C6070BD61687E
:1007B000696021680844286070BD10B5203AC0F017
:1007C0000B80B1E81850203AA0E81850B1E8185052
:1007D000A0E81850BFF4F5AF5FEA027C24BFB1E88F
:1007E0001850A0E8185044BF18C918C0BDE8104000
:1007F0005FEA827C24BF51F8043B40F8043B08BF09
:100800007047D20728BF31F8023B48BF11F8012BCF
:1008100028BF20F8023B48BF00F8012B70470000BA
:10082000004870477C8E0220034640688C460028B2
:1008300018BF88423CBF03464068F8D31868184484
:10084000884207D00CF1030020F00700001D411A78
:10085000521A0146081D0A60FFF788BF10B500F064
:1008600039F8BDE8104000F02FB870477546FFF723
:10087000D7FFAE4605006946534620F0070085467F
:1008800018B020B5FFF738FCBDE820404FF0000657
:100890004FF000074FF000084FF0000B21F0070168
:1008A000AC46ACE8C009ACE8C009ACE8C009ACE8AB
:1008B000C0098D46704710B50446AFF3008020464E
:1008C000BDE81040FFF795BD002801D000F02AB820
:1008D0007047000010B5012805D0002103A000F0EA
:1008E00027F8012010BD09A1F8E70000534947523D
:1008F000544D454D3A204F7574206F6620686561F0
:1009000070206D656D6F7279000000003A204865B7
:100910006170206D656D6F727920636F7272757092
:100920007465640001491820ABBEFEE72600020092
:1009300070B505460C460A2000E06D1C00F011F869
:1009400035B128780028F8D102E0641C00F009F8DD
:1009500014B120780028F8D1BDE870400A20AFF328
:10096000008008B569468DF800000320ABBE08BDC5
:100970002DE9FF4F9FB00025DDE9393C3C9A0A90F4
:10098000DDF8B890309F07933B98029158B1ACEBDB
:100990000300C6B20120CDE90320002ADCBF23B04A
:1009A000BDE8F08F05E00020542607900120CDE936
:1009B0000302049806FB00F8DDE92CA0DDE9323BD8
:1009C000DDF8C4E0CDF84CB0DDF810B0CDF848B09B
:1009D000C5EBC501DDE9342B01EB41040799CDF8E6
:1009E0003CB001EB84010A9CDDF8BCC004EB410B78
:1009F000029CCDF838B004EB410BCDF834B0DDF8F3
:100A000084B0229CCDF830B004EB410BCDF874B02B
:100A1000DDF8D8B0CDF870B0DDF8DCB0CDF86CB052
:100A20004FF4FA7BCBF10001CDF868B0DDF8E0B00F
:100A3000B24CCDF804B04FF0010BC4F804B0D4F8B8
:100A400008B02BF0100BC4F808B0D4F808B06AF363
:100A5000000BC4F808B0D4F808A060F3430AC4F847
:100A600008A0D4F80CA069F3000AC4F80CA0D4F8CC
:100A70000CA06CF3410AC4F80CA0D4F80CC067F3C6
:100A8000820CC4F80CC0D4F810C06EF3090CC4F882
:100A900010C0D4F810C063F3932CC4F810C0DDF874
:100AA0004CB023696BF317532361636966F3070343
:100AB0006361DDF848B063696BF30F2363616369B9
:100AC00068F31F436361A36962F30103A361DDF867
:100AD0003CB0A2696BF38302A261A26966F30B12B8
:100AE000A261DDF838B0C4F81CB0DDF834B0C4F849
:100AF00020B0DDF830B0C4F824B0DDF874B0C4F82C
:100B000028B0DDF870B0C4F82CB0DDF86CB0C4F8D3
:100B100030B0DDF868B0C4F834B0A163DDF804B0DB
:100B2000C4F83CB0B9F1010F04D007200DF0A8FBC8
:100B300070B908E0072814BF4FF054304FF001306F
:100B4000A064E064F1E7012020606D4800F0FAF84D
:100B5000002F00F0CB803B9800283F985CD010B16C
:100B6000022842D0C2E06748654940680A8900F51A
:100B70008050D0F89831934208DAC0F8982180F874
:100B8000B9510B7C079A1A4480F8B821B1F91C209E
:100B9000D0F8B4319342D8BF1A46C0F8B421D1F886
:100BA00030C0079A90F992316244934288BF80F82E
:100BB000922190F99331D1F834C0079A624493425C
:100BC00038BF80F89321096800295BD090F9901113
:100BD000A942C8BF294680F8901190F99111A94205
:100BE000D8BF294680F8911180E0464844494068C2
:100BF00000F580520889D2F898318342C8BF184660
:100C0000C2F89801B1F91C10D2F8B4018842C8BFEB
:100C10000846C2F8B40169E0012803D098B302285D
:100C200058D063E03749364849680289C1F8152031
:100C300090F828204A7390F82C208A7390F830207E
:100C4000CA7390F834200A74027B81F83620027C43
:100C500081F835204268C1F825200268C1F82120BA
:100C600090F8202081F8382090F8242081F837204F
:100C70004269C1F82920B0F91C20C1F831208069EF
:100C8000C1F82D0032E0FFE71E481D4940680A897F
:100C900000F58050C0F89821B1F91C20C0F8B421AB
:100CA0000A7B80F8B9210A7C80F8B82191F83020BD
:100CB00080F8922191F8342080F8932191F828202F
:100CC00080F8902191F82C2080F891218969C0F852
:100CD000B0110BE00B480A4940680A8900F58050C2
:100CE000C0F89821B1F91C10C0F8B41103986D1C1C
:100CF0008542FFF661AE23B0BDE8F08F00300040C2
:100D00007C540220DC0601200B490A4808600B498C
:100D1000802081F800044FF0E021C001C1F80001FB
:100D20000748416E41F001014166416E21F0080122
:100D300041667047E50D0000400001200EE000E034
:100D40000030004070B5254D002604466E61072036
:100D50000DF096FA002836D007200DF085FA2049CC
:100D60006E61C86810F0040F08BF70BD886C80B257
:100D70002060886C000C2081C86C6060086DC0B277
:100D80002061086DC0F30720E060086DC0F30740E4
:100D90006062086D000E2062486D80B26061486D2F
:100DA0000014A083886DA061C86DC0B22063C86DB7
:100DB000C0F307206063C86DC0F30740A062C86D30
:100DC000000EE06270BD6869401C6861B0F5FA4FC2
:100DD000BDDDBDE8704007200DF046BADC060120FD
:100DE0000030004010B54FF0E0214FF48040C1F8D2
:100DF0008002074CE06E10F0010F08BF10BD072005
:100E00000DF05CFAA06E40F00100A06610BD00007D
:100E1000003000400548D0F8381141F00101C0F819
:100E2000381103490120086070470000001000409D
:100E3000100701202DE9F84F0121DFF8B8B0DFF8E5
:100E4000B8900F464FF00008CDF8001059F8281060
:100E50000A685A453BD100254FF00B0A0B1F2C4660
:100E60004FF0050C1544F3E902623444BCF1010C67
:100E7000F8D1AAF101032A1951F82330D34226D11F
:100E800021B30022DFF874E09246009259F82A80DC
:100E900058F8802F724520D100254FF0050BA8F19E
:100EA00004032C464FF0020C1544F3E9026234446B
:100EB000BCF1010CF8D1ABF101032A1958F8233029
:100EC000D3420AD100272C22FFF764FB0AE008F185
:100ED0000108B8F1020FB9D304E00AF1010ABAF12E
:100EE000020FD3D3009838430CBF01200020BDE887
:100EF000F88F0000107047002C0701202070470079
:100F00004FF08040D0F8701111F0020F08BF704709
:100F1000D0F8741141F00201C0F8741170474FF01D
:100F20008040D0F8701111F0010F08BF7047D0F861
:100F3000741141F00101C0F87411704739283AD298
:100F4000DFE800F01D1D1D1D1D1D1D1D1D1D1D2685
:100F50002626262626262626262626262626262631
:100F60002626262626262626262626262626263017
:100F700030303030303030303030303030004FF0C2
:100F80008041D1F8001121FA00F000F0010112E0D7
:100F90004FF08041D1F820110B3821FA00F000F019
:100FA000010108E04FF08041D1F850112B3821FAAF
:100FB00000F000F001010846704739283AD2DFE816
:100FC00000F01D1D1D1D1D1D1D1D1D1D1D26262680
:100FD00026262626262626262626262626262626B1
:100FE0002626262626262626262626262630303083
:100FF0003030303030303030303030004FF08041E1
:10100000D1F8041121FA00F000F0010112E04FF0D4
:101010008041D1F824110B3821FA00F000F00101D1
:1010200008E04FF08041D1F854112B3821FA00F03C
:1010300000F001010846704770B51C46154606468B
:10104000042918BF00F045F9022D03D02946304687
:1010500000F0E5F8022C08BF70BD21463046BDE81F
:10106000704000F011B800000449034808600549C9
:101070000348086070470000010F000028000120AD
:101080001F0F00002C000120392828BF7047DFE81F
:1010900000F01D1D1D1D1D1D1D1D1D1D1D2F2F2F94
:1010A0002F2F2F2F2F2F2F2F2F2F2F2F2F2F2F2F50
:1010B0002F2F2F2F2F2F2F2F2F2F2F2F2F42424207
:1010C0004242424242424242424242004FF0804249
:1010D000D2F804314FF0010C0CFA00FC01F00101D0
:1010E00023EA0C0301FA00F01843C2F80401704728
:1010F0004FF08042D2F824314FF0010C0B380CFA3B
:1011000000FC01F0010123EA0C0301FA00F018438E
:10111000C2F8240170474FF08042D2F854314FF0AA
:10112000010C2B380CFA00FC01F0010123EA0C033E
:1011300001FA00F01843C2F854017047392828BF5B
:101140007047DFE800F01D1D1D1D1D1D1D1D1D1D0F
:101150001D303030303030303030303030303030A2
:101160003044444444444444444444444444444453
:10117000445858585858585858585858585858005B
:1011800040004FF08042D2F80C314FF0030C0CFAC3
:1011900000FC01F0030123EA0C0301FA00F01843FC
:1011A000C2F80C0170474FF080424000D2F82C3159
:1011B0004FF0030C16380CFA00FC01F0030123EA8F
:1011C0000C0301FA00F01843C2F82C0170474FF0ED
:1011D00080424000D2F830314FF0030C36380CFA20
:1011E00000FC01F0030123EA0C0301FA00F01843AC
:1011F000C2F8300170474FF080424000D2F85C31B5
:101200004FF0030C56380CFA00FC01F0030123EAFE
:101210000C0301FA00F01843C2F85C01704739284A
:1012200028BF7047DFE800F01D1D1D1D1D1D1D1D81
:101230001D1D1D2F2F2F2F2F2F2F2F2F2F2F2F2FF4
:101240002F2F2F2F2F2F2F2F2F2F2F2F2F2F2F2FAE
:101250002F2F2F42424242424242424242424242A7
:1012600042004FF08042D2F808314FF0010C0CFAE6
:1012700000FC01F0010123EA0C0301FA00F018431D
:10128000C2F8080170474FF08042D2F828314FF081
:10129000010C0B380CFA00FC01F0010123EA0C03ED
:1012A00001FA00F01843C2F8280170474FF080425D
:1012B000D2F858314FF0010C2B380CFA00FC01F039
:1012C000010123EA0C0301FA00F01843C2F85801A7
:1012D0007047392828BF7047DFE800F01D1D1D1D2D
:1012E0001D1D1D1D1D1D1D30303030303030303083
:1012F000303030303030304444444444444444443A
:1013000044444444444444585858585858585858E9
:1013100058585858580040004FF08042D2F81831C1
:101320004FF0030C0CFA00FC01F0030123EA0C035C
:1013300001FA00F01843C2F8180170474FF08042DC
:101340004000D2F840314FF0030C16380CFA00FC84
:1013500001F0030123EA0C0301FA00F01843C2F87C
:10136000400170474FF080424000D2F844314FF0C6
:10137000030C36380CFA00FC01F0030123EA0C03DD
:1013800001FA00F01843C2F8440170474FF0804260
:101390004000D2F868314FF0030C56380CFA00FCCC
:1013A00001F0030123EA0C0301FA00F01843C2F82C
:1013B00068017047392828BF7047DFE800F01D1D1D
:1013C0001D1D1D1D1D1D1D1D1D30303030303030C8
:1013D0003030303030303030304444444444444481
:1013E0004444444444444444445858585858585831
:1013F000585858585858580040004FF08042D2F87A
:1014000010314FF0030C0CFA00FC01F0030123EA49
:101410000C0301FA00F01843C2F8100170474FF0B6
:1014200080424000D2F834314FF0030C16380CFAE9
:1014300000FC01F0030123EA0C0301FA00F0184359
:10144000C2F8340170474FF080424000D2F8383182
:101450004FF0030C36380CFA00FC01F0030123EACC
:101460000C0301FA00F01843C2F8380170474FF03E
:1014700080424000D2F860314FF0030C56380CFA2D
:1014800000FC01F0030123EA0C0301FA00F0184309
:10149000C2F86001704700B50346FFF78EFD0028D3
:1014A0000CBF0121002118465DF804EBFFF7ECBDED
:1014B0003E4910B50A68012451880F2873D2DFE82D
:1014C00000F072081E1E1E395072727272727269BA
:1014D0006D0011F4805F67D000214FF4885001F057
:1014E00067FF012001F0D4FD0B2002F09BFD2F4986
:1014F0004FF488500968002918BF488054E011F45F
:10150000805F51D0042812D0002141F2030001F085
:101510004FFF012001F0BCFD0D2002F083FD2348A8
:1015200041F203010068002818BF41803CE001F04F
:10153000BDFDF1E711F4805F11D0002141F20300FD
:1015400001F036FF012001F0A3FD102002F06AFD3A
:10155000164841F203010068002818BF41800120AD
:1015600015E011F4805F11D0002141F2050001F077
:101570001FFF012001F08CFD112002F053FD0B48EC
:1015800041F205010068002818BF418002200CF0DC
:1015900097F809E0107902F035FD05E0507902F086
:1015A00041FD01E0FFE70024204610BDB402012008
:1015B00004490028096814BF40F6010041F2030005
:1015C00048807047B4020120034850F88C1F21F472
:1015D000F871B0310160704700200040034850F8B6
:1015E0008C1F21F4F871016070470000002000405A
:1015F00070B50E46044600250CF014FE14F0010FE1
:1016000002BF084800F5903505F5496507D014F08C
:10161000040F04BF14F0080F002E00D1024D28461D
:1016200070BD0000F81B01203875012006480068D5
:101630008168142902D28168491C8160816814295B
:101640002CBF807900207047B40201200648006852
:10165000016A142902D2016A491C0162016A142933
:101660002CBF007F00207047B402012001480068B1
:1016700000787047B4020120014800684088704734
:10168000B4020120064800680169142902D20169E8
:10169000491C0161016914292CBF007B002070479F
:1016A000B4020120064800688169142902D28169C8
:1016B000491C8161816914292CBF007D002070477D
:1016C000B402012010B50CF099FD0149086010BD6D
:1016D000B40201200449034808600449E02081F86D
:1016E000140D7047E13A0000000001200EE000E018
:1016F0000949096858B18B790022012B06D1074BA3
:10170000D3F88CC02CF4F87CC3F88CC08A710871B3
:101710000D20087070470000B40201200020004036
:10172000094909688A7920B1002A04BF00228A6029
:1017300007E0012A05D1054A52F88C3F23F4F873DB
:101740001360887170470000B4020120002000403F
:1017500004490128096801BF0A7F002A00220A62A1
:1017600008777047B40201200849096858B18B799D
:101770000022012B06D1064BD3F88CC02CF4F87C48
:10178000C3F88CC08A71087070470000B402012051
:101790000020004070B50C4D04002A68107B04D076
:1017A000002804BF002010610BE0012809D121B1FD
:1017B00000212520FFF768FC03E001212520FFF729
:1017C00063FC2868047370BDB40201200449012839
:1017D000096801BF0A7D002A00228A6108757047E6
:1017E000B40201204FF080416FF07F40C1F88401C6
:1017F00070474FF080414FF0FF30C1F884017047CF
:10180000884810B550F88C1F21F400710160002346
:101810001A4603213220FFF70FFC00231A4603214A
:101820002E20FFF709FC00231A4603213320FFF77F
:1018300003FC00231A4603212520FFF7FDFB0023AC
:101840001A4603212D20FFF7F7FB00231A46032138
:101850000B20FFF7F1FB00231A4603210C20FFF7B2
:10186000EBFB00231A4603210D20FFF7E5FB0023C5
:101870001A4603210E20FFF7DFFB00231A4603213F
:101880000F20FFF7D9FB00231A4603211020FFF792
:10189000D3FB00231A4603211120FFF7CDFB0023C1
:1018A0001A4603211220FFF7C7FB00231A46032123
:1018B0001320FFF7C1FB00231A4603211420FFF772
:1018C000BBFB00231A4603211520FFF7B5FB0023BD
:1018D0001A4603211620FFF7AFFB00231A46032107
:1018E0001720FFF7A9FB00231A4603211820FFF752
:1018F000A3FB00231A4603211920FFF79DFB0023B9
:101900001A4603211A20FFF797FB00231A460321EA
:101910001B20FFF791FB00231A4603211C20FFF731
:101920008BFB00231A4603211D20FFF785FB0023B4
:101930001A4603211E20FFF77FFB00231A460321CE
:101940001F20FFF779FB00231A4603212020FFF711
:1019500073FB00231A4603212120FFF76DFB0023B0
:101960001A4603212220FFF767FB00231A460321B2
:101970002320FFF761FB00231A4603212420FFF7F1
:101980005BFB00231A4603212620FFF755FB0023AB
:101990001A4603212720FFF74FFB00231A46032195
:1019A0002820FFF749FB00231A4603212920FFF7CF
:1019B00043FB00231A4603212A20FFF73DFB0023A7
:1019C0001A4603210520FFF737FB00231A4603219F
:1019D0002F20FFF731FB00231A4603213020FFF7A9
:1019E0002BFB00231A4603212B20FFF725FB0023A6
:1019F0001A4603212C20FFF71FFB0123002203219D
:101A00000420FFF719FB00231A4603213420FFF7B7
:101A100013FB00230321BDE810401A463620FFF7D0
:101A20000BBB0000002000404FF080410020C1F8B7
:101A30007C01D1F8802122F00102C1F880214FF011
:101A4000E0210122C1F88021C1F88022024908600A
:101A5000024908707047000008000120D8060120E4
:101A60001549144808604FF0E0200121C0F88012A9
:101A7000E02280F80024C0F800114FF080406FF0A1
:101A80007F41C0F88411D0F87C1141F00101C0F809
:101A90007C11D0F87C1141F00201C0F87C11D0F823
:101AA000801141F00101C0F880110A21C0F88411B1
:101AB000FEE70000416500000800012014491348BA
:101AC00008604FF0E0200121C0F88012E02280F889
:101AD0000024C0F8001188076FF07F42C0F884210D
:101AE000D0F87C2142F00102C0F87C21D0F87C21A2
:101AF00042F00202C0F87C21D0F8802142F00102BD
:101B0000C0F8802103480170704700004165000063
:101B100008000120D80601202DE9F041364D286843
:101B2000448814F4006F09D12D20FFF707FA00282C
:101B3000FAD02D20FFF702FA0128FAD02F4F01200A
:101B4000B862002687F82460204601F01DFB20467D
:101B500002F04CFA42F210700CF0F0FA00F04CFE79
:101B600001F0E8F9204602F03BFA14F4006F04D0CB
:101B70004FF4FA700CF0E2FA13E02D20FFF7DEF9D3
:101B80000128FAD02D20FFF7D9F90028FAD02D200E
:101B9000FFF7D4F90128FAD02D20FFF7CFF900285C
:101BA000FAD0012002F028FA012000F011FE2046B0
:101BB00001F050F8002001F09BF9012001F068FAD3
:101BC0004FF040210F208862BE6228680121027B0D
:101BD000002A08BF06610173027D0121002A08BFA7
:101BE0008661017582790121002A08BF86608171B2
:101BF0000120BDE8F0810000B4020120CC1B0120CF
:101C0000FEE700002DE9F04104460A20A070E078CC
:101C1000002520F0FE00683040F00100E070A08850
:101C2000002884BF0F4F104E16D9F06978B110F814
:101C3000018BF061396821B1B088B28C104480B258
:101C40008847706A401C7062601980F80680681CC2
:101C500085B2A088A842E8D82046BDE8F04104F04B
:101C6000AFB800002C0B01204809012070B50446D4
:101C700000796179124E41EA002010490025096877
:101C800031B1B08088473062F06100207062B0628C
:101C90006088801E0028D8BF70BD60198179306AC5
:101CA00028B100F8011B3062B06A401CB062681CA9
:101CB00085B26088801EA842EFDC70BD280B012031
:101CC000480901202DE9F0413B493A4808600021CC
:101CD0000220FFF7FEFA00210320FFF7FAFA374847
:101CE0004FF480710027018040F26B314180212147
:101CF00081802421C180422101812521418144210B
:101D000081812221C1812321018242F6BD114182BC
:101D100049F6021181824FF48171C182876100F11D
:101D20001C0627483D460824016831604068706001
:101D3000301943222349FEF72DFC04F1430084B2FD
:101D4000681CC5B20A2DF3D3301945221E49FEF78F
:101D500021FC04F1450080B2304480221B49FEF78B
:101D600019FC4FF0E0214FF00070C1F80002C1F8FB
:101D70000001174880F80074164850F8801F21F0C1
:101D80007F0109310160416841F001014160016852
:101D900021F07F010931016040F2FF718160C1696A
:101DA00041F00101C161C16941F48071C161BDE8C7
:101DB000F0810000D91D000060000120D94F0220F1
:101DC000340701203C0701207F070120C5080120BE
:101DD00019E000E0007000402DE9F84FF84ED6F809
:101DE0009400C0F30349D6F89400D6F89410C0F3D9
:101DF000C00021F00101C6F89410F24D00274FF009
:101E0000010BA9784FF0804A012909D000B30028BE
:101E100000F00F82B9F1030F00F0E88100F0E9B99A
:101E2000E878401CC0B2E870C6F8A0700228C0F084
:101E30000082AF70DAF8040110F0100F40F0F98161
:101E4000DAF8040140F01000CAF8040100F0F1B91A
:101E5000D6F8C80010F4803F40F0EB8128690028D4
:101E600008BF01F05DFED6F8A400D74CC1B22869C6
:101E7000642802D22154401C28610228C0F0D98174
:101E8000D248AF6280F800B04780DAF8040110F061
:101E9000100F13D1DAF8040140F01000CAF8040161
:101EA0006F6285F804B0EF612F62D6F89C0040F0B5
:101EB0000100C6F89C00C64804F042F9C2480188F7
:101EC0006430012915D0212923D000F58C60222906
:101ED00036D0252900F026812869022800F050819B
:101EE00040F2A781204410F8010C01F021FE00F01F
:101EF000A0B9D6F89C1041F00101C6F89C101E2133
:101F00006962C6F8A010C6F8A070C5E9050700F020
:101F100030B9D6F89C1041F00101C6F89C10AD49CB
:101F200069614088AF6168620878C6F8A000C5F8AA
:101F300018B04878C6F8A0000220A86100F019B9CE
:101F4000A14BD97801F00F02032A0AD00421022AFA
:101F500037D0042A7ED0082A7DD0012A7CD000F018
:101F600068B9997801F00F01022940F062812A696D
:101F700095490D2AC0F05D81B1F80920002A08BFFB
:101F80006F706AD04223038009238370C3784FF0B7
:101F9000020C23F0FF036833C370A0F804C091F86B
:101FA0000BC080F806C0097BC1718B486A7013F0C2
:101FB000010F02D0FFF726FEDBE0801CFFF756FE84
:101FC000D7E0987800F00F00092880F03281DFE830
:101FD00000F095050505050562954B008DF800702C
:101FE000296900240629C0F02481DFF8F0813C2112
:101FF00088F8000008F10100FEF719FB6878002856
:1020000008D01AD94FF00001684601F06BFD012895
:102010000ED108E0982088F80100072088F8020017
:102020000220687009E008EB04019DF80000487088
:10203000601C84B268788442E4D3D6F89C0040F0F7
:102040000100C6F89C006878C01CC1B26862C6F87E
:10205000A01003E032E044E051E08AE0000AC6F854
:10206000A000C5E9058784E02869062846D3D6F88C
:102070009C0040F00100C6F89C0004206862C6F88D
:10208000A010C6F8A0705648C5E9050708210170E0
:102090000A2141706DE0286906282FD3D6F89C00EC
:1020A00040F00100C6F89C0040F203106862032073
:1020B000C6F8A000C6F8A0B04A480FE02869042876
:1020C0001CD3D6F89C0040F00100C6F89C00042008
:1020D0006862C6F8A010C6F8A0704348C5E90507B5
:1020E00047E02869042809D3987810F00F0F3ED0F4
:1020F00000F00F00012808BF2F703AD099E028693E
:1021000004285CD385F802B0EF70D6F89C0040F04C
:102110000100C6F89C00DAF8040120F01000CAF8AB
:10212000040126E028490A79092A04BF2A69442AB9
:102130007FD14A79692A04BF0A7A012A04D14A7AEE
:10214000502A08BF85F805B04022801C091DFEF703
:1021500021FA21488178092909D1C17811F0010FAC
:1021600002D0FFF74FFD02E0801CFFF77FFD85F8EE
:1021700000B064211448FEF75AFA2F6159E000BFFD
:102180008DF80070D6F89C004FF0000840F0010078
:10219000C6F89C0022786178012A41EA022004BF37
:1021A000502985F805B001F0D1FC4146684601F0A0
:1021B00099FC012804BF9DF80000C6F8A00038E093
:1021C0000070004098060120754F0220A2060120F1
:1021D00084550220F54F022039540220384F022046
:1021E0009E060120C4070120A0060120A86A401C09
:1021F000A86230486969406A89B1AA69895CC6F8F1
:10220000A010511CA961A96A814212D16F61642199
:102210002948AF61FEF70BFA2F61AF6209E0EA6966
:10222000AAB3296A814204D2505CC6F8A000481CB7
:102230002862B9F1020F18BFBDE8F88F686900285D
:102240001CBF6F61AF61286920B164211A48FEF795
:10225000EEF92F61194880F801B0A878012808BF6D
:10226000BDE8F88F85F804B0EF612F626F62AF624E
:10227000DAF8040110F0100F18BFBDE8F88FDAF893
:10228000040140F01000CAF80401BDE8F88FFFE730
:1022900000218DF80070B9F1020FD4D0684601F02A
:1022A00021FC012804BF9DF80000C6F8A000BDE88D
:1022B000F88F000098060120754F0220A206012029
:1022C00010B50CF0E5F8094C60600BF0C9F9A0609E
:1022D0000BF0CCF9E06001F05BFE0CF011F8BDE80A
:1022E000104042F210700BF029BF00008809012055
:1022F0004FF04021002818BF0F20486470472DE997
:10230000F0470BF0C3FF90F8480010F0010FC0F346
:102310004009C0F38008C0F3C007C0F30016C0F343
:102320004015C0F380144FEAD01A00F0128100214A
:102330000B20FEF7CEFF00210C20FEF7CAFF002184
:102340000D20FEF7C6FF00210E20FEF7C2FF002180
:102350000B20FEF7F3FE02210C20FEF7EFFE022118
:102360000D20FEF7EBFEB9F1000F00F01B810021FC
:102370000F20FEF7AEFF00211020FEF7AAFF00217C
:102380001120FEF7A6FF00211220FEF7A2FF002178
:102390000F20FEF7D3FE02211020FEF7CFFE022110
:1023A0001120FEF7CBFEB8F1000F00F024810021D0
:1023B0001320FEF78EFF00211420FEF78AFF002174
:1023C0001520FEF786FF00211620FEF782FF002170
:1023D0001320FEF7B3FE02211420FEF7AFFE022108
:1023E0001520FEF7ABFE002F00F02E8100211720F4
:1023F000FEF76FFF00211820FEF76BFF0021192068
:10240000FEF767FF00211A20FEF763FF0021172067
:10241000FEF794FE02211820FEF790FE02211920FB
:10242000FEF78CFE002E00F0388100211B20FEF705
:1024300050FF00211C20FEF74CFF00211D20FEF75D
:1024400048FF00211E20FEF744FF00211B20FEF75D
:1024500075FE02211C20FEF771FE02211D20FEF7F1
:102460006DFE002D00F0428100211F20FEF731FF9C
:1024700000212020FEF72DFF00212120FEF729FF5B
:1024800000212220FEF725FF00211F20FEF756FE27
:1024900002212020FEF752FE02212120FEF74EFEEF
:1024A000002C00F04C8100212320FEF712FF0021B8
:1024B0002420FEF70EFF00212620FEF70AFF002150
:1024C0002320FEF73BFE02212420FEF737FEBAF15F
:1024D000000F00F0538100212720FEF7FAFE0021B3
:1024E0002820FEF7F6FE00212920FEF7F2FE00214B
:1024F0002A20FEF7EEFE00212720FEF71FFE022114
:102500002820FEF71BFE02212920FEF717FE0121DD
:102510000E20FEF74FFF01211220FEF74BFF012195
:102520001620FEF747FF01211A20FEF743FF012185
:102530001E20FEF73FFF01212220FEF73BFF012175
:102540002620FEF737FFBDE8F04701212A20FEF7DD
:1025500031BF00231A4603210B20FEF76DFD002337
:102560001A4603210C20FEF767FD00231A460321BB
:102570000D20FEF761FD00231A4603210E20FEF711
:102580005BFD01210B20FEF715FF01210C20FEF75A
:1025900011FF01210D20FEF70DFF01210E20FEF796
:1025A00009FFE0E600231A4603210F20FEF744FD51
:1025B00000231A4603211020FEF73EFD00231A4691
:1025C00003211120FEF738FD00231A4603211220B3
:1025D000FEF732FD01210F20FEF7ECFE0121102055
:1025E000FEF7E8FE01211120FEF7E4FE0121122092
:1025F000FEF7E0FED7E600231A4603211320FEF77C
:102600001BFD00231A4603211420FEF715FD0023AD
:102610001A4603211520FEF70FFD00231A46032159
:102620001620FEF709FD01211320FEF7C3FE01214C
:102630001420FEF7BFFE01211520FEF7BBFE01218D
:102640001620FEF7B7FECEE600231A460321172018
:10265000FEF7F2FC00231A4603211820FEF7ECFCDB
:1026600000231A4603211920FEF7E6FC00231A4630
:1026700003211A20FEF7E0FC01211720FEF79AFE45
:1026800001211820FEF796FE01211920FEF792FE87
:1026900001211A20FEF78EFEC4E600231A4603210C
:1026A0001B20FEF7C9FC00231A4603211C20FEF75D
:1026B000C3FC00231A4603211D20FEF7BDFC0023A6
:1026C0001A4603211E20FEF7B7FC01211B20FEF74E
:1026D00071FE01211C20FEF76DFE01211D20FEF779
:1026E00069FE01211E20FEF765FEBAE600231A46A8
:1026F00003211F20FEF7A0FC00231A4603212020FF
:10270000FEF79AFC00231A4603212120FEF794FCD1
:1027100000231A4603212220FEF78EFC01211F20F0
:10272000FEF748FE01212020FEF744FE0121212072
:10273000FEF740FE01212220FEF73CFEB0E600231A
:102740001A4603212320FEF777FC00231A460321B3
:102750002420FEF771FC00231A4603212620FEF7F1
:102760006BFC01212320FEF725FE01212420FEF72A
:1027700021FE01212620FEF71DFEA8E600231A46B1
:1027800003212720FEF758FC00231A4603212820A6
:10279000FEF752FC00231A4603212920FEF74CFCC9
:1027A00000231A4603212A20FEF746FC0121272098
:1027B000FEF700FE01212820FEF7FCFD0121292063
:1027C000FEF7F8FD01212A20FEF7F4FD9FE6000048
:1027D0004FF0E0224FF40021C2F88012DFF814C05D
:1027E00020238CF80034002814BFC2F80011C2F86E
:1027F0008011704713E000E0194910B517480860D0
:102800000BF044FD0446FFF77AFDA06C4FF0402129
:102810000860E06C48601F20C861486920F0010032
:102820004861486940F002004861486920F00400AE
:102830004861486920F008004861486920F01000AC
:102840004861886920F47F708861886920F47F304E
:102850008861886920F47F70886110BD6528000058
:102860004C0001202DE9F0410BF01CFD0BF014FD94
:10287000FEF702FF4FF08041896911F0005F08BF49
:10288000BDE8F0811F214FF04024E1610B260127B4
:10289000B0F5885F59D014DC41F20302A0EB0201CD
:1028A00090421CD008DCA0F50060013812BFFF2860
:1028B00003200BF003FD73E0022918BF06296FD136
:1028C0000DE0A0F10300B0F500501CBF022806285F
:1028D00005D0A0F1FD00B0F5005F36D060E03248D1
:1028E0000168491C01600168012984BF0021016061
:1028F00000682E4D2860286840B9FEF7B7FEFEF745
:10290000D7FD00281CBF0020FEF72EFF2868FEF729
:10291000B3FE10F0010F09D0E662606920F00100FB
:102920006061606940F00200606108E0E762606930
:1029300020F001006061606940F002006061206F7A
:1029400020F0FE002067012028E0FEF78FFE04281B
:1029500023D0FEF78BFEFEF7ABFDF0B10020FEF7B3
:1029600003FFFEF789FE10F0010F09D0E6626069EF
:1029700020F001006061606940F00200606108E0E1
:10298000E762606920F001006061606940F0020068
:102990006061206F20F0FE00206702200BF08EFCAB
:1029A0000F20A062BDE8F081CC1B0120D4060120DD
:1029B0005F4A1080538823F4FF6323F478435380E5
:1029C0000B681B0C93800B88D3801081538923F4F0
:1029D000FF6323F4784353814B681B0C93818B88EE
:1029E000D3811082538A23F4FF6323F47843538204
:1029F0008B681B0C93820B89D3821083508B20F43D
:102A0000FF6020F478405083C868000C9083888968
:102A1000D0834FF04020016821F48071016001688B
:102A200021F400710160016821F480610160016896
:102A300021F400610160016821F4805101600168A6
:102A400021F400510160016A21F0FF01C91C0162FB
:102A5000016A21F47F4101F540710162016A21F4AC
:102A60007F0101F540310162016A21F07F4101F1EE
:102A700040710162416A21F0FF01C91C4162416A53
:102A800021F47F4101F540714162816821F47F4169
:102A90008160816821F0FF01C91C8160826C002186
:102AA00061F30C028264836C08224FF0020C6CF319
:102AB0001C438364C36C4FF0040C6CF30C03C364BD
:102AC000C36C4FF0060C6CF31C43C364036D62F3DC
:102AD0000C030365D0F850C00A2363F31C4CC0F804
:102AE00050C0D0F858C062F30C0CC0F858C0826DCA
:102AF0004FF0090C6CF31C428265C26D63F30C024B
:102B0000C265C26D0B2363F31C42C265026E0C23C7
:102B100063F30C020266026E0D2363F31C4202662D
:102B200041610F214164416C0029FCD170470000D4
:102B300000000420464A1080538823F4FF6323F4E6
:102B4000784353800B0C9380D1801081B2F80AC077
:102B50002CF4FF6C2CF4784CA2F80AC09381D1813C
:102B60001082B2F812C02CF4FF6C2CF4784CA2F84E
:102B700012C09382D1821083508B20F4FF6020F426
:102B80007840508393834FF04020D183016821F433
:102B900080710160016821F400710160016821F415
:102BA00080610160016821F400610160016A21F027
:102BB000FF01C91C0162016A21F47F4101F54071E6
:102BC0000162016A21F47F0101F540310162016A6D
:102BD00021F07F4101F140710162816821F47F4160
:102BE0008160816821F0FF01C91C8160826C002135
:102BF00061F30C028264826C08234FF0020C6CF3C8
:102C00001C428264C26C4FF0040C6CF30C02C26470
:102C1000C26C4FF0060C6CF31C42C264826D63F30D
:102C20000C028265826D092363F31C428265C26DCA
:102C30000A2363F30C02C265C26D0B2363F31C42CB
:102C4000C26541610F214164416C0029FCD170478C
:102C5000000004204FF04020416821F00101416054
:102C6000416841F002014160416821F00401416086
:102C7000416821F008014160416821F01001416084
:102C8000416821F020014160416821F0400141602C
:102C9000416821F4F06101F580714160416821F4DF
:102CA000F04101F580514160416821F400414160EB
:102CB0000F21C163016B21F0FF010F310163016B33
:102CC00021F47F410163016B21F47F0101F51021A3
:102CD0000163016B21F0F85101F1C06101630B2127
:102CE000C162016841F480710160016841F40071C2
:102CF0000160016841F480610160016841F4006194
:102D00000160016821F480510160016821F40051E3
:102D10000160016821F480410160016821F40041F3
:102D20000160416B41F001014163416941F00201E1
:102D300041616B49C2140A80891C0B8823F47E739D
:102D400003F5E0730B800B8843F440630B800B8822
:102D500023F480530B800B8843F400530B800B88C3
:102D600023F480430B800B8843F400430B805D49C0
:102D70000A80891C0B8823F47E7303F5E0730B80B3
:102D80000B8843F440630B800B8823F480530B8043
:102D90000B8843F400530B800B8823F480430B8093
:102DA0000B8843F400430B804F490A80891C0B8831
:102DB00023F47E7303F5E0730B800B8843F44063C8
:102DC0000B800B8823F480530B800B8843F4005353
:102DD0000B800B8823F480430B800B8843F4004363
:102DE0000B8042490A80891C0A8822F47E7202F50F
:102DF000E0720A800A8842F440620A800A8822F45B
:102E000080520A800A8842F400520A800A8822F41A
:102E100080420A800A8842F400420A80016A21F056
:102E2000FF0171310162016A21F47F4101F5E24144
:102E30000162016A21F47F0101F5E2010162016A88
:102E400021F07F4101F1E2410162816821F47F417B
:102E500001F5DE418160816821F0FF0181608168B8
:102E600021F0787101F1B0718160816821F4F8116D
:102E700001F570218160816C6FF30C0101F5037124
:102E80008164816C6FF31C4101F1007101F5FA015D
:102E90008164C16C6FF30C0101F2EE21C164C16C5D
:102EA0006FF31C4101F1407101F5BE01C164816DF8
:102EB0006FF30C0101F574718165816D6FF31C4135
:102EC00001F1CE618165C16D6FF30C0101F51161F6
:102ED000C165C16D6FF31C4101F13B61C165704774
:102EE00030080420F4090420B80B04207C0D0420D1
:102EF00010B5FEF7C1FB10F0010F4FF040200AD0D3
:102F00000B21C162416921F001014161416941F038
:102F10000201416109E00121C162416921F0010121
:102F20004161416941F002014161016F21F0FE01FF
:102F3000016710BD4FF04020416B21F0010141635A
:102F4000416821F001014160416821F002014160C6
:102F5000416821F004014160416821F008014160AD
:102F6000416821F010014160416821F02001416079
:102F7000416821F040014160416821F4F06101F5B0
:102F800080714160416821F4F04101F58051416058
:102F9000416821F400414160816821F0787101F1BC
:102FA000F0718160816821F4F81101F57021816070
:102FB000016B21F0FF0110310163016B21F47F41AE
:102FC00001F500710163016B21F47F0101F57021AE
:102FD0000163016B21F0F85101F1E0610163704779
:102FE0000248806890F9000070470000D00C012072
:102FF0000148406870470000D00C012010B5074C14
:10300000606800F5D660E06003F0E2FDE068BDE8CE
:10301000104000F504700BF0C1BA0000D00C012084
:1030200010B5164C42F2106213492068FDF7B2FA4F
:1030300040F6C50212496068FDF7ACFA20680BF053
:10304000A7FA60680AF036FB60681F3003F0BAFD2B
:10305000606841300BF08CFC606843300BF0FEF888
:10306000606800F518700BF08DFA0BF00BFABDE8F4
:10307000104003F05BBB00000CF70000D00C0120F7
:103080001C1D01000149896808707047D00C01209F
:1030900005490A6860F300020A60D1F8C02060F3B5
:1030A0000002C1F8C02070470020004008B50BF0B6
:1030B000FFF880680090BDF8020020F4FC6000F585
:1030C000C070ADF8020000990C488160D0F8101172
:1030D00021F47C3101F50051C0F8101150F8041FA3
:1030E00021F0FE4101F110610160C16F21F010017A
:1030F000C167C16F21F08001C16708BD0020004099
:103100000023002998BF704730B4012403EB430229
:1031100000EB820292F900C00CF01F054FEA5C1C24
:103120004FEA8C0C0CF1E02C04FA05F5CCF8805237
:1031300092F900C05568BCF1000F4FEA4515B8BFC1
:103140000CF00F0C0CF1E02CB4BF8CF8145D8CF873
:10315000005492F808C092F90020BCF1000F02F070
:103160001F0C4FEA52124FEA820204FA0CFC02F1E1
:10317000E02214BFC2F800C1C2F880C15B1C8B42C0
:10318000C4D330BC7047000030B56A4905468DB0E5
:10319000674808606949684808606A496848086083
:1031A0006A49694808600121284600F001F94FF09A
:1031B0008044E06840F04000E060E06820F04000BB
:1031C000E06015F4006F4FF002034FF001024FF082
:1031D00003014FF02D0008D0FDF72EFF022301223E
:1031E00003212E20FDF728FF05E0FDF725FF002134
:1031F0002E20FEF76EF800212F20FEF76AF800213E
:103200003020FEF766F803212F20FDF797FF0321FA
:103210003020FDF793FF00213220FEF75AF80321FA
:103220003220FDF78BFF00213320FEF752F80321F7
:103230003320FDF783FFD4F8880020F00100C4F8A4
:103240008800D4F8880020F00200C4F88800D4F880
:10325000880020F00400C4F88800D4F8880040F406
:103260008060C4F88800D4F8880020F06000C4F8BA
:103270008800D4F8880040F01800C4F88800D4F81A
:10328000880020F4C070C4F88800D4F8880020F4C6
:103290000070C4F888002E4804AD0424B0E80E1075
:1032A0008DE80E10B0E80E1085E80E100FC80DF175
:1032B000200C6D468CE80F000020012200EB40013D
:1032C00005EB810191F9003003F01F0C02FA0CFCB0
:1032D0005B099B0003F1E023C3F880C291F9003041
:1032E000D1F804C0002B4FEA4C1CB8BF03F00F0309
:1032F00003F1E023B4BF83F814CD83F800C40B7A44
:1033000091F90010002B01F01F034FEA51114FEA11
:10331000810102FA03F301F1E02114BFC1F8003189
:10332000C1F88031401CA042C8D30DB030BD0000B0
:10333000B13A0000300001201538000034000120AF
:10334000693A000038000120553300003C0001209C
:10335000ACF6000010B54FF08044A06910F4800F67
:1033600005D0D4F88C0040F00100C4F88C00A069AE
:1033700010F4001F05D0D4F88C0040F00200C4F80F
:103380008C00D4F8980010F0010F08BF10BDFEF7B4
:1033900079F928B1D4F8240120F08060C4F8240120
:1033A000D4F88C0040F04000C4F88C0010BD000040
:1033B000F0B583B00F4606460AF07AFF044600686F
:1033C00000909DF8020016F0010F20F002008DF829
:1033D0000200FE4D7ED016F0020F0ED060686860CD
:1033E000A0680190BDF8060020F4FC6000F5207094
:1033F000ADF806000198A8602FE016F0040F2CD05D
:10340000606801909DF8050020F0FC000C308DF8FC
:1034100005009DF8060020F03F00C01C8DF8060056
:103420009DF8070020F07F000F308DF8070001980D
:103430006860A0680190BDF8040020F47E5000F59B
:103440000060ADF80400BDF8060020F4FC6000F553
:103450002070ADF806000198A86020692861D4F8B2
:103460006801C5F8D400D4F86C01C5F8D800D4F8C8
:103470007001C5F8DC0000982860E068E8606069C9
:103480006861A069A861E069E861206A2862606AF1
:103490006862A06AA862E06AE862D4F81801C5F818
:1034A0008000D4F81C01C5F88400D4F82001C5F8C8
:1034B000880016F0040F45D0B320C5F89000BDF881
:1034C00001006FF38B0000F53370ADF80100BDF81B
:1034D000000000E015E000F47C40B330ADF80000DF
:1034E000BDF802006FF30D1000F53360ADF8020077
:1034F0000098C5F89400D5F8980020F0FF005930E6
:103500002AE060686860A0680190BDF8040020F4BB
:103510007E5000F5A060ADF80400BDF8060020F470
:10352000FC6000F5C070ADF806000198A860206945
:1035300001909DF8040020F01F000F308DF804006A
:1035400001988BE7D4F82401C5F89000D4F828013D
:10355000C5F89400D4F82C01C5F898000AF0A8FE2C
:1035600016F0010F0ED0D0F83011C5F89C10D0F82D
:103570003411C5F8A010D0F83811C5F8A410D0F84F
:103580003C110DE092490968C5F89C109149096801
:10359000C5F8A01090490968C5F8A4108F490968BA
:1035A000C5F8A810D0F84011C5F8AC10D0F84411F7
:1035B000C5F8B010D0F84811C5F8B410D0F84C01D7
:1035C000C5F8B800D4F85001C5F8BC00D4F85401CF
:1035D000C5F8C000D4F85801C5F8C400D4F85C019F
:1035E000C5F8C800D4F86001C5F8CC00D4F864016F
:1035F000C5F8D000D4F87401C5F8E000D4F878011B
:10360000C5F8E400D4F87C01C5F8EC00D4F88001DA
:10361000C5F8F000D4F88401C5F8F400D4F88801A6
:10362000C5F8F800D4F88C01C5F8FC00D4F8900176
:10363000C5F8000116F0040F22D0BDF8000000F418
:103640007C405A30ADF80000BDF801006FF38B00EC
:1036500000F5B470ADF801000098C5F80401BDF89C
:10366000040000F47C405A30ADF80400BDF80500B9
:103670006FF38B0000F5B470ADF80500019805E01C
:10368000D4F89401C5F80401D4F89801C5F80801EC
:10369000D4F89C01C5F80C0106F001000028D4F80C
:1036A000A00109D10090BDF8010020F47C7000F168
:1036B0002000ADF801000098C5F81001D4F8A4016D
:1036C000C5F81401D4F8A801C5F81801D4F8AC0164
:1036D000C5F81C01D4F8B001C5F82001D4F8B40134
:1036E000C5F8280104BFD4F8B801C5F82C010DD0E5
:1036F000D4F8B80116F0020F06D100906FF30A005B
:1037000000F2791000900098C5F82C01D4F8BC01A3
:10371000C5F83001D4F8C001C5F83401D4F8C401AB
:10372000C5F83801002F3AD02868C0F340440AF0A9
:10373000BFFD00EB8400016B2963806B68630AF0B6
:1037400063FD0AF07FFDFF200AF082FD0AF0B0FD64
:1037500050F8401FA9634168E96381682964C16822
:1037600069640169A9644169E96481692965C1697C
:103770006965016AA965416AE965816A2966C16A64
:103780006966016BA966416BE966816B2967C16B4C
:103790006967016CA967406CE86703B0F0BD0AF087
:1037A00087FD00F14001006800909DF8020016F0CE
:1037B000010F20F002008DF8020014D04869E8647F
:1037C000BDF8000020F4F8600AE00000002000408E
:1037D000C4060120C8060120CC060120D006012025
:1037E00000F5E0600DE0686820F0FE4000F1206028
:1037F00068600748E864BDF8000020F4F86000F550
:10380000B060ADF800000098286003B0F0BD000083
:1038100000A8AAAA2DE9F84F4FF08046B06910F42D
:10382000002F08BFBDE8F88F8D4CA06A0027012843
:1038300004BF2762E76100F0F980FDF71DFF8246B3
:103840000AF0E8FCD6F850014FF0010910F0080F1B
:1038500008D0206A401C2062206A10282BD2E06920
:1038600050BB28E0E069401CE061E069102828BFF7
:10387000E7611AF4807F14BF4FF480754FF6F91595
:10388000FDF700FF58B1E06909FA00F00004000CF0
:1038900005D0D6F8240140F08060C6F82401FDF779
:1038A000C5FE00287ED0E06909FA00F0284218BF62
:1038B000FDF794FEBAE02762206A6A4D4FF0402877
:1038C0004FF00F0B00287BD10AF056FE40690090A4
:1038D000FFF730FB9DF8000040F001008DF800007C
:1038E00000991420FFF726F99DF8000020F0010050
:1038F0008DF8000000991420FFF71CF90AF03CFE37
:10390000806800909DF8000040F008008DF80000ED
:1039100000990820FFF70EF99DF8000020F008003C
:103920008DF8000000990820FFF704F95046FFF7D2
:1039300091F9C8F828700020FFF7DAFA2760C8F874
:1039400028B0F06840F04000F060F06820F04000DF
:10395000F060E761C4F8189094F8240018B384F874
:103960002470686A40F008006862686A40F4006089
:103970006862D5F8800040F04000C5F88000D5F8B6
:10398000800040F40070C5F88000D5F8840040F055
:103990004000C5F88400D5F8840040F40070C5F8F4
:1039A000840001E042E00BE0D5F8840040F0100014
:1039B000C5F88400D5F8840040F08000C5F8840084
:1039C000206A09282CD1FDF751FE042836D01AF4BC
:1039D000807F25D084F82490D5F8840020F0400022
:1039E000C5F88400D5F8840020F40070C5F8840080
:1039F000D5F8840020F01000C5F88400D5F88400C4
:103A000020F08000C5F88400D5F8800040F0100058
:103A1000C5F88000D5F8800040F08000C5F880002F
:103A2000FDF704FE002818BFFDF7CEFDD6F88C0088
:103A300040F01000C6F88C00BDE8F88F0420FDF7B8
:103A400037FD0028ECD00220FDF78EFEC8F8287064
:103A50000020FFF74DFAC4F80090C8F828B0DFE75F
:103A6000CC1B01200020004010B54FF08044A0691D
:103A700010F4801F08BF10BD0C48806A01280ED0CA
:103A8000FDF7D4FD002818BFFDF7A8FDFDF7FAFDEE
:103A900028B1D4F8240140F08060C4F82401D4F89F
:103AA0008C0040F02000C4F88C0010BDCC1B01201D
:103AB0004FF08040816911F4802F05D0D0F88C1030
:103AC00041F00801C0F88C10816911F4000F08BFA3
:103AD0007047D0F88C1041F00401C0F88C1070478A
:103AE000FDF7CABD10B50C4C02460020E169002963
:103AF00008BF10BD08781070E069401CE0610748FD
:103B0000016821B1A088A28C104480B28847606A05
:103B1000401C6062012010BD480901202C0B0120CF
:103B200002480021016281627047000048090120BB
:103B300005490A6A002A08BF704702F8010B0A62A9
:103B4000886A401C88627047480901200749096853
:103B5000002908BF704710B5054CA0808847206237
:103B6000E06100206062A06210BD0000280B01200F
:103B700048090120F0B53F4E002491B0707801282B
:103B800018BF748004D03C4D6879012824D107E027
:103B90007088322887BF34707470401C7080F2E7E0
:103BA00044216846FCF765FD4220ADF80000102076
:103BB0008DF802004C208DF8400058208DF83F40D1
:103BC0008DF841009DF803006F4640F003008DF82A
:103BD0000300307800283ED02879012807BF2878D4
:103BE000012811B0F0BDA878002801BF686900283D
:103BF000286900281CBF11B0F0BD204802F052FA1D
:103C000000281CBF11B0F0BD1D491C4802F0B4FAD9
:103C100001281CBF11B0F0BD19481949008868621D
:103C20002C711848C5E9071450F89C2F42F0010286
:103C300002600A78426001222A62497841600220CB
:103C4000AC6228624007D0F8041121F01001C0F8DE
:103C5000041111B0F0BD094802F02EFA012804BF8A
:103C6000064802F04CFA3946044802F0B4FA6C7186
:103C7000B2E70000A2060120980601208455022028
:103C8000F75302200070004070B58CB000260096FB
:103C9000B54D0196029603960496059606960796EC
:103CA000089609960A96286820F00F00801D286063
:103CB0000720EC03A062D5F8D00140F00200C5F85F
:103CC000D0016846FDF7B6F818B39DF81400E16A14
:103CD00060F30501E162BDF814008109E06A61F357
:103CE0008810E0629DF81800E16A60F34D21E162FE
:103CF0009DF81C00E16A60F31241E162C108E06ACC
:103D000061F3D740E0629DF81D10E06A61F31B602B
:103D1000E062D5F8D00140F00200C5F8D001286873
:103D200020F00F00801D2860904850F88C1F21F46F
:103D300000710160016821F001010160009820F428
:103D4000C64020F4002040F0FF0040F4673040F40B
:103D5000802000900098A060E6600120C4F88C01EB
:103D60008348016841F4E021016082490420086031
:103D7000D4F8A800009020F01A0000900098C4F831
:103D8000A80040F6B8300AF035FB206E20F00100A4
:103D90002066206E20F480302066206E20F47C4067
:103DA00000F570502066D4F8900020F00100C4F8AF
:103DB000900000BFD4F894000128FBD1D4F8900003
:103DC00020F00200C4F89000D4F8900040F0020007
:103DD000C4F89000D4F8900020F00200C4F89000DD
:103DE000D4F8900040F00C00C4F89000D4F8900093
:103DF00020F01000C4F89000D4F8900040F00100CA
:103E0000C4F890005CA20020D2E90012CDE90012B3
:103E1000A16F41F40051A167A16F21F4E03101F5D8
:103E20008031A167A16F21F48021A167A16F21F0EA
:103E30000701A167A16F21F4C061A167A16F21F4FF
:103E4000FC718031A167A16F21F40051A167E16F7E
:103E5000A1B984E0491C8A420BD213F800C0401C6F
:103E6000A16FC0B26CF39031A1670021052828BF73
:103E70000020D4F87CC0BCF1000FEBD0206E20F005
:103E80003C00001D2066206E20F4707000F58070EC
:103E90002066206E20F002002066206E20F00100D7
:103EA0002066A06E20F01C000C30A066A06E20F4EE
:103EB000F07000F59070A066A06E20F00100A06682
:103EC000A06E20F00200A066E06C40F00200E0640A
:103ED0004FF496700AF08EFA206D40F44060206531
:103EE000206D40F4E0402065E06C40F00100E064AB
:103EF000A06E40F40070A066206D40F48030206514
:103F0000606E20F0F00010306066606E20F470602B
:103F100000F580606066606E20F001006066606E93
:103F200020F00E006066606E20F4604000F5C04036
:103F30006066606E20F480306066606E40F4805091
:103F40006066A06840F48060A060206E40F00100D0
:103F50002066A06A40F00400A0620CB070BD012190
:103F600040F266326B4684E700800040002000404B
:103F700024ED00E010ED00E0030201000400000069
:103F80004FF0804141F8B40F012088607047000075
:103F900010B500F057F80A48084901600949416026
:103FA000094981600949C1600949016109494161C3
:103FB000094981610949C16110BD0000094900003A
:103FC000C40901200944000061490000035B0000AE
:103FD000015B0000B5490000055B0000B949000025
:103FE0000149496808470000C409012001490968DE
:103FF00008470000C40901200149896808470000FA
:10400000C409012010B50446FEF794FF0449204678
:10401000C9698847FDF730FBBDE81040FEF71ABEBE
:10402000C409012010B50446FEF784FF0449204668
:1040300089698847FDF720FBBDE81040FEF70ABEFE
:10404000C409012010B50AF097FA0149086010BDB3
:10405000E409012010B510F0020F7AD06C4C2068F2
:10406000C16C4020FEF766FD2068416D4820FEF7D8
:1040700061FD2068816D4C20FEF75CFD2068C16DFC
:104080005020FEF757FD2068016E5420FEF752FDC8
:104090002068416E5820FEF74DFD2068816E5C203F
:1040A000FEF748FD2068C16E6020FEF743FD2068E2
:1040B000016F6420FEF73EFD2068416F6820FEF727
:1040C00039FD2068816F6C20FEF734FD2068C16FD8
:1040D0007020FEF72FFD2068D0F880107420FEF7C6
:1040E00029FD2068D0F884107820FEF723FD206891
:1040F000D0F888107C20FEF71DFD2068D0F88C10C9
:104100008020FEF717FD2068D0F890108420FEF77D
:1041100011FD2068D0F894108820FEF70BFD206870
:10412000D0F898108C20FEF705FD2068D0F89C1080
:104130009020FEF7FFFC2068D0F8A4109820FEF72E
:10414000F9FC2068D0F8A810BDE810409C20FEF7CC
:10415000F1BC10F0040F08BF10BD2E4C21684020A8
:10416000FEF7E8FC61684820FEF7E4FCA1684C20FB
:10417000FEF7E0FCE1685020FEF7DCFC21695420EA
:10418000FEF7D8FC61695820FEF7D4FCA1695C20D9
:10419000FEF7D0FCE1696020FEF7CCFC216A6420C8
:1041A000FEF7C8FC616A6820FEF7C4FCA16A6C20B7
:1041B000FEF7C0FCE16A7020FEF7BCFC216B7420A6
:1041C000FEF7B8FC616B7820FEF7B4FCA16B7C2095
:1041D000FEF7B0FCE16B8020FEF7ACFC216C842084
:1041E000FEF7A8FC616C8820FEF7A4FCA16C8C2073
:1041F000FEF7A0FCE16C9020FEF79CFC216D98205E
:10420000FEF798FC616DBDE810409C20FEF792BC63
:10421000E4090120000A012000281CBF0128704782
:1042200010B5784C206800F5AA714FF40770FEF7BE
:10423000BFFB206800F5B2714FF40870FEF7B8FBC1
:10424000206800F5BA714FF40970FEF7B1FB2068E1
:1042500000F5C2714FF40A70FEF7AAFB206800F562
:10426000CA714FF40B70FEF7A3FB206800F5D27102
:104270004FF40C70FEF79CFB206800F5DA714FF4E8
:104280000D70FEF795FB206800F5E2714FF40E709B
:10429000FEF78EFB206800F5EA714FF40F70FEF711
:1042A00087FB206800F5F2714FF41070FEF780FB79
:1042B000206800F5FA714FF41170FEF779FB206861
:1042C00000F501714FF41270FEF772FB206800F5E3
:1042D00005714FF41370FEF76BFB206800F5097150
:1042E0004FF41470FEF764FB206800F50D714FF475
:1042F0001570FEF75DFB206800F511714FF4167024
:10430000FEF756FB206800F515714FF41770FEF7A5
:104310004FFB206800F536714FF44770FEF748FBFD
:10432000206800F53A714FF44870FEF741FB2068B1
:1043300000F53E714FF44970FEF73AFB206800F536
:1043400042714FF44A70FEF733FB206800F5467166
:104350004FF44B70FEF72CFB206800F54A714FF4C8
:104360004C70FEF725FB206800F54E714FF44D7040
:10437000FEF71EFB206800F552714FF44E70FEF7F9
:1043800017FB206800F556714FF44F70FEF710FBD5
:10439000206800F55A714FF45070FEF709FB206851
:1043A00000F55E714FF45170FEF702FB206800F5D6
:1043B00062714FF45270FEF7FBFA206800F56671E7
:1043C0004FF45370FEF7F4FA206800F56A714FF469
:1043D0005470FEF7EDFA206800F56E714FF45570D9
:1043E000FEF7E6FA206800F572714FF45670FEF79A
:1043F000DFFA2068BDE8104000F576714FF4577081
:10440000FEF7D6BAE409012070B5FF4C0646012537
:10441000206841680420FEF78DFB20688168082031
:10442000FEF788FB206801691020FEF783FB2068F7
:1044300041691420FEF77EFB206881691820FEF791
:1044400079FB2068C1691C20FEF774FB2068016AB3
:104450002020FEF76FFB2068416A2420FEF76AFBEC
:10446000206800F128012820FEF7A2FA2068816B5D
:104470002C20FEF75FFB2068C16B3020FEF75AFB53
:104480002068016C3420FEF755FB2068416C382011
:10449000FEF750FB2068816C3C20FEF74BFB206848
:1044A000016D4420FEF746FB2068D0F8A010942050
:1044B000FEF740FB3046FFF7CDFD2068D0F8AC108A
:1044C000A020FEF737FB2068D0F8B010A420FEF73C
:1044D00031FB2068D0F8B410A820FEF72BFB206831
:1044E000D0F8B810AC20FEF725FB2068D0F8BC103F
:1044F000B020FEF71FFB2068D0F8C010B420FEF7F4
:1045000019FB2068D0F8C410B820FEF713FB206810
:10451000D0F8C810BC20FEF70DFB2068D0F8CC10F6
:10452000C020FEF707FB2068D0F8D010C420FEF7AB
:1045300001FB2068D0F8DC10C820FEF7FBFA2068E9
:10454000D0F8E810CC20FEF7F5FA2068D0F8F41087
:10455000D020FEF7EFFA2068D0F80011D420FEF743
:10456000E9FA2068D0F80411D820FEF7E3FA2068B1
:10457000D0F80811DC20FEF7DDFA2068D0F80C1125
:10458000E020FEF7D7FA2068D0F81011E420FEF7FB
:10459000D1FA2068D0F81411E820FEF7CBFA206891
:1045A000D0F81811EC20FEF7C5FA2068D0F81C11DD
:1045B000F020FEF7BFFA2068D0F82011F420FEF7B3
:1045C000B9FA2068D0F82411F820FEF7B3FA206871
:1045D000D0F82811FC20FEF7ADFA2068D0F8381189
:1045E0006802FEF7A7FA2068D0F83C114FF401707A
:1045F000FEF7A0FA2068D0F840114FF40270FEF7E1
:1046000099FA2068D0F844114FF40370FEF792FA3B
:104610002068D0F848114FF40470FEF78BFA206838
:10462000D0F84C114FF40570FEF784FA2068D0F8EA
:1046300050114FF40670FEF77DFA2068D0F864122E
:104640004FF41870FEF776FA2068D0F868124FF42D
:104650001970FEF76FFA2068D0F86C124FF41A70D8
:10466000FEF768FA2068D0F870124FF41B70FEF75E
:1046700061FA2068D0F874124FF41C70FEF75AFAF1
:104680002068D0F878124FF41D70FEF753FA2068B6
:10469000D0F87C124FF41E70FEF74CFA2068D0F868
:1046A00080124FF41F70FEF745FA2068D0F884128C
:1046B0004FF42070FEF73EFA2068D0F888124FF4CD
:1046C0002170FEF737FA2068D0F88C124FF4227070
:1046D000FEF730FA2068D0F890124FF42370FEF7FE
:1046E00029FA2068D0F894124FF42470FEF722FAC9
:1046F0002068D0F898124FF42570FEF71BFA206856
:10470000D0F89C124FF42670FEF714FA2068D0F807
:10471000A0124FF42770FEF70DFA2068D0F8A4120B
:104720004FF42870FEF706FA2068D0F8A8124FF46C
:104730002970FEF7FFF92068D0F8AC124FF42A7008
:10474000FEF7F8F92068D0F8B0124FF42B70FEF79E
:10475000F1F92068D0F8B4124FF42C70FEF7EAF9A2
:104760002068D0F8BC124FF44070FEF7E3F92068DF
:10477000D0F8C0124FF44170FEF7DCF92068D0F891
:10478000C4124FF44270FEF7D5F92068D0F8C81271
:104790004FF44370FEF7CEF92068D0F8CC124FF4F6
:1047A0004470FEF7C7F92068D0F8D0124FF4457076
:1047B000FEF7C0F92068D0F8D4124FF44670FEF727
:1047C000B9F92068D0F8E8134FF45870FEF7B2F941
:1047D0002068D0F8EC134FF45970FEF7ABF920685D
:1047E000D0F8F0134FF45A70FEF7A4F92068D0F80F
:1047F000F4134FF45B70FEF79DF92068D0F8F813BE
:104800004FF45C7002E00000E4090120FEF792F929
:104810002068D0F8FC134FF45D70FEF78BF9206828
:10482000D0F800144FF45E70FEF784F92068D0F8D9
:1048300004144FF45F70FEF77DF92068D0F8081477
:104840004FF46070FEF776F92068D0F80C144FF43E
:104850006170FEF76FF92068D0F810144FF46270A1
:10486000FEF768F92068D0F814144FF46370FEF76F
:1048700061F92068D0F818144FF46470FEF75AF903
:104880002068D0F81C144FF46570FEF753F92068C7
:10489000D0F820144FF46670FEF74CF92068D0F879
:1048A00024144FF46770FEF745F92068D0F82814F7
:1048B0004FF46870FEF73EF92068D0F82C144FF4DE
:1048C0006970FEF737F92068D0F830144FF46A7039
:1048D000FEF730F92068D0F834144FF46B70FEF70F
:1048E00029F92068D0F838144FF46C70FEF722F9DB
:1048F0002068D0F840144FF4FE60FEF71BF900204A
:10490000FFF78AFC284670BD10B50446012300223B
:1049100003213420FCF790FB642009F00FFC14F411
:10492000006F09D12E20FCF709FB0128FAD02E20B8
:10493000FCF704FB0028FAD00A2009F0FFFB002155
:104940003420FCF7A1FB0A2009F0F8FB01213420F8
:10495000FCF79AFBBDE81040642009F0EFBB0000B3
:1049600008B5002100919DF8001060F300018DF85A
:10497000001000991820FEF7DDF80D480068406926
:1049800000909DF8000040F001008DF800000099B3
:104990001420FEF7CFF89DF8000020F001008DF8FC
:1049A00000000099BDE808401420FEF7C3B80000DD
:1049B000E40901207047000010B594B0202824BFFE
:1049C00014B010BDDFE800F0FDFCFCFCFCFCFCFCBE
:1049D000FCFB10FAF9F8F7F6F5F4F3F2FCFCF1F051
:1049E000EFFCFCFCFCFCFCEEFE4850F8FC1F21F048
:1049F000010140F87C19016821F040010160016863
:104A000021F4007101609DF8380040F001008DF83C
:104A10003800BDF8381040F2FE700143ADF8381090
:104A20009DF8391041F008018DF83910BDF8392092
:104A300040F2FE3161F30D12ADF839209DF83C20B3
:104A400042F001028DF83C20BDF83C201043ADF847
:104A50003C009DF83D0040F008008DF83D00BDF899
:104A60003D0061F30D10ADF83D009DF8000040F0F1
:104A700007008DF800009DF8000040F038008DF828
:104A80000000BDF8000040F4E070ADF800009DF8B3
:104A9000010040F00E008DF801009DF8010040F08B
:104AA00070008DF80100BDF8010040F46070ADF8B1
:104AB00001009DF8020040F01C008DF802009DF8F6
:104AC000020040F0E0008DF802009DF8030040F085
:104AD00007008DF803009DF8030040F038008DF8C2
:104AE00003009DF8040040F007008DF804009DF8D5
:104AF000040040F038008DF80400BDF8040040F4D4
:104B0000E070ADF804009DF8050040F00E008DF84F
:104B100005009DF8050040F070008DF80500BDF817
:104B2000050040F46070ADF805009DF8060040F007
:104B30001C008DF806009DF8060040F0E0008DF89E
:104B400006009DF8070040F007008DF807009DF86B
:104B5000070040F038008DF807000E994FF40570FB
:104B6000FDF7E8FF0F994FF44570FDF7E3FF00995B
:104B70004FF41670FDF7DEFF01994FF45670FDF704
:104B8000D9FF99480068D0F884121091D0F8081421
:104B90001191D0F888121291D0F80C141391D0F81A
:104BA0008C120FE0FEE3FEE30CE3A9E26EE22FE2DB
:104BB000F0E1B1E172E133E1EEE0AFE070E0F3E3A8
:104BC000AAE0F2E30F91D0F810140E91D0F89812E9
:104BD0000091D0F81C0401909DF8400020F00300E3
:104BE0008DF840009DF8480040F003008DF8480023
:104BF0009DF83C0040F003008DF83C009DF83D001E
:104C000040F040008DF83D009DF8440020F0030086
:104C10008DF844009DF84C0040F003008DF84C00E6
:104C20009DF8380040F003008DF838009DF83900F9
:104C300040F040008DF839009DF8010020F0300070
:104C400010308DF801009DF8050020F03000103084
:104C50008DF8050010994FF42070FDF76BFF119946
:104C60004FF46070FDF766FF12994FF42170FDF765
:104C700061FF13994FF46170FDF75CFF0F994FF4DA
:104C80002270FDF757FF0E994FF46270FDF752FF47
:104C900000994FF42570FDF74DFF019900F058BDC4
:104CA0009DF8380040F001008DF83800BDF838104C
:104CB00040F2FE700143ADF838109DF8391041F014
:104CC00008018DF83910BDF8392040F2FD3161F34B
:104CD0000D12ADF839209DF83C2042F001028DF80C
:104CE0003C20BDF83C201043ADF83C009DF83D0051
:104CF00040F008008DF83D00BDF83D0061F30D1057
:104D0000ADF83D000E994FF40570FDF713FF0F99B4
:104D10004FF44570FDF70EFF14B010BD9DF838003C
:104D200040F001008DF83800BDF8381040F2FE70F8
:104D30000143ADF838109DF8391041F008018DF8A5
:104D40003910BDF8392040F2FB3161F30D12ADF896
:104D500039209DF83C2042F001028DF83C20BDF83E
:104D60003C201043ADF83C009DF83D0040F00800A9
:104D70008DF83D00BDF83D0061F30D10ADF83D002C
:104D80000E994FF40570FDF7D5FE0F994FF445705D
:104D9000FDF7D0FE14B010BD9DF8380040F00100C2
:104DA0008DF83800BDF8381040F2FE700143ADF8C0
:104DB00038109DF8391041F008018DF83910BDF810
:104DC000392040F2F73161F30D12ADF839209DF82A
:104DD0003C2042F001028DF83C20BDF83C201043FD
:104DE00004E0000000200040E4090120ADF83C0090
:104DF0009DF83D0040F008008DF83D00BDF83D00F5
:104E000061F30D10ADF83D000E994FF40570FDF7FC
:104E100091FE0F994FF44570FDF78CFE14B010BD54
:104E20009DF8380040F001008DF83800BDF83810CA
:104E300040F2FE700143ADF838109DF8391041F092
:104E400008018DF83910BDF8392040F2EF3161F3D7
:104E50000D12ADF839209DF83C2042F001028DF88A
:104E60003C20BDF83C201043ADF83C009DF83D00CF
:104E700040F008008DF83D00BDF83D0061F30D10D5
:104E8000ADF83D000E994FF40570FDF753FE0F99F4
:104E90004FF44570FDF74EFE14B010BD9DF838007C
:104EA00040F001008DF83800BDF8381040F2FE7077
:104EB0000143ADF838109DF8391041F008018DF824
:104EC0003910BDF8392040F2DF3161F30D12ADF831
:104ED00039209DF83C2042F001028DF83C20BDF8BD
:104EE0003C201043ADF83C009DF83D0040F0080028
:104EF0008DF83D00BDF83D0061F30D10ADF83D00AB
:104F00000E994FF40570FDF715FE0F994FF445709B
:104F1000FDF710FE14B010BD9DF8380040F0010000
:104F20008DF83800BDF8381040F2FE700143ADF83E
:104F300038109DF8391041F008018DF83910BDF88E
:104F4000392040F2BF3161F30D12ADF839209DF8E0
:104F50003C2042F001028DF83C20BDF83C2010437B
:104F6000ADF83C009DF83D0040F008008DF83D0094
:104F7000BDF83D0061F30D10ADF83D000E994FF402
:104F80000570FDF7D7FD0F994FF44570FDF7D2FD81
:104F900014B010BD9DF8380040F001008DF83800C5
:104FA000BDF8381040F2FE700143ADF838109DF89E
:104FB000391041F008018DF83910BDF8392040F260
:104FC0007F3161F30D12ADF839209DF83C2042F09D
:104FD00001028DF83C20BDF83C201043ADF83C00A8
:104FE0009DF83D0040F008008DF83D00BDF83D0003
:104FF00061F30D10ADF83D000E994FF40570FDF70B
:1050000099FD0F994FF44570FDF794FD14B010BD54
:105010009DF8380040F001008DF83800BDF83810D8
:1050200040F2FE700143ADF838109DF8391041F0A0
:1050300008018DF83910BDF8392040F2FF2161F3E5
:105040000D12ADF839209DF83C2042F001028DF898
:105050003C20BDF83C201043ADF83C009DF83D00DD
:1050600040F008008DF83D00BDF83D0061F30D10E3
:10507000ADF83D000E994FF40570FDF75BFD0F99FB
:105080004FF44570FDF756FD14B010BD9DF8380083
:1050900040F001008DF83800BDF8381040F2FE7085
:1050A0000143ADF838109DF8391041F008018DF832
:1050B0003910BDF83920811061F30D12ADF8392097
:1050C0009DF83C2042F001028DF83C20BDF83C20C8
:1050D0001043ADF83C009DF83D0040F008008DF80D
:1050E0003D00BDF83D0061F30D10ADF83D000E9997
:1050F0004FF40570FDF71EFD0F994FF44570C1E7A1
:10510000FE4850F8FC1F21F0010140F87C190168AD
:1051100041F040010160016841F400710160F84C08
:105120002068D0F84C114FF40570FDF703FD20689E
:10513000D0F8D0124FF44570FDF7FCFC206800F564
:1051400011714FF41670FDF733FC206800F5727191
:105150004FF45670FDF72CFC2068D0F884124FF401
:105160002070FDF7E7FC2068D0F808144FF4607059
:10517000FDF7E0FC2068D0F888124FF42170FDF7AD
:10518000D9FC2068D0F80C144FF46170FDF7D2FC04
:105190002068D0F88C124FF42270FDF7CBFC206809
:1051A000D0F810144FF46270FDF7C4FC2068D0F8FA
:1051B00098124FF42570FDF7BDFC2068D0F81C1440
:1051C00000F0C6BACD4850F8FC1F21F0010140F8AC
:1051D0007C19016821F040010160016821F400712F
:1051E0000160C74C2068D0F83C110F919DF83C102D
:1051F00021F01F018DF83C10D0F8C01211919DF8DC
:10520000441021F01F018DF844109DF8001041F06A
:1052100007018DF800109DF8001041F038018DF85D
:105220000010BDF8001041F4E071ADF800109DF8D9
:10523000011041F00E018DF801109DF8011041F0B0
:1052400070018DF80110BDF8011041F46071ADF8E6
:1052500001109DF8021041F01C018DF802109DF81C
:10526000021041F0E0018DF802109DF8031041F0AA
:1052700007018DF803109DF8031041F038018DF8F7
:1052800003109DF8041041F007018DF804109DF8FB
:10529000041041F038018DF80410BDF8041041F4F9
:1052A000E071ADF804109DF8051041F00E018DF885
:1052B00005109DF8051041F070018DF80510BDF83E
:1052C000051041F46071ADF805109DF8061041F02D
:1052D0001C018DF806109DF8061041F0E0018DF8D4
:1052E00006109DF8071041F007018DF807109DF892
:1052F000071041F038018DF80710816E0E919DF86E
:10530000381021F07F01891C8DF838109DF83A1073
:1053100021F0E00140318DF83A10D0F89C12029152
:10532000D0F8201406919DF8081021F020018DF886
:1053300008109DF8081041F010018DF808109DF834
:10534000181021F020018DF818109DF8181041F068
:1053500010018DF81810D0F89C120391D0F8201489
:1053600007919DF80C1041F020018DF80C109DF86C
:105370000C1021F010018DF80C109DF81C1041F05C
:1053800020018DF81C109DF81C1021F010018DF8E3
:105390001C10D0F89C120491D0F8201408919DF8AC
:1053A000101003E061E1DAE069E3D4E121F02001CB
:1053B0008DF810109DF8101041F010018DF81010AC
:1053C0009DF8201021F020018DF820109DF820106C
:1053D00041F010018DF82010D0F89C120591D0F802
:1053E000200409909DF8140040F020008DF814006E
:1053F0009DF8140020F010008DF814009DF8240092
:1054000040F020008DF824009DF8240020F01000CA
:105410008DF824000F994FF40170FDF78BFB119963
:105420004FF44170FDF786FB00994FF41670FDF7BD
:1054300081FB01994FF45670FDF77CFB0E995C20BF
:10544000FDF778FB02A94FF42670FDF7B1FA06A923
:105450004FF46670FDF7ACFA2068D0F88412109112
:10546000D0F808141191D0F888121291D0F80C14C9
:105470001391D0F88C120F91D0F810140E91D0F82F
:1054800098120091D0F81C0401909DF8400020F083
:1054900003008DF840009DF8480040F003008DF8AF
:1054A00048009DF83C0040F003008DF83C009DF85A
:1054B0003D0040F040008DF83D009DF8440020F094
:1054C00003008DF844009DF84C0040F003008DF877
:1054D0004C009DF8380040F003008DF838009DF82E
:1054E000390040F040008DF839009DF8010020F0AF
:1054F000300010308DF8010004E000000020004072
:10550000E40901209DF8050020F0300010308DF8EE
:10551000050010994FF42070FDF70CFB11994FF422
:105520006070FDF707FB12994FF42170FDF702FB45
:1055300013994FF46170FDF7FDFA0F994FF4227043
:10554000FDF7F8FA0E994FF46270FDF7F3FA00993F
:105550004FF42570FDF7EEFA019900F0F9B8FE4816
:105560000068D0F89C120291D0F8201406919DF8A2
:10557000081041F020018DF808109DF8081021F066
:1055800010018DF808109DF8181041F020018DF8D9
:1055900018109DF8181021F010018DF81810D0F88F
:1055A0009C120391D0F8201407919DF80C1021F063
:1055B00020018DF80C109DF80C1041F010018DF8B1
:1055C0000C109DF81C1021F020018DF81C109DF886
:1055D0001C1041F010018DF81C10D0F89C120491A1
:1055E000D0F8201408919DF8101041F020018DF89A
:1055F00010109DF8101021F010018DF810109DF87A
:10560000201041F020018DF820109DF8201021F08D
:1056100010018DF82010D0F89C120591D0F82004CC
:1056200009909DF8140020F020008DF814009DF8DA
:10563000140040F010008DF814009DF8240020F0B4
:1056400020008DF824009DF8240040F010008DF813
:10565000240002A94FF42670FDF7AAF906A94FF419
:105660006670FDF7A5F914B010BDBC4850F8FC1FDA
:1056700021F0010140F87C19016841F0400101600E
:10568000016841F400710160B34C2068D0F89C12AD
:105690004FF42670FDF74EFA2068D0F820144FF42E
:1056A0006670FDF747FA206800F511714FF4167027
:1056B000FDF77EF9206800F572714FF45670FDF722
:1056C00077F92068D0F83C114FF40170FDF732FAF9
:1056D0002068D0F8C0124FF44170FDF72BFA206813
:1056E000816E5C20FDF726FA2068D0F884124FF412
:1056F0002070FDF71FFA2068D0F808144FF460708E
:10570000FDF718FA2068D0F888124FF42170FDF7E1
:1057100011FA2068D0F80C144FF46170FDF70AFA02
:105720002068D0F88C124FF42270FDF703FA20683D
:10573000D0F810144FF46270FDF7FCF92068D0F82F
:1057400098124FF42570FDF7F5F92068D0F81C1475
:105750004FF4657096E480480068816A0A91C16AD6
:105760000B91016B0C91416B0D919DF8291041F04B
:1057700008018DF829109DF82A1021F00C01091D4F
:105780008DF82A109DF82A1021F0300110318DF883
:105790002A109DF8291021F0C00140318DF8291000
:1057A0009DF82A1021F00301491C8DF82A109DF85C
:1057B0002D1041F008018DF82D109DF82E1021F0CC
:1057C0000C01091D8DF82E109DF82E1021F03001CE
:1057D00010318DF82E109DF82D1021F0C0014031B0
:1057E0008DF82D109DF82E1021F00301491C8DF825
:1057F0002E109DF8311041F008018DF831109DF800
:10580000321021F00C01091D8DF832109DF8321074
:1058100021F0300110318DF832109DF8311021F057
:10582000C00140318DF831109DF8321021F0030194
:10583000491C8DF832109DF8351041F008018DF8A3
:1058400035109DF8361021F00C01091D8DF8361029
:105850009DF8361021F0300110318DF836109DF88A
:10586000351021F0C00140318DF835109DF836100B
:1058700021F00301491C8DF836109DF8001021F02D
:105880000701891D8DF800109DF8001021F03801E6
:1058900030318DF80010BDF8001021F4E07101F5F1
:1058A000C071ADF800109DF8011021F00E010C310F
:1058B0008DF801109DF8011021F0700160318DF814
:1058C0000110BDF8011021F4607101F54071ADF8CF
:1058D00001109DF8021021F01C0118318DF8021002
:1058E0009DF8021021F0E001C0318DF802109DF802
:1058F000031021F00701891D8DF803109DF8031096
:1059000021F0380130318DF803109DF8041021F09A
:105910000701891D8DF804109DF8041021F038014D
:1059200030318DF80410BDF8041021F4E07101F558
:10593000C071ADF804109DF8051021F00E010C3176
:105940008DF805109DF8051021F0700160318DF87B
:105950000510BDF8051003E0E40901200020004017
:1059600021F4607101F54071ADF805109DF8061045
:1059700021F01C0118318DF806109DF8061021F059
:10598000E001C0318DF806109DF8071021F00701E5
:10599000891D8DF807109DF8071021F0380130316E
:1059A0008DF80710D0F884121091D0F808141191D6
:1059B000D0F888121291D0F80C141391D0F88C12F0
:1059C0000F91D0F810040E909DF8400020F00300D5
:1059D000801C8DF840009DF8440020F00300801CDE
:1059E0008DF844009DF8480040F003008DF8480011
:1059F0009DF84C0040F003008DF84C009DF83C00F1
:105A000040F003008DF83C009DF83D0040F0400060
:105A10008DF83D009DF8380040F003008DF8380007
:105A20009DF8390040F040008DF839000AA928207F
:105A3000FCF7BEFF00994FF41670FDF77BF8019953
:105A40004FF45670FDF776F810994FF42070FDF77B
:105A500071F811994FF46070FDF76CF812994FF4DA
:105A60002170FDF767F813994FF46170FDF762F844
:105A70000F994FF42270FDF75DF80E993AE01F4C34
:105A8000206800F128012820FCF792FF206800F52B
:105A900011714FF41670FCF78BFF206800F57271DE
:105AA0004FF45670FCF784FF2068D0F884124FF44E
:105AB0002070FDF73FF82068D0F808144FF46070AC
:105AC000FDF738F82068D0F888124FF42170FDF700
:105AD00031F82068D0F80C144FF46170FDF72AF803
