:020000040000FA
:10400000A0E7012049410000574100008916001037
:104010005B4100005D4100005F41000000000000C6
:1040200000000000000000000000000061410000EE
:1040300063410000000000005505001065050010F8
:104040008505001095050010A5050010B5050010A8
:1040500075050010C5050010D5050010E505001018
:10406000F5050010050600101506001025060010C5
:10407000350600104506001000F002F800F084F844
:104080000AA090E8000C82448344AAF10107DA45B3
:1040900001D100F079F8AFF2090EBAE80F0013F081
:1040A000010F18BFFB1A43F001031847E800000096
:1040B000280100000A444FF0000C10F8013B13F0F7
:1040C000070408BF10F8014B1D1108BF10F8015B71
:1040D000641E05D010F8016B641E01F8016BF9D164
:1040E00013F0080F1EBF10F8014BAD1C0C1B09D1BB
:1040F0006D1E58BF01F801CBFAD505E014F8016B2D
:1041000001F8016B6D1EF9D59142D6D370470000BE
:10411000103A24BF78C878C1FAD8520724BF30C8F3
:1041200030C144BF04680C607047000000230024C5
:1041300000250026103A28BF78C1FBD8520728BFB7
:1041400030C148BF0B6070474FF0E0211020C1F82C
:10415000800108488047FEE7FEE7FEE7FEE7FEE74E
:10416000FEE7FEE7FEE7FEE703480449044A054B85
:104170007047000079400000A0DB0120A0E701208B
:10418000A0DF0120A0DF012040F2110CC1F2000CE1
:1041900060470000D4410000000000105CBE000039
:1041A000104100003000010000000020CC30000071
:1041B000B4400000440801000070022000300000FC
:1041C000B440000044080100CC300020D4B6010007
:1041D0002C4100001FB59DE8030000F095F91FBDBC
:1041E00010B510BD00F01EFA1146FFF7F3FF0AF0FC
:1041F00053FD00F03CFA03B4FFF7F2FF03BC00F0FC
:104200006DFA000070B5064600F062F9056806F127
:104210000B0020F00704B4429CBF002070BD2B4669
:104220006A68BAB11068A04210D304F1080188424C
:104230003CBF5068586007D351681019416011683D
:10424000091B016058601460101D70BD1346526850
:10425000002AE7D12146284600F042F90028DED1A5
:1042600070BD70B50446051F00F032F90068002CDF
:1042700014BF446870BD002C18BFAC423CBF204640
:104280006468F8D301680A18AA4218BF456003D1D0
:104290002A6805461144016028684119A1421CBFE3
:1042A0006C6070BD6168696021680844286070BDF9
:1042B00053EA020C00F069802DE9F04B4FF0000644
:1042C000002B1FBFB3FA83F503FA05F424FA05F6B1
:1042D0005E4012BF1643B2FA82F502FA05F4C5F148
:1042E00020051EBF22FA05FC44EA0C04203556EADC
:1042F000044C4FEA144418BF641C4FF000084FF000
:104300000009904271EB030C39D3002919BFB1FAAF
:1043100081F701FA07F6B0FA80F700FA07F6C7F15D
:1043200020071EBF20FA07FC46EA0C062037B6FB22
:10433000F4FCA7EB0507103F07F01F0BCBF120069D
:104340000CFA0BFB2CFA06F644BFB3460026202FCE
:10435000A4BF5E464FF0000B5BEA060C08BF4FF0AF
:10436000010B19EB0B09ABFB027C48EB0608C01BE9
:1043700006FB02CC0BFB03CC71EB0C01C1E70B4637
:10438000024641464846BDE8F08B13B54FF00000A9
:104390004FF00001AFF30080BDE81C407047032AD6
:1043A00040F2308010F0030C00F0158011F8013B52
:1043B000BCF1020F624498BF11F801CB00F8013B39
:1043C00038BF11F8013BA2F1040298BF00F801CBFD
:1043D00038BF00F8013B11F0030300F0CB80083A2E
:1043E000C0F0088051F8043B083A51F804CBA0E82B
:1043F0000810F5E7121D5CBF51F8043B40F8043B80
:10440000AFF30080D20724BF11F8013B11F801CBB4
:1044100048BF11F8012B24BF00F8013B00F801CB85
:1044200048BF00F8012B704702F0FF0343EA032264
:1044300042EA024200F002B84FF000020429C0F044
:10444000128010F0030C00F01B80CCF1040CBCF1C6
:10445000020F18BF00F8012BA8BF20F8022BA1EB18
:104460000C0100F00DB85FEAC17C24BF00F8012BFD
:1044700000F8012B48BF00F8012B70474FF00002F5
:1044800000B5134694469646203922BFA0E80C504A
:10449000A0E80C50B1F12001BFF4F7AF090728BF25
:1044A000A0E80C5048BF0CC05DF804EB890028BFA1
:1044B00040F8042B08BF704748BF20F8022B11F0CA
:1044C000804F18BF00F8012B704770477047704746
:1044D0000048704748DB01207047704770477047BD
:1044E00038B504460A4600206946AFF3008000282C
:1044F00008BF38BD02460099204600F071F801203F
:1045000038BD012000F086B8F8B5AFF3008005464D
:1045100000200C46102000BF0646A819A0420DD965
:10452000324669460020AFF30080070008BF00F064
:1045300071F80098A04218BF0546C419FFF7C8FFDC
:1045400005600746F01D20F007004619284600F0D8
:104550000AF8B44208BFF8BDA21B31463868BDE86E
:10456000F84000F03DB800210160C0E9011070473B
:104570001020704710B5203AC0F00B80B1E81850F9
:10458000203AA0E81850B1E81850A0E81850BFF43D
:10459000F5AF5FEA027C24BFB1E81850A0E81850DC
:1045A00044BF18C918C0BDE810405FEA827C24BF30
:1045B00051F8043B40F8043B08BF7047D20728BFBE
:1045C00031F8023B48BF11F8012B28BF20F8023B0D
:1045D00048BF00F8012B70470048704740DB0120BE
:1045E000034640688C46002818BF88423CBF0346FB
:1045F0004068F8D318681844884207D00CF10300CB
:1046000020F00700001D411A521A0146081D0A60D9
:10461000FFF727BE10B500F039F8BDE8104000F0F4
:104620002FB870477546FFF7D7FFAE4605006946BD
:10463000534620F00700854618B020B500F014F965
:10464000BDE820404FF000064FF000074FF0000893
:104650004FF0000B21F00701AC46ACE8C009ACE814
:10466000C009ACE8C009ACE8C0098D46704710B578
:104670000446AFF300802046BDE81040FFF7BBBD05
:10468000002801D000F02AB87047000010B50128BA
:1046900005D0002103A000F027F8012010BD09A1DA
:1046A000F8E7000053494752544D454D3A204F75A5
:1046B00074206F662068656170206D656D6F72791A
:1046C000000000003A2048656170206D656D6F72D2
:1046D0007920636F727275707465640001491820E7
:1046E000ABBEFEE72600020070B505460C460A2068
:1046F00000E06D1C00F011F835B128780028F8D1E1
:1047000002E0641C00F009F814B120780028F8D108
:10471000BDE870400A20AFF3008008B569468DF807
:1047200000000320ABBE08BD10B53F48006810B1C3
:104730003D480068804710BD10B53C48006810B186
:104740003A480068804710BD10B53948006810B17C
:1047500037480068804710BD10B53648006810B172
:1047600034480068804710BD10B53348006810B168
:1047700031480068804710BD10B53048006810B15E
:104780002E480068804710BD10B52D48006810B154
:104790002B480068804710BD10B52A48006810B14A
:1047A00028480068804710BD10B52748006810B140
:1047B00025480068804710BD10B52448006810B136
:1047C00022480068804710BD10B52148006810B12C
:1047D0001F480068804710BD10B51E48006810B122
:1047E0001C480068804710BD10B51B48006810B118
:1047F00019480068804710BD10B51848006810B10E
:1048000016480068804710BD10B51548006810B103
:1048100013480068804710BD10B51248006810B1F9
:1048200010480068804710BD8C3000209030002078
:1048300094300020983000209C300020A0300020D0
:10484000A4300020A8300020AC300020B030002080
:10485000B4300020B8300020BC300020C030002030
:10486000C4300020C830002044F2691CC0F2000CA3
:10487000604700000348C17801290CBF012040783F
:10488000704700002022002010B403461046002983
:104890001DBF491C5FEA51010D4A10BC08BF70479B
:1048A00033F804CB8CEA0004240A0CF0FF0C32F835
:1048B0001440491E84EA002080B28CEA102C32F8A1
:1048C0001CC08CEA002080B2EAD110BC7047000006
:1048D000782E00202DE9F843FF4C4FF0010CD4F85E
:1048E000000110F0400F18BFBDE8F883FB4D012315
:1048F0000822E86903264FF002080178C1F3411944
:104900000021B9F1000F0DD00A27B9F1010F00F015
:104910003D81B9F1020F04BF4278982A00F0A481CA
:1049200000F092B990F801C0BCF10C0F80F08C81BE
:10493000DFE80CF00612FE31FE7276FE7A81FDFC95
:104940008088E74901EB40002862A5F80C80BDE8AB
:10495000F843002000F01EBB817811F0FF0102D067
:10496000012907D00EE08188DD4810F8112022F0DF
:10497000010205E08188DA4810F8112022F00202D5
:1049800000F81120D4F8200140F00100C4F8200103
:10499000AE70BDE8F883817811F0FF0103D00129E2
:1049A00029D000F051B98288CD4911F8123043F076
:1049B000010301F81230808810F0800F00F00E0122
:1049C0000CD04FF4B07000EB810040F4403040F068
:1049D0008040016821F480510160D3E74FF4C0703A
:1049E00000EB810040F4403040F08040016821F449
:1049F00080510160C6E7D4F8201141F00101C4F8EC
:104A00002011AE708188B64810F8112042F00202E1
:104A100000F81120BDE8F8834088C4F80401B1E72C
:104A2000BDE8F84300F080B92D62AB81BDE8F843E2
:104A3000002000F0AFBA84F8A1314FF0200C84F8C8
:104A4000A2C184F8A31184F8A561122184F8A911E8
:104A500084F8AA61142184F8A811162184F8AB11F6
:104A60004021C4F86411C4F88811C4F86C11C4F86A
:104A70007411232184F8AD1184F8AE1184F8AC11BF
:104A800084F8AF11C4F82823D4F82C1341F4002182
:104A9000C4F82C13D4F82C1341F00801C4F82C13DB
:104AA000D4F82C1321F40021C4F82C13D4F82C13BF
:104AB00021F00801C4F82C134FF48041C4F81813F6
:104AC0008849C4F81C13D4F8181341F00101C4F844
:104AD0001813D4F8641121F48051C4F86411D4F887
:104AE000881121F48051C4F88811D4F86C1121F494
:104AF0008051C4F86C11D4F8741121F48051C4F8B9
:104B0000741142F21071C4F81011D4F8201141F060
:104B10000101C4F82011D4F8041141F08001C4F857
:104B20000411AE70807828706B7002E00CE002E037
:104B30008AE0BDE8F8838DF80010C5F820D0AB817D
:104B4000002000F027FAF0E7808858B1012810D043
:104B500002287FF417AFD4F8740120F48050C4F811
:104B600074010FE7D4F8640120F48050C4F86401A4
:104B700008E7D4F8880120F48050C4F88801D4F8FC
:104B80006C0120F48050C4F86C01FBE690F80190B1
:104B9000B9F1010F0AD05449B9F1020F5BD0B9F154
:104BA000090F25D0B9F10A0F45D04DE0408800F437
:104BB0007F41B1F5407F47D1C0B206280CD008280C
:104BC00042D14A48027047702862A5F80C80BDE8BF
:104BD000F843002000F0DEB94548696A08442862BD
:104BE00040F20110A881BDE8F843002000F0D2B9DE
:104BF000418801F47F42B2F5407F25D1C9B207292F
:104C000008D13C492962C088A881012000F0C2F97E
:104C10004FF0000CE8698178052903D0BCF1000F42
:104C200083D011E034492962C088A881BDE8F843E7
:104C3000012000F0AFB9428812F0FF004FEA1222C3
:104C400018BF0A547FF49EAED4F8200140F004004F
:104C5000C4F8200196E6807808442862AB81BDE85C
:104C6000F843002000F096B980880428ECD005288D
:104C7000EAD1224C4FF48070A4460426CCF8007090
:104C8000ACF804000520ACF80600ACF8081042218E
:104C9000CCF80A1030211AA0CCF80E60ACF8121033
:104CA000421E0CF112010C2057788F7012F8027F0F
:104CB00001F8047F401EF7D1CCF84460CCF84830AE
:104CC000BCF80800401CACF80800DCF800004230DA
:104CD000CCF80000696A1FE00000034010250020A6
:104CE000847D012079A50120967D012020250020CA
:104CF000E5230020282500201E250020967B01208A
:104D000053656C65637469766553757370656E641D
:104D1000456E61626C65640021442962A881BDE82A
:104D2000F843002000F036B92DE9F0418A4F002207
:104D30000124F9694FF0030C4888050A0F2D00F093
:104D4000E78008DC4FF01201012D0AD0022D10D0AF
:104D5000032D19D026E02623212D7DD0222D7CD0B5
:104D600020E07E483862B981BDE8F041002000F0C3
:104D700011B97B48796A084438625220B881BDE88D
:104D8000F041002000F006B910F0FF031BD0012B0A
:104D900024D0022B2DD0EE2B04BFA0F50073B3F569
:104DA000F77331D06F48D0F8201141F00401C0F8FA
:104DB0002011D0F8201141F00101C0F8201187F82E
:104DC00002C0BDE8F0816848796A0844386204206E
:104DD000B881BDE8F041002000F0DCB86348796A92
:104DE000084438623220B881BDE8F041002000F06C
:104DF000D1B85F48796A084438621A20B881BDE8A2
:104E0000F041002000F0C6B85A4B1846017080F8F7
:104E100001C04FF04D0C80F802C04FF0530C80F8E9
:104E200004C04FF0460C80F806C04FF0540C80F8D8
:104E300008C04FF0310C80F80AC04FF0300C80F8F9
:104E40000CC080F80EC04FF0980C80F810C042746F
:104E5000786A1844386201E006E02AE0B981BDE8CA
:104E6000F041002000F096B8434D4FF0090C284661
:104E7000212680F800C0467040F21116468002716B
:104E80004471222282718988002904BF40F2CD2119
:104E9000A0F8071003D0012908BFA0F80730786AEE
:104EA00028443862A7F80CC0BDE8F041002000F0AB
:104EB00071B8888810B1012820D024E030482F4CE8
:104EC0000026016821604068082560606019402262
:104ED0002C49FFF764FA05F1400085B2701CC6B298
:104EE0000A2EF3D3601945222749FFF758FA796A49
:104EF00005F1450021443962B88104E02348796A0C
:104F000008443862BB81BDE8F041002000F042B89F
:104F10001F4A05211046072301700F2141700C2103
:104F2000418004714371102383710223C371037A9A
:104F300043F01E030372437A23F00F030A3323F076
:104F4000F003B0334372786A10443862B981BDE827
:104F5000F041002000F01EB810250020A4220020FF
:104F6000B622002000000340082300200C2300206C
:104F70003E230020847B0120957E0120ACA20120ED
:104F80005823002060230020A0230020E6240020D6
:104F9000787B01201D4B1A46996A928921B14029DC
:104FA00038BF89B208D208E0D969C988914204D3D0
:104FB000402A38BF114600D34021D3F824C08C4486
:104FC000A2EB0C02C3F824C09A6201225A71104A63
:104FD000D2F82CC32CF4803CC2F82CC3D2F82CC3DA
:104FE0002CF0010CC2F82CC30902C0F1010041EA07
:104FF0004000C2F80003186AC2F80403D2F80003A4
:1050000040F00100C2F800037047000010250020A6
:10501000000003401348C16B11F0007F08BF7047C8
:10502000016C41F000710164406810F0200F18BF5E
:10503000704710B500F024F910F4807F08D00A48BA
:105040000078002818BF10BD00F004F928B910BD81
:1050500000F000F9002808BF10BDBDE8104000F0C6
:10506000D6B80000007000406022002070470000A9
:1050700070B51B4C06461948E0641A4860600D463E
:105080000A200AF011FE18486060226912F0800FB1
:10509000FCD102F08BFE00200821A562C4E90610B5
:1050A0004120C4E90406207B10F0200F06D10A201D
:1050B0000AF0FAFD207B10F0200FF8D0E06840F0F5
:1050C0002000E0600A200AF0EFFD0848E0640520B7
:1050D0000AF0EAFDE06C0028FDD170BD0100FA0580
:1050E000001000401032547698BADCFE0000FA0539
:1050F000054904480860064904480860064905480F
:1051000008607047007000401C220020410E001013
:105110009C300020990E0010A030002070B506468B
:105120000D46D6E90001002450EA01020ED009F034
:105130007DFA0F4A12682346FFF7BAF8642200236B
:10514000FFF7B6F8296880B208442860094800686B
:10515000220442EA104102044FF0E020806980B24C
:1051600010432143C6E90001288880B270BD0000C9
:10517000882200208422002070B5124D01004FF0DB
:1051800001042868408808D0022902D003290FD0E2
:1051900003E0A0F58051053901D0002410E041F270
:1051A000030002F023FD296841F20300488007E074
:1051B00041F2050002F01AFD296841F2050048801D
:1051C000204670BDF02100204FF0804081B0C169C1
:1051D0000091009921F004010091009989B201F138
:1051E000806101F1FD7100910099C161416A0091F6
:1051F000009921F004010091009989B201F18061C8
:1052000001F1FD7100910099416201B070474FF0CA
:10521000804081B0C1690091009941F00401009182
:10522000009989B201F1806101F1FD71009100994D
:10523000C161416A0091009941F004010091009917
:1052400089B201F1806101F1FD7100910099416223
:1052500001B070470648006841790A2906D2491C06
:10526000C9B241710A293CBF0020704700797047DC
:10527000F02100200148006800787047F0210020EC
:105280000148006840887047F02100200648006807
:10529000C1790A2906D2491CC9B2C1710A293CBF89
:1052A0000020704780797047F021002010B5044637
:1052B00009F0E4F90649002C086014BF40F601012A
:1052C00041F203014180BDE8104002F09FBB0000A5
:1052D000F0210020164981B00A68117920B1002917
:1052E00004BF0021517120E001291ED18907CB693B
:1052F0000093009B43F004030093009B9BB203F1D7
:10530000806303F1FD730093009BCB614B6A0093B4
:10531000009B43F004030093009B9BB203F1806366
:1053200003F1FD730093009B4B62107101B0704755
:10533000F02100201E4981B00968A8B30A79002332
:10534000012A30D19207D2F81CC0CDF800C0DDF898
:1053500000C04CF0040CCDF800C0DDF800C01FFA0E
:105360008CFC0CF1806C0CF1FD7CCDF800C0DDF8FC
:1053700000C0C2F81CC0D2F824C0CDF800C0DDF8CF
:1053800000C04CF0040CCDF800C0DDF800C01FFADE
:105390008CFC0CF1806C0CF1FD7CCDF800C0DDF8CC
:1053A00000C0C2F824C00B71087001B07047000043
:1053B000F02100200149096848807047F021002051
:1053C0000449096820B18A79002A04BF0022CA7101
:1053D00088717047F02100200548016841F0010103
:1053E0000160416811F0010F18BF704703F002BD62
:1053F0000080004010B54FF08041B948C863B94CF7
:10540000A06E20F0C000A066E06840F00800E060F8
:10541000606820F008006060606E20F44000606604
:10542000A06840F00060A060206820F0006020606C
:10543000606E20F440106066A06840F08060A0605C
:10544000206820F08060206000210122084609F0D9
:10545000F7FA01220021042009F0F2FA01220021CA
:10546000082009F0EDFA012200210C2009F0E8FAE9
:1054700001220021102009F0E3FA0122002114206A
:1054800009F0DEFA01220021022009F0D9FA0122F6
:105490000021062009F0D4FA012200210A2009F097
:1054A000CFFA012200210E2009F0CAFA01220021C0
:1054B000122009F0C5FA01220021162009F0C0FAD5
:1054C00001220021032009F0BBFA0122002107205C
:1054D00009F0B6FA012200210B2009F0B1FA0122ED
:1054E00000210F2009F0ACFA01220021132009F05D
:1054F000A7FA01220021172009F0A2FA002108468C
:105500000AF0D8FB002104200AF0D4FB0021082077
:105510000AF0D0FB00210C200AF0CCFB0021102067
:105520000AF0C8FB002114200AF0C4FB002102206D
:105530000AF0C0FB002106200AF0BCFB00210A2073
:105540000AF0B8FB00210E200AF0B4FB0021122063
:105550000AF0B0FB002116200AF0ACFB002103206A
:105560000AF0A8FB002107200AF0A4FB00210B2071
:105570000AF0A0FB00210F200AF09CFB0021132061
:105580000AF098FB002117200AF094FB606820F4D1
:1055900000406060E06840F40040E060A06E20F0F1
:1055A0004040A066606E20F040706066A06840F0E9
:1055B0008050A060206820F080502060206E20F095
:1055C0000C002066A06840F00200A060206820F077
:1055D00002002060206E20F440602066A06840F049
:1055E0002000A060206820F020002060206E20F4C1
:1055F00040202066A06840F40070A060206820F47D
:1056000000702060206E20F040602066A06840F4AA
:105610000050A060206820F400502060606E20F0F0
:105620000C006066A06840F40030A060206820F4A0
:1056300000302060606E20F440606066A06840F436
:105640000010A060206820F400102060606E20F43C
:1056500040306066A06840F08070A060206820F054
:1056600080702060606E20F440206066A06840F08A
:105670000070A060206820F000702060A06920F019
:105680000060A061A06920F08060A061E06920F066
:105690000400E061A06920F00800A061A06920F08A
:1056A0008000A061A06920F40060A061A06920F4DE
:1056B0000040A061A06920F40020A061A06920F44E
:1056C0000000A061E06E20F00300E066E06840F4B6
:1056D0008030E060606840F48030606010BD0000A1
:1056E0007000FA050070004000224FF0E021012018
:1056F000C1F88001C1F880020848016841F0010149
:105700000160416811F0010F05D141684AF6CE43AE
:1057100063F300014160024802707047008000405E
:105720008C2200200D4910B50B4808604FF08040D6
:10573000C1690B4A1143C1614FF0E0200124C0F858
:105740008042802180F80014C0F80041054803F031
:1057500051FB0548047010BD8D4C0010983000209E
:105760000200FA05008000408C220020F8B5384D78
:105770002868468841F2030002F082F8354C206820
:1057800020F080402060206820F00040206032201F
:1057900008F0D8FE206840F080402060206840F08B
:1057A00000402060642008F0CDFE01F089FD01F08A
:1057B00009FB01F02DFF206810F0006FFBD020687E
:1057C00010F0006FFBD1304602F07CFD002808BFCE
:1057D000F8BD206810F0806FFBD1206810F0806F5A
:1057E000FBD002F079FD304601F09EFD012001F072
:1057F000D7F8206810F0806FFBD1206810F0806F20
:10580000FBD0012001F0CCF8012001F0C1FF012004
:1058100001F0C4FA2868012100228379002B08BF17
:10582000C2718171E06920F02000E061012003462F
:10583000024600900021252009F090F90649202019
:1058400081F800040220491EC1F800010120F8BDC2
:10585000F02100200070004001E000E0FEE70000C1
:1058600070B504460A2020706078002620F0FE0003
:10587000683040F0010060703546334632463146AC
:10588000012009F0B3FD00231A461946042009F04F
:10589000ADFD608800280FD900234FF480621946BF
:1058A000032009F0A3FD61190871681C85B2701C02
:1058B00086B26088B042EFD800231A46194602200B
:1058C00009F094FD15482146D0F8C2071E2828BFCC
:1058D00070BD124C002908BF70BD012084F8C607B6
:1058E00094F8C007422200EB401004EB4000001D7A
:1058F000FEF755FDD4F8C2070021401CC4F8C207CA
:1059000094F8C007401CC0B284F8C0071E2828BF06
:1059100084F8C01784F8C61770BD00008C7F012082
:1059200070B504460A20A070E078002620F0FE0042
:10593000683040F00100E07035463346324631466B
:10594000012009F053FD00231A461946042009F0EE
:105950004DFDA08800280FD900234FF4806219461E
:10596000032009F043FD61198871681C85B2701C21
:1059700086B2A088B042EFD800231A46194602200A
:1059800009F034FD2046BDE8704002F0ADBC70B5B2
:1059900000240546234622462146012009F026FD23
:1059A00000231A461946042009F020FD68880028C3
:1059B0000CD92819641C0379A1B24FF4805203203A
:1059C00009F014FD6888A4B2A042F2D80023BDE813
:1059D00070401A461946022009F008BD14491348C0
:1059E00008604FF0E0211020C1F800012020091DBF
:1059F00081F800040F48016821F07F01283101601F
:105A0000416841F001014160016821F07F012831C6
:105A1000016040F2FF718160C16941F00101C16123
:105A2000C16941F48071C1617047000065180010C0
:105A300094300020002000402DE9F04FF74B83B058
:105A4000D86BC0F30E400190586920F001005861F6
:105A5000F34C0025607901280ED1F2486571416848
:105A600011F4803F03D1416841F480314160A57059
:105A70000020E560C4E90E005869DFF8A483C0F394
:105A8000034A0127D8F820000090421CE64898F805
:105A900007C098F803100688D8F81C90D8F81000B2
:105AA000BAF1010F36D0DD4B5B69C3F3034E4346B9
:105AB000BEF1030FD3F82480D3F82CA0DB4B08F100
:105AC000010B1B6860D0D54AD2F81490C9F3034982
:105AD000B9F1020F00F036815069C0F30340042889
:105AE0001CBF03B0BDE8F08F002912BFB8F1000F52
:105AF00003B0BDE8F08F98F80010C4F824B0106A25
:105B000061F307001062002B58D06089504480B2C6
:105B1000984753E0D0B1BCF1000F1CBF03B0BDE803
:105B2000F08FE771A5700021E560C4E90E11BD4852
:105B3000416811F4803F1CBF03B0BDE8F08F41689D
:105B400041F48031416003B0BDE8F08F01291BBFF3
:105B500060780128BCF1000F03B018BFBDE8F08FDA
:105B6000009819F80010186A61F3070018622262A1
:105B700019F80210186A61F30700186202F10100B7
:105B8000206203B0BDE8F08FA44ED6F814E01EF0FA
:105B9000080F19D001297DD000297CD0B8F1000F61
:105BA00004BF03B0BDE8F08F98F80010C4F824B02B
:105BB000306A61F307003062002BA6D1E06A401C16
:105BC000E06203B0BDE8F08F974A00297AD00198CF
:105BD000012815D002281FD09CBF03B0BDE8F08F6C
:105BE000A06A002804BF03B0BDE8F08F716A00F816
:105BF000011BA062206B401C206303B0BDE8F08F46
:105C0000706AC0B2608160894FF6FF7101EA0020BE
:105C1000608103B0BDE8F08F706A6189C0B208434B
:105C200060812079D0B96089010241EA102080B2F8
:105C3000022120283AD06089030243EA102080B272
:105C4000222833D06089030243EA102080B225283D
:105C50002CD06089B0F5A87F08BFE1702771F0698A
:105C600040F00100F06172480168002904BF03B0F0
:105C7000BDE8F08F60898847A0622563E5626062B5
:105C8000002804BF03B0BDE8F08F10F8011B60626C
:105C9000306A01E035E037E061F3070030626348C5
:105CA000016800291CBF6089884787E72771E57074
:105CB0006089000A107060895070216103B0BDE8EE
:105CC000F08FFFE7B16C11F4803F1CBF03B0BDE85B
:105CD000F08F716A6428C9B224BF03B0BDE8F08FA9
:105CE0001154401C20611078252804BF03B0BDE882
:105CF000F08FA5700020E560C4E90E0003B0BDE898
:105D0000F08FE57067702770277040B1D4E90510F7
:105D10000B5C316A63F307013162401CA06160785B
:105D200001280EBFBCF1000F03B0BDE8F08F009852
:105D300019F80010306A61F307003062226203B084
:105D4000BDE8F08FD8B3222E02D0252E22D03CE021
:105D500035488178C07811F00F0F00F00F0008BFB0
:105D600008280BD001F00F02012A08BF082809D02B
:105D700011F0300F08BF012808D026E06561A56149
:105D8000277022E06561A56125701EE06561A5614F
:105D900067711AE0244827720179092915D1011D7C
:105DA0004022A830FEF7FBFA2248817809290AD15F
:105DB000C17811F0010F03D0FFF7B2FD03E00AE054
:105DC000801CFFF7E4FD2770A77064211648FEF7DA
:105DD00033FB256104E0BCF1000F04BFE771A7713C
:105DE0002078012808BF677004D065700021E56045
:105DF000C4E90E11A07901281CBF03B0BDE8F08FE3
:105E00000848416811F4803F03D1416841F4803172
:105E10004160A57103B0BDE8F08F00000020004094
:105E20002022002000700040B05901208C2B00205F
:105E3000882B0020565A012010B50446334884B000
:105E40000168D1F8E8020290D1F854050390D1F826
:105E5000EC020090D1F8580501909DF8090020F05F
:105E6000300020308DF809009DF80D0020F0300042
:105E700020308DF80D0002994FF41A7001F004F8EB
:105E800003994FF45A7000F0FFFF14B1012C17D0A2
:105E90002EE09DF8000020F010008DF800009DF825
:105EA000000040F020008DF800009DF8040040F054
:105EB00010008DF804009DF8040020F0200015E08B
:105EC0009DF8000040F010008DF800009DF80000E3
:105ED00020F020008DF800009DF8040020F0100054
:105EE0008DF804009DF8040040F020008DF80400B7
:105EF00000994FF41B7000F0C7FF019904B04FF4F4
:105F00005B70BDE8104000F0BFBF0000EC25002032
:105F100010B56FF0404421464FF4057000F0B4FF17
:105F200021464FF4067000F0AFFF21464FF4077092
:105F300000F0AAFF21464FF4087000F0A5FF2146AB
:105F40004FF4097000F0A0FF21464FF40A7000F0F2
:105F50009BFF21464FF40B7000F096FF21464FF453
:105F60000C7000F091FF21464FF40D7000F08CFF93
:105F700021464FF40E7000F087FF21464FF40F705A
:105F800000F082FF21464FF4457000F07DFF21466E
:105F90004FF4467000F078FF21464FF4477000F050
:105FA00073FF21464FF4487000F06EFF21464FF416
:105FB000497000F069FF21464FF44A7000F064FF19
:105FC00021464FF44B7000F05FFF21464FF44C70B8
:105FD00000F05AFF21464FF44D7000F055FF214666
:105FE0004FF44E7000F050FF21464FF44F7000F018
:105FF0004BFF21464FF4127000F046FF21464FF44C
:10600000137000F041FF21464FF4527000F03CFF46
:106010002146BDE810404FF4537000F035BF00003A
:10602000114900B5096883B0D1F898200092D1F8E1
:10603000041301919DF8001060F345018DF80010E4
:106040009DF8041060F345018DF8041000994FF499
:10605000047000F019FF019903B04FF444705DF82B
:1060600004EB00F011BF0000EC250020154882B0C1
:106070000068C06900909DF8000040F020008DF895
:1060800000009DF8010020F00300401C8DF8010085
:106090009DF8010020F00C00001D8DF801009DF816
:1060A000010020F0300010308DF801009DF8010053
:1060B00020F0C00040308DF8010000991C2002B093
:1060C00000F0E2BEEC25002010B5FE480122041FBE
:1060D00000F19C0120604FF4057000F06BFC20681B
:1060E000012200F1BC014FF4067000F063FC20684F
:1060F000012200F1DC014FF4077000F05BFC206826
:10610000012200F1FC014FF4087000F053FC2068FC
:10611000012200F58E714FF4097000F04BFC2068ED
:10612000012200F59E714FF40A7000F043FC2068D4
:10613000012200F5AE714FF40B7000F03BFC2068BB
:10614000012200F5BE714FF40C7000F033FC2068A2
:10615000012200F5CE714FF40D7000F02BFC206889
:10616000012200F5DE714FF40E7000F023FC206870
:10617000012200F5EE714FF40F7000F01BFC206857
:10618000012200F5FE714FF4107000F013FC20683E
:10619000012200F507714FF4117000F00BFC20682C
:1061A000012200F50F714FF4127000F003FC20681B
:1061B000012200F517714FF4137000F0FBFB20680B
:1061C000012200F51F714FF4147000F0F3FB2068FA
:1061D000012200F527714FF4157000F0EBFB2068E9
:1061E000012200F52F714FF4167000F0E3FB2068D8
:1061F000012200F542714FF4457000F0DBFB20688E
:10620000012200F54A714FF4467000F0D3FB20687C
:10621000012200F552714FF4477000F0CBFB20686B
:10622000012200F55A714FF4487000F0C3FB20685A
:10623000012200F562714FF4497000F0BBFB206849
:10624000012200F56A714FF44A7000F0B3FB206838
:10625000012200F572714FF44B7000F0ABFB206827
:10626000012200F57A714FF44C7000F0A3FB206816
:10627000012200F581614FF44D7000F09BFB206816
:10628000012200F585614FF44E7000F093FB206809
:10629000012200F589614FF44F7000F08BFB2068FC
:1062A000012200F58D614FF4507000F083FB2068EF
:1062B000012200F591614FF4517000F07BFB2068E2
:1062C000012200F595614FF4527000F073FB2068D5
:1062D000012200F599614FF4537000F06BFB2068C8
:1062E000012200F59D614FF4547000F063FB2068BB
:1062F000012200F5A1614FF4557000F05BFB2068AE
:10630000012200F5A5614FF4567000F053FB2068A0
:10631000022200F19C014FF4057000F04BFB206855
:10632000022200F1BC014FF4067000F043FB20682C
:10633000022200F1DC014FF4077000F03BFB206803
:10634000022200F1FC014FF4087000F033FB2068DA
:10635000022200F58E714FF4097000F02BFB2068CB
:10636000022200F59E714FF40A7000F023FB2068B2
:10637000022200F5AE714FF40B7000F01BFB206899
:10638000022200F5BE714FF40C7000F013FB206880
:10639000022200F5CE714FF40D7000F00BFB206867
:1063A000022200F5DE714FF40E7000F003FB20684E
:1063B000022200F5EE714FF40F7000F0FBFA206836
:1063C000022200F5FE714FF4107000F0F3FA20681D
:1063D000022200F507714FF4117000F0EBFA20680B
:1063E000022200F50F714FF4127000F0E3FA2068FA
:1063F000022200F517714FF4137000F0DBFA2068E9
:10640000022200F51F714FF4147000F0D3FA2068D7
:10641000022200F527714FF4157000F0CBFA2068C6
:10642000022200F52F714FF4167000F0C3FA2068B5
:10643000022200F542714FF4457000F0BBFA20686B
:10644000022200F54A714FF4467000F0B3FA20685A
:10645000022200F552714FF4477000F0ABFA206849
:10646000022200F55A714FF4487000F0A3FA206838
:10647000022200F562714FF4497000F09BFA206827
:10648000022200F56A714FF44A7000F093FA206816
:10649000022200F572714FF44B7000F08BFA206805
:1064A000022200F57A714FF44C7000F083FA2068F4
:1064B000022200F581614FF44D7000F07BFA022258
:1064C000206801E0F025002000F585614FF44E7052
:1064D00000F070FA2068022200F589614FF44F70D5
:1064E00000F068FA2068022200F58D614FF45070C8
:1064F00000F060FA2068022200F591614FF45170BB
:1065000000F058FA2068022200F595614FF45270AD
:1065100000F050FA2068022200F599614FF45370A0
:1065200000F048FA2068022200F59D614FF4547093
:1065300000F040FA2068022200F5A1614FF4557086
:1065400000F038FA2068BDE8104000F5A56102228D
:106550004FF4567000F02EBA70B505461C48041F63
:106560002060D0F8E8124FF41A7000F08DFC20681B
:10657000D0F854154FF45A7000F086FC012D02D06B
:10658000022D0DD01FE02068D0F8EC124FF41B70E4
:1065900000F07AFC2068D0F858154FF45B7010E0DA
:1065A0002068C1691C2000F06FFC2068D0F89810AA
:1065B0004FF4047000F068FC2068D0F804134FF426
:1065C000447000F061FCBDE87040FFF77DBD000045
:1065D000F025002010B5A74888B0041F206041684E
:1065E000042000F051FC20688168082000F04CFC79
:1065F0002068C1680C2000F047FC20680169102069
:1066000000F042FC20684169142000F03DFC206845
:106610008169182000F038FC2068C1691C2000F056
:1066200033FC2068416A242000F02EFC2068816A37
:10663000282000F029FC2068C16A2C2000F024FCEE
:106640002068016B302000F01FFC2068416B342073
:1066500000F01AFC2068816B382000F015FC2068DF
:10666000C16B3C2000F010FC2068016C402000F061
:106670000BFC2068416C442000F006FC2068816C13
:10668000482000F001FC2068C16C4C2000F0FCFBAD
:106690002068016D502000F0F7FB2068416D542008
:1066A00000F0F2FB2068816D582000F0EDFB2068BF
:1066B000C16D5C2000F0E8FB2068016E602000F0F6
:1066C000E3FB2068416E642000F0DEFB2068816EF1
:1066D000682000F0D9FB2068C16E6C2000F0D4FB6C
:1066E0002068016F702000F0CFFB2068416F74209C
:1066F00000F0CAFB2068816F782000F0C5FB20689D
:10670000C16F7C2000F0C0FB2068D0F88010802092
:1067100000F0BAFB2068D0F88410842000F0B4FBAD
:106720002068D0F888104FF4007000F0ADFB2068AE
:10673000D0F88C104FF4017000F0A6FB2068D0F860
:1067400090104FF4027000F09FFB2068D0F8941076
:106750004FF4037000F098FB2068D0F898104FF4C5
:10676000047000F091FB2068D0F8DC124FF4177031
:1067700000F08AFB2068D0F8E0124FF4187000F0A7
:1067800083FB2068D0F8E4124FF4197000F07CFB12
:106790002068D0F8E8124FF41A7000F075FB2068FA
:1067A000D0F8EC124FF41B7000F06EFB2068D0F8AC
:1067B000F0124FF41C7000F067FB2068D0F8F41260
:1067C0004FF4407000F060FB2068D0F8F8124FF4EE
:1067D000417000F059FB2068D0F8FC124FF4427071
:1067E00000F052FB2068D0F800134FF4437000F023
:1067F0004BFB2068D0F804134FF4447000F044FBC6
:106800002068D0F848154FF4577000F03DFB206821
:10681000D0F84C154FF4587000F036FB2068D0F8D3
:1068200050154FF4597000F02FFB022269464FF4C7
:10683000597000F0D1FB2068D0F854154FF45A700D
:1068400000F022FB2068D0F858154FF45B7000F080
:106850001BFB2068D0F85C154FF45C7000F014FB53
:10686000FFF732FC022241F20941042000F07EFCD5
:1068700008B010BDF025002010B5002421464FF4CB
:10688000057000F001FB21464FF4067000F0FCFAA1
:1068900021464FF4077000F0F7FA21464FF40870D4
:1068A00000F0F2FA21464FF4097000F0EDFA2146AB
:1068B0004FF40A7000F0E8FA21464FF40B7000F034
:1068C000E3FA21464FF40C7000F0DEFA21464FF453
:1068D0000D7000F0D9FA21464FF40E7000F0D4FA92
:1068E00021464FF40F7000F0CFFA21464FF4457067
:1068F00000F0CAFA21464FF4467000F0C5FA21466E
:106900004FF4477000F0C0FA21464FF4487000F091
:10691000BBFA21464FF4497000F0B6FA21464FF415
:106920004A7000F0B1FA21464FF44B7000F0ACFA17
:1069300021464FF44C7000F0A7FA21464FF44D70F9
:1069400000F0A2FA21464FF44E7000F09DFA214665
:106950004FF44F7000F098FA21464FF4127000F097
:1069600093FA21464FF4137000F08EFA21464FF44B
:10697000527000F089FA2146BDE810404FF4537080
:1069800000F082BA10B508F0A1F90449886007F058
:10699000D1FFBDE8104001F09EBC0000A025002002
:1069A0000349002818BF3F20C1F8D40070470000F9
:1069B0000050004030B4D1F808C08D690C690B68F4
:1069C000022A08BF00F58050494908808A8822F4CD
:1069D0007E7208328A808A8822F440628A808A889D
:1069E00022F400528A808A8822F480428A808A882F
:1069F00022F400428A801A0C0A818B8108828A8ADA
:106A000022F47E7208328A828A8A22F440628A8262
:106A10008A8A22F400528A828A8A22F480428A82F6
:106A20008A8A22F400428A824FEA1C420A83A1F831
:106A30001CC008848A8C22F47E7208328A848A8C74
:106A400022F440628A848A8C22F400528A848A8CDE
:106A500022F480428A848A8C22F400428A84220CA6
:106A60000A858C850886888E20F47E70083088869A
:106A7000888E20F440608886888E20F400508886B6
:106A8000888E20F480408886888E20F40040888696
:106A9000280C08878D8717480421C0F8B010C0F86B
:106AA000B410C0F8B810C0F8BC10C0F8C010C0F8DE
:106AB000C410C0F8E4100021C0F8E8100E4AC0F875
:106AC000EC201222C0F8D8204FF48012C0F8DC204D
:106AD0000A4AC0F8E02081613F21C0F8D410016962
:106AE00011F0400FFBD00121C16130BC70470000A4
:106AF00000000220005000400C00080016001400A6
:106B0000A54850F8601F21F00301491C40F84819BE
:106B1000816C21F00C01091D8164816C21F0300130
:106B200010318164816C21F0C00140318164816C3D
:106B300021F4407101F580718164816C21F4406120
:106B400001F580618164816C21F4405101F580512F
:106B50008164816C21F4404101F580418164816C44
:106B600021F4403101F580318164816C21F44021B0
:106B700001F580218164816C21F4401101F58011BF
:106B80008164816C21F4400101F580018164816C94
:106B900021F0407101F180718164816C21F04061CC
:106BA00001F180618164816C21F0405101F18051DB
:106BB0008164816C21F0404101F180418164C16CAC
:106BC00021F00301491CC164C16C21F00C01091DB5
:106BD000C164C16C21F030011031C164C16C21F07D
:106BE000C0014031C164C16C21F4407101F5807174
:106BF000C164C16C21F4406101F58061C164C16C64
:106C000021F4405101F58051C164C16C21F440412F
:106C100001F58041C164016821F00801016001684B
:106C200021F080010160016821F4006101600168C8
:106C300021F400410160016821F400210160016834
:106C400021F400010160816841F0080181608168E0
:106C500041F080018160816841F400618160816858
:106C600041F400418160816841F4002181608168C4
:106C700041F400018160816E41F001018166816E05
:106C800041F002018166816E41F004018166016E6E
:106C900041F001010166016E41F002010166016EE1
:106CA00041F004010166816E41F010018166816E40
:106CB00041F020018166816E41F040018166016EE4
:106CC00041F010010166016E41F020010166016E84
:106CD00041F040010166816E41F480718166816EF0
:106CE00041F400718166816E41F480618166016EBC
:106CF00041F480710166016E41F400710166016E1C
:106D000041F480610166816E41F480518166816E3B
:106D100041F400518166816E41F480418166016ECB
:106D200041F480510166016E41F400510166016E2B
:106D300041F480410166816E41F480318166816E4B
:106D400041F400318166816E41F480218166016EDB
:106D500041F480310166016E41F400310166016E3B
:106D600041F480210166816E41F480118166816E5B
:106D700041F400118166816E41F480018166016EEB
:106D800041F480110166016E41F400110166016E4B
:106D900041F4800101667047007000404FF0E0222E
:106DA0004FF480710023C2F88012DFF814C08CF811
:106DB0000034002814BFC2F80011C2F880117047D7
:106DC00008E000E00C4910B50A48086007F09AFD99
:106DD0000446FFF795FE094B082058641520C3F8B8
:106DE0001C01032000F074FB206818606068C3F881
:106DF000AC0010BD2D2C0010B4300020005000401D
:106E000010B507F085FD1E480068D0F8D01011F0CD
:106E1000010F1ABF416911F0400F10BD402181617F
:106E20000121C161FEF72CFAB0F5885F1ED012DC9B
:106E300041F20302A0EB0201904217D006DCA0F55C
:106E40000060013818BFFF2814D10FE0022918BFD5
:106E500006290FD10AE0A0F10300B0F5005018BFD9
:106E6000022803D0062818BFFD2803D14FF00100E7
:106E700007F054FD03493F20C1F8D40010BD0000C5
:106E8000802200200050004040F400524E48028012
:106E9000838823F47E738380838823F44063838014
:106EA000838823F400538380838823F48043838082
:106EB000838823F4004383800B0C03818181028249
:106EC000B0F814C02CF47E7CA0F814C0B0F814C044
:106ED0002CF4406CA0F814C0B0F814C02CF4005C82
:106EE000A0F814C0B0F814C02CF4804CA0F814C062
:106EF000B0F814C02CF4004CA0F814C003838183B4
:106F00000284B0F824C02CF47E7CA0F824C0B0F831
:106F100024C02CF4406CA0F824C0B0F824C02CF499
:106F2000005CA0F824C0B0F824C02CF4804CA0F879
:106F300024C0B0F824C02CF4004CA0F824C0038571
:106F400081850286828E22F47E728286828E22F46F
:106F500040628286828E22F400528286828E22F4E1
:106F600080428286828E22F4004282860387818755
:106F700016480421C0F8B010C0F8B410C0F8B8101A
:106F8000C0F8BC10C0F8C010C0F8C410C0F8E410BD
:106F90000021C0F8E8100E4AC0F8EC201222C0F818
:106FA000D8204FF48012C0F8DC200A4AC0F8E02054
:106FB00081613F21C0F8D410016911F0400FFBD06E
:106FC0000121C16170470000000002200050004014
:106FD0000C00080016001400022A08BF00F58050BB
:106FE0005E4A1080938823F47E73083393809388DD
:106FF00023F440639380938823F400539380938811
:1070000023F480439380938843F4004393800023C8
:10701000138193811082B2F814C02CF47E7C0CF1A1
:10702000080CA2F814C0B2F814C02CF4406CA2F8FA
:1070300014C0B2F814C02CF4005CA2F814C0B2F86A
:1070400014C02CF4804CA2F814C0B2F814C04CF454
:10705000004CA2F814C0138393831084B2F824C0A8
:107060002CF47E7C0CF1080CA2F824C0B2F824C0E9
:107070002CF4406CA2F824C0B2F824C02CF4005CBC
:10708000A2F824C0B2F824C02CF4804CA2F824C08A
:10709000B2F824C04CF4004CA2F824C013859385A8
:1070A0001086908E20F47E7008309086908E20F4AA
:1070B00040609086908E20F400509086908E20F450
:1070C00080409086908E40F400409086138793878E
:1070D00023484FF0040CC0F8B0C0C0F8BCC0C0F8E2
:1070E000C0C0C0F8C4C0C0F8E4C0C0F8E830DFF8E1
:1070F00074C0C0F8ECC04FF0120CC0F8D8C04FF408
:10710000801CC0F8DCC0DFF860C0C0F8E0C083615C
:107110003F23C0F8D430036913F0400FFBD00123A4
:10712000C361B2F84400B2F8403040EA034008605E
:10713000B2F84C00B2F8483040EA03404860B2F878
:107140005400B2F8503040EA03408860B2F85C0066
:10715000B2F8582040EA0240C860704700000220A0
:10716000005000400C00080016001400022A08BF5E
:1071700000F580504E4A1080938823F47E739380EC
:10718000938823F440639380938823F4005393807F
:10719000938823F480439380938823F4004393805F
:1071A0000B0C138191811082B2F814C02CF47E7CF8
:1071B000A2F814C0B2F814C02CF4406CA2F814C0A9
:1071C000B2F814C02CF4005CA2F814C0B2F814C0D9
:1071D0002CF4804CA2F814C0B2F814C02CF4004C6B
:1071E000A2F814C0138391831084B2F824C02CF445
:1071F0007E7CA2F824C0B2F824C02CF4406CA2F823
:1072000024C0B2F824C02CF4005CA2F824C0B2F868
:1072100024C02CF4804CA2F824C0B2F824C02CF472
:10722000004CA2F824C0138591851086908E20F41E
:107230007E709086908E20F440609086908E20F430
:1072400000509086908E20F480409086908E20F49E
:10725000004090861387918716480421C0F8B0102B
:10726000C0F8B410C0F8B810C0F8BC10C0F8C01016
:10727000C0F8C410C0F8E4100021C0F8E8100E4AAD
:10728000C0F8EC201222C0F8D8204FF48012C0F8C9
:10729000DC200A4AC0F8E02081613F21C0F8D41008
:1072A000016911F0400FFBD00121C161704700005E
:1072B00000000220005000400C00080016001400DE
:1072C00008B507F01FFB16494A6842F400324A60CD
:1072D000006800909DF8030040F001008DF8030065
:1072E0009DF8030040F002008DF80300009A0D485D
:1072F000026000BF00BF00BF9DF8032022F0010222
:107300008DF803209DF8032022F002028DF803205F
:10731000009A0260486820F40030486008BD000010
:10732000007000400050004070B507F0F1FA654C65
:10733000D4F8D00040F00100C4F8D000D4F8D00058
:1073400040F00200C4F8D000D4F8D00020F00400CF
:10735000C4F8D000D4F8D00040F00800C4F8D00041
:10736000D4F8D00020F01000C4F8D000D4F8D00039
:1073700020F02000C4F8D000D4F8D00020F44070F1
:1073800000F58070C4F8D000D4F8D00020F440603C
:10739000C4F8D000D4F8D00020F4E04000F5A040BC
:1073A000C4F8D000D4F8D00040F40040C4F8D000B5
:1073B000D4F8D00020F4702000F58030C4F8D0005C
:1073C000D4F8D00040F48010C4F8D000D4F8D00035
:1073D00020F40010C4F8D0000022C4F87421A06981
:1073E00040F04000A06111464FF42055C1EB411020
:1073F000030103F1005000F50030A0F86058B0F828
:1074000064C82CF47E7C0CF1F00CA0F864C8B0F8D1
:1074100064C82CF4406CA0F864C8B0F864C82CF4BC
:10742000005CA0F864C8B0F864C82CF4804CA0F8E4
:1074300064C8B0F864C84CF4004CA0F864C80020DC
:1074400003EB400C0CF1005C0CF5003CACF8682838
:10745000401CC0B2F428F3D3481CC1B20429C5D3E0
:1074600040F2C440C4F8B000C4F8B400C4F8B80096
:10747000C4F8BC00C4F8C000C4F8C4007A20C4F842
:107480000401C4F80801C4F80C01C4F81001C4F8E0
:107490001401C4F818014FF42570C4F8E4004FF04B
:1074A0000670C4F8E8000848C4F8EC0040F26A60CE
:1074B000C4F8D8004FF08160C4F8DC000348C4F879
:1074C000E00070BD005000408C0310032E0BCC0870
:1074D000811E4948072928BF7047DFE801F0041FD3
:1074E0003A1E551E71004549C0F87811C0F8801148
:1074F000C0F88811C0F89011C0F89811C0F8A01118
:107500000D21C0F87C11C0F88411C0F88C11C0F8AE
:107510009411C0F89C11C0F8A41170473849C0F804
:107520007811C0F88011C0F88811C0F89011C0F827
:107530009811C0F8A0113B21C0F87C11C0F884114B
:10754000C0F88C11C0F89411C0F89C11C0F8A411B7
:1075500070472C49C0F87811C0F88011C0F8881124
:10756000C0F89011C0F89811C0F8A011E321C0F83C
:107570007C11C0F88411C0F88C11C0F89411C0F8C7
:107580009C11C0F8A41170471F49C0F87811C0F8C9
:107590008011C0F88811C0F89011C0F89811C0F897
:1075A000A01140F60361C0F87C11C0F88411C0F846
:1075B0008C11C0F89411C0F89C11C0F8A411704748
:1075C0001249C0F87811C0F88011C0F88811C0F8CD
:1075D0009011C0F89811C0F8A0114EF20301C0F844
:1075E0007C11C0F88411C0F88C11C0F89411C0F857
:1075F0009C11C0F8A4117047005000400404010120
:1076000006060201080802010C0C0201101002011A
:10761000314850F8D01F21F0010140F87C19C16FAA
:1076200041F00201C167C16F21F00401C167C16F60
:1076300041F00801C167C16F21F01001C167C16F3E
:1076400041F02001C167C16F21F4407101F58071E3
:10765000C167C16F21F4406101F58061C167C16FED
:1076600021F4E04101F5A041C167C16F41F400413F
:10767000C167C16F21F4702101F58031C167C16F0D
:1076800021F48011C167C16F21F40011C167816FBE
:1076900021F0FF01891C8167816F21F47F4101F591
:1076A00000718167816F21F47F0101F5702181678D
:1076B000816F21F0706101F100718167816F21F0AC
:1076C0007041A1F1C041816750F83C1C21F040019C
:1076D00040F83C1C704700000050004002488068A1
:1076E00090F90000704700007C300020014840689D
:1076F000704700007C30002010B5094CA06861681C
:1077000090F90000C0EB801001EB8000DC30E060FD
:1077100001F0D0FDE068BDE81040F93007F0D4BBBF
:107720007C30002010B5154C4FF4405212492068AF
:10773000FCF735FE4FF4357211496068FCF72FFEF7
:10774000206807F0BBFB606806F006F86068183038
:1077500001F0AAFD6068653007F036FD60686730AB
:1077600006F0A0FF6068D63007F0A2FB07F0A8FA89
:10777000BDE8104001F0FCBB007002207C3000200E
:1077800088BB001001498968087070477C30002070
:107790004FF040210A6860F300020A607047000061
:1077A00010F4006F2C4810D0416E21F44011416656
:1077B000816821F080618160416E21F44001416661
:1077C000816821F00061816013E0816821F08061AF
:1077D0008160416E21F4401101F58011416681689C
:1077E00021F000618160416E21F4400101F58001CA
:1077F0004166416E21F0407101F180714166416E38
:1078000021F0406101F180614166D0F8801041F0C3
:107810008051C0F88010816F41F080518167816E86
:1078200021F0C00140318166D0F8841041F0080198
:10783000C0F88410C16F41F00801C167816E21F466
:1078400040018166C16841F40061C160416821F472
:107850000061416070470000007000404FF0E0227E
:107860008021C2F8801202F1070C60238CF80034EA
:10787000002814BFC2F80011C2F880117047000040
:107880002DE9F041024610F4804F5B481CBF5B4974
:1078900001607CD01046FFF783FF594D4FF0402424
:1078A0006968D4F844010B7B63F34200C4F84401D7
:1078B00008682060D1F85900A0604868C4F85801F1
:1078C000206A20F03F00401C2062D1F8490020616E
:1078D000D1F84D006061D1F85100A061D1F8550098
:1078E000E061D1F83900A065D1F83D00E065D1F83C
:1078F00041002066D1F84500A064D1F82D00E06475
:10790000D1F831002065D1F835006065B1F80D007F
:1079100000280FBF002342F6E063B3FBF0F39B1E89
:107920009BB20FBF002041F2707CBCFBF0F0801EC8
:10793000CF7BB1F832C091F834604CEA064C91F834
:1079400035604FEA9C0CD4F84C8063F30F08C4F800
:107950004C80E36C60F31F43E364206D67F3090020
:107960002065206D6CF399202065606D66F307003B
:10797000606512F4804F14BFD1F86100D1F85D004A
:10798000C4F83001104600F031F9606800E02CE0E6
:1079900020F0010060606868D0F85D00C4F8300134
:1079A000D4F8640120F00100C4F86401D4F8640143
:1079B00020F00100C4F86401D4F8640120F0020052
:1079C000C4F86401D4F8500140F03F00C4F85001FD
:1079D0004FF0E0218020C1F880026022CB1D83F8A7
:1079E0000024C1F80001BDE8F08112F4006F14BF5B
:1079F0000449054901604DE7B0300020153A0010F8
:107A000060220020E13900104938001010B506F05E
:107A10007FFF0149486010BD602200202DE9F05F22
:107A20004FF04024D4F86001DFF874815D4F10F00E
:107A3000040F4FF001094FF0000672D0D4F85C013A
:107A400040F00400C4F85C01D8F80000DFF858A149
:107A5000564D10F0006F4FF0E02B07D0FDF710FCF3
:107A600010F4807F287827D0F0B126E03869401CD8
:107A70003861DAF80000320442EA10410204DBF80F
:107A80001800314380B21043C5E90201FDF7FEFB47
:107A9000002846D02878002843D1D8F8040040F0C8
:107AA0001000C8F804003CE085F800902168002030
:107AB00060F30001216006E028B12E7021680120EA
:107AC00060F3000121607869401C7861DAF80000F9
:107AD000320442EA10410204DBF81800314380B25C
:107AE0001043C5E90401D5E90232B0EB030C71EB98
:107AF000020C16D2181A62EB010148220023FCF78F
:107B0000D7FB40F6AC52C5E90601801A71F10000BE
:107B100028BF6E7005D2264985F801903F20C1F834
:107B2000D400D4F8600110F0020F19D0D4F85C0131
:107B300040F00200C4F85C01C7F80890FE603E61A6
:107B40007E61B869142802D2B869401CB861FDF79B
:107B500091FBFDF711FB00281CBF0020FDF7EAFB9D
:107B6000D4F8600110F0010F08BFBDE8F09FD4F811
:107B70005C0140F00100C4F85C01FDF787FB28B10F
:107B8000D8F8040020F01000C8F80400FDF762FBEC
:107B9000002808BFBDE8F09FBDE8F05FFDF714BB0B
:107BA00000700040D032002084220020602200209B
:107BB000005000404FF04020D0F8601111F0010F4C
:107BC00005D0D0F85C1141F00101C0F85C11D0F88B
:107BD000601111F0080F05D0D0F85C1141F00801D8
:107BE000C0F85C1100F00EB900F00CB92DE9F00FEF
:107BF000684910F001034A684FF0402192F80FC025
:107C00007BD010F0020F05D0B2F80D30557CB2F8E1
:107C100021400BE010F0040F08D0B2F82100B2F8B8
:107C20001D30D57F4FF6FF7404EA400442F6E0664B
:107C30007710002B1FBFB6FBF3F0801E1FFA80F8F1
:107C4000B7FBF3F012BF801E4FF000084046B2F8B9
:107C5000329092F834A049EA0A494FEA990A92F818
:107C60003590D1F84CB068F30F0BC1F84CB0D1F897
:107C70004C8060F31F48C1F84C80086D6CF309001C
:107C80000865086D6AF399200865486D69F3070077
:107C9000486504BF4FF0000C604609D0B6FBF3F016
:107CA000A0F102001FFA80FCB7FBF3F0A0F1020084
:107CB000137C927C2B44D1F8AC506CF30F05C1F8C7
:107CC000AC50D1F8ACC060F31F4CC1F8ACC0D1F8D7
:107CD000B00063F30900C1F8B000D1F8B00064F35C
:107CE0009920C1F8B000D1F8B40062F30700C1F8E0
:107CF000B400BDE8F00F7047FFE7508E4FF061050C
:107D00004FF0300392F8344040EA044092F8354096
:107D10004FEA9000CE6C65F30F06CE64CD6C63F332
:107D20001F45CD640B6D6CF309030B650B6D60F3A0
:107D300099230B65486D64F307004865107CD47F78
:107D4000D1F8AC502044B2F8214092F820204FF0F6
:107D5000610C4FF030036CF30F05C1F8AC50D1F853
:107D6000ACC063F31F4CC1F8ACC0D1F8B03060F3C5
:107D70000903C1F8B030D1F8B00064F39920C1F81C
:107D8000B000D1F8B40062F30700C1F8B400BDE858
:107D9000F00F704760220020034810B50188491C8D
:107DA0000180FDF76DFA10BDF432002010B5124CC1
:107DB0008020E0614000A061462007F075FF0A20A6
:107DC000C4F8D0000C2060610C48A0620C4820610F
:107DD000207B10F0200F06D10A2007F065FF207BE2
:107DE00010F0200FF8D0E06840F02000E060BDE81F
:107DF0001040322007F058BF001000407B023000D6
:107E0000410000802DE9F0413B4C207800281ABF4A
:107E100060780028BDE8F081A078032818BFBDE88D
:107E2000F081E078012808BFBDE8F0813348D0F840
:107E3000C207002808BFBDE8F081304890F8C1179C
:107E400001EB411100EB410213790B2B14BF0C2BFA
:107E5000BDE8F0812A4D29484FF00007102B90F81B
:107E6000C617D0F8C207A0F1010823D0607A012814
:107E700018BFBDE8F081214E2248012908BFBDE8A6
:107E8000F081111D4222FCF78AFAC6F8C28796F8E3
:107E9000C107401CC0B286F8C1071E2828BF86F85B
:107EA000C1776772D5F8380120F48030C5F8380101
:107EB000BDE8F081A079012818BFBDE8F0810F4E20
:107EC0000129A6F1EE0008BFBDE8F081111D422294
:107ED000FCF765FAC6F8C28796F8C107401CC0B225
:107EE00086F8C1071E2828BF86F8C177A771D5F884
:107EF000380120F40030D9E7102500208C7F0120C4
:107F00000000034079A5012008490020820002F505
:107F10008042136841F82030526801EB80035A60B8
:107F2000801C1E28F2DB024801607047005B0120C4
:107F300008ED00E02DE9F0474FF4003082B04168D1
:107F4000440301F00F0141F0FD7141F08061A16532
:107F500001680068C1F3031161F31F1040F0FD7068
:107F600040F080606065A06920F00070A061A069A9
:107F700020F0406000F10060A061206D009000984A
:107F800020F001000090009820F00200009000987E
:107F900080B200F1806000F1FD70009000982065D3
:107FA000E0690090009840F001000090009820F0F7
:107FB00002000090009840F004000090009840F00B
:107FC00008000090009820F010000090009820F029
:107FD00020000090009820F040000090009840F0B1
:107FE00080000090009840F480700090009840F469
:107FF00000700090009820F480600090009840F499
:1080000000600090009840F480500090009840F488
:1080100000500090009880B200F1806000F1FD7087
:1080200000900098E061206A0090009840F0010004
:108030000090009840F002000090009840F004008A
:108040000090009880B200F1806000F1FD70009017
:1080500000982062606B0090009820F00300009070
:10806000009820F00C0008300090009820F03000BC
:108070000090009820F040000090009820F08000D0
:108080000090009820F440700090009820F4E05098
:108090000090009820F400500090009880B200F109
:1080A000806000F1FD70009000986063834F0025B0
:1080B0004FF005084FF4FA764FF0E02A206C00905C
:1080C000009840F001000090009820F00E00009011
:1080D000009820F47C7000F5C0700090009820F4A7
:1080E000406000F500600090009880B200F1806070
:1080F00000F1FD70009000982064012006F05EFA07
:10810000009820F001000090009880B200F180609B
:1081100000F1FD70009000982064454580F0CA8011
:10812000681CC5B2DAF818001FFA80F9E06C10F08C
:10813000080F07D1484606F097FA3968B0FBF1F00E
:10814000B042F3D3E06C10F0080FB7D0206F00906E
:10815000009840F0100000900098206700BF00BF1A
:1081600000BF00BF00BFE06A0090009820F001004F
:108170000090009880B200F1806000F1FD700090E6
:108180000098E06200BF00BF00BF00BF00BF0098C2
:1081900040F001000090009880B200F1806000F192
:1081A000FD7000900098E062454905200860A06BD2
:1081B0000090009820F007000090009820F0180030
:1081C00008300090009820F0E0000090009820F423
:1081D000E06000F540700090009820F4C05000F579
:1081E00000600090009820F460400090009880B2F9
:1081F00000F1806000F1FD7000900098A063606B5A
:108200000090009820F00300401C0090009820F09F
:108210000C0008300090009820F03000009000988A
:1082200040F040000090009840F0800000900098DE
:1082300020F440700090009820F4E05000900098E6
:1082400020F400500090009880B200F1806000F1AE
:10825000FD70009000986063206E0190019840F0DE
:1082600007000190019820F018001030019000984C
:1082700080B200F1806000F1FD70009001982066EE
:10828000E06D0090009840F001000090009840F0F0
:1082900002000090009820F004000090009880B246
:1082A00000F1806000F1FD7000900098E06502B080
:1082B000BDE8F087FDF736FAFEE7000088220020CF
:1082C0000010004010B5FEF785F94FF47A7006F003
:1082D00075F9012010BD704701212020FEF7D4BDA3
:1082E00000212020FEF7D0BD10B504460A4800F05A
:1082F000BEF9002804BF084800F0CCF9064800F099
:10830000ADF9012808BF10BD422020802146BDE8FC
:108310001040014800F0DCB98C7F01202DE9F04FBE
:1083200091B000252F4644216846FCF7A7F810209D
:108330008DF802008F480DF1020600F1780100F17E
:10834000280C00F1500300224FF00A08A0F10C099C
:10835000D0F800A0BAF1000F13D019F80AB00C68D9
:10836000A34507D009F80A406C1CE5B20C68012C43
:1083700005D006E0012C04BF6C1CE5B201D17C1CC9
:10838000E7B202EB420406EB440411F804AB84F8B4
:1083900001A010F804AB84F802A03CF804ABA4F8E8
:1083A00003A033F804AB521CA4F805A0B8F10108EF
:1083B000CED171480024DFF8C481C0F8E041C0F894
:1083C000E441C0F8E841C0F8EC41C0F8F041C0F821
:1083D000F441C0F8F841C0F8FC41C0F80042C0F8D0
:1083E0000442C0F86841C0F86C41C0F87041C0F860
:1083F0007441C0F87841C0F87C41C0F88041C0F8B1
:108400008441C0F88841C0F88C41C0F89041C0F860
:108410009441C0F89841C0F89C41C0F8A041C0F810
:10842000A441C0F8A841C0F8AC41C0F8B041C0F8C0
:10843000B441C0F8B841C0F8BC41C0F8C041C0F870
:10844000C441C0F8C841C0F8CC41C0F8D041C0F820
:10845000D441C0F8D841C0F8DC4175B108F1400101
:1084600086F83D5001F13800FCF758FEF08727B937
:108470000021C8F84040C8E91E1141484FF00109E9
:1084800001784FF08040C1B190F86C1021F01001DC
:1084900080F86C1090F86C1021F0020180F86C10DC
:1084A0000020C8F84440C8E92000364901F14000E6
:1084B000FCF734FE88F8089046E098F8031001298C
:1084C00042D12D4F397811F0020F3DD0FDB190F817
:1084D0006C1011F0020F0BD190F86C1021F010010C
:1084E00080F86C1090F86C1041F0020180F86C106C
:1084F000254880F80090304600F04AF8D8E920106E
:10850000084304D1214901F13C00FCF707FED8E9FA
:108510002001084318D01D4901F13C00FCF7FEFD85
:1085200044F6206181420FD888F80340387820F063
:10853000020038700020C8F84440C8E9200088F8DC
:10854000074006F095FCFEE7002D04BF11B0BDE822
:10855000F08F98F8030000281CBF11B0BDE8F08F21
:1085600098F8000000281CBF304600F011F811B048
:10857000BDE8F08FEC7E0120847D012010250020D5
:10858000250000205825002024000020542500202C
:1085900070B5214901230025D1F8C2171E2913D334
:1085A0001D4A82F8C637D2F8C217491EC2F8C21750
:1085B00092F8C117491CC9B282F8C1171E2928BFF9
:1085C00082F8C15782F8C657134C010008BF70BD2E
:1085D000D4F8C2071E2828BF70BD84F8C63794F8A7
:1085E000C007422200EB401004EB4000001DFBF7E7
:1085F000D6FED4F8C207401CC4F8C20794F8C007DE
:10860000401CC0B284F8C0071E2828BF84F8C05799
:1086100084F8C65770BD00008C7F01200C4910B54E
:10862000002088600122CA60088048808880086134
:10863000084A1060486108490860886188600861DC
:10864000FDF752F8BDE810400020FCF743BE0000E3
:1086500004220020C0250020D0320020002120B1BB
:10866000D0F8C2071E2828BF012108467047012103
:1086700038B10278532A04BF4278492A03D04FF018
:108680000001084670478278572A04BFC078342812
:10869000F5D1F6E710B504004FF0000008BF10BD9B
:1086A00009A040F2BC7100682060201DFBF7C4FEE9
:1086B000002084F8C00784F8C107C4F8C20784F812
:1086C000C607012010BD00005349573400000000C8
:1086D00010B504004FF0000014BF002910BDD4F8FD
:1086E000C2271E2A28BF10BD012084F8C60794F8AF
:1086F000C007422200EB401004EB4000001DFBF7D6
:108700004EFED4F8C2070021401CC4F8C20794F8FA
:10871000C007401CC0B284F8C0071E2828BF84F8D8
:10872000C017012084F8C61710BD00000A4A094985
:1087300011604FF0E0214FF6FF724A61074BE022D3
:1087400083F8142D00228A6107220A6104494860D7
:108750007047000091450010903000200FE000E0CD
:10876000842200200548016800290EBF4FF0FF3128
:108770000168491E0160FFF745BB0000842200200C
:108780003B4910B5394808603A480721C0F8241120
:10879000D0F8141121F00101C0F814110121C0F822
:1087A0004C110222C0F84C210422C0F84C21D0F810
:1087B000382142F0FF02C0F83821D0F8382142F4C5
:1087C0007022C0F83821D0F8082142F00102C0F828
:1087D0000821D0F83C2142F48062C0F83C21D0F856
:1087E0003C2142F40072C0F83C21D0F8002142F054
:1087F0000402C0F80021D0F8002142F02002C0F8A5
:108800000021D0F8002142F40072C0F8002150F895
:10881000C42F22F0080240F80C2BC0F86012D0F8E8
:108820005C1221F48031C0F85C12D0F85C1221F0A7
:108830000101C0F85C12016B41F001010163016BA1
:1088400021F0080101630D480B4C40F2BC71006837
:108850002060201DFBF7F0FD002084F8C00784F89D
:10886000C107C4F8C20784F8C60710BDAD460010A2
:10887000AC300020000003408C7F0120F444001045
:108880002DE9F05FFE4ED6F84001DFF8F8B310F0A6
:10889000010F4FF00108CBF82C0027D0D6F8441177
:1088A000CBF8381011F0010F20D09BF802100029EE
:1088B00018BF03291AD18BF80280D6F82C1321F4A3
:1088C0008031C6F82C13D6F82C1321F00101C6F81C
:1088D0002C134FF40061C6F80013EB49C6F80413DB
:1088E000D6F8001341F00101C6F8001310F0080F8C
:1088F0004FF002094FF0000700F00181D6F828037D
:108900004FF4803A10F0010FCBF834001ED09BF8E2
:108910000510012914D1BBF80C20DBF8241091427A
:1089200004D0DBF81C20D2888A4207D18BF8029051
:10893000CBF82470CBF82870ABF80C708BF805706E
:108940009BF80210022945D0012969D010F0040FCC
:1089500010D00421C6F82813D6F82C1341F4802136
:10896000C6F82C13D6F82C1341F00401C6F82C13CA
:108970008BF8068010F0080F66D00820C6F8280390
:10898000D6F82C0340F40020C6F82C03D6F82C03AC
:1089900040F00800C6F82C03D6F82C0320F4002081
:1089A000C6F82C03D6F82C0320F00800C6F82C03D8
:1089B0004FF48040C6F81803B448C6F81C03D6F834
:1089C000180340F00100C6F81803B04801780929DF
:1089D00034D05EE0C6F82883C6F828A3D6F82C0366
:1089E00040F00100C6F82C03D6F8200140F0010049
:1089F000C6F8200103208BF80200DBF81C00417848
:108A0000012909D1418801F47F42B2F5407F02BFBC
:108A1000C9B208298BF80180BDE8F05F00F05DBAAB
:108A2000C6F82883C6F828A3D6F82C0340F0010026
:108A3000C6F82C03BDE8F05FFBF74CBF417811F09E
:108A4000010F02D0FCF70CFF23E0002504462B4663
:108A50002A462946012006F0C9FC00231A46194679
:108A6000042006F0C3FC608800280CD960196D1C36
:108A70000379A9B24FF48052032006F0B7FC608856
:108A8000ADB2A842F2D800231A461946022006F0D9
:108A9000ADFCDBF8340010F0020F0FD0C6F82893BD
:108AA000D6F82C1341F40031C6F82C13D6F82C1349
:108AB00041F00201C6F82C138BF8098010F4803FB6
:108AC00018BFC6F828A310F4003F1CBF4FF40031B4
:108AD000C6F8281310F4802F1CBF4FF48021C6F86D
:108AE000281310F4002F1CBF4FF40021C6F82813E0
:108AF00010F4801F1CBF4FF48010C6F828039BF8A9
:108B00002C0010F0040F7DD0D6F84C01604DDFF83A
:108B100084A110F0010FCBF830003BD08BF803702C
:108B20008BF800708BF80170C6F84C81C6F80471A0
:108B3000D6F8080140F00100C6F80801D6F8200177
:108B400040F00800C6F82001D6F8000140F400709B
:108B5000C6F8000100F0F0F84F4805F5027440F245
:108B6000BC7100682060201DFBF766FC84F8C077AC
:108B700084F8C177C4F8C27784F8C677287820F0E3
:108B8000020040F00100287044488AF80070076035
:108B900043480770DBF8300010F0020F13D08BF859
:108BA00000708BF80170C6F84C91297811F0020F13
:108BB00009D08BF803808BF80480D6F8001141F0BF
:108BC0000801C6F8001110F0040F2ED00420C6F8DA
:108BD0004C0100078BF8037010F86C1F21F0100196
:108BE0000170017821F0020101700021CBF844707E
:108BF000CBE920112B4901F14000FCF78FFA8BF8EB
:108C0000088000E01BE025488AF8007007602448CF
:108C10000770D6F8000120F00800C6F800018BF8B4
:108C200000808BF8018000F087F89BF8300010F08E
:108C3000800F04D08020C6F84C01C6F8C0719BF8A4
:108C40002C0010F0020F08BFBDE8F09FD6F84801D5
:108C500044F2020110F4003FCBF83C0007D09BF82F
:108C60000620002A04BF9BF80220032A41D010F4FA
:108C7000803F08BFBDE8F09F9BF80900002813E083
:108C800000000340102500207C25002079A501204C
:108C9000847D012024000020F44400102C000020DA
:108CA000250000205825002006BF9BF8020003285D
:108CB000BDE8F09FD6F8380140F48030C6F838019E
:108CC000D6F82C0320F40030C6F82C03D6F82C0379
:108CD00020F00200C6F82C03C6F808131448C6F8A2
:108CE0000C03D6F8080340F00100C6F80803BDE8FD
:108CF000F09FD6F8380140F40030C6F83801D6F8B5
:108D00002C0320F48020C6F82C03D6F82C0320F086
:108D10000400C6F82C03C6F810130648C6F814035E
:108D2000D6F8100340F00100C6F81003BDE8F09F2C
:108D300079A501209E7E01202B480021C0F8301328
:108D40000121C0F83013D0F8102342F00802C0F817
:108D50001023D0F8102322F00102C0F81023234A78
:108D60009171D0F8383143F40033C0F83831D0F87D
:108D7000083343F00803C0F80833D0F8083323F071
:108D80000103C0F808335172D0F8381141F4803132
:108D9000C0F838110821C0F82813D0F82C1341F47A
:108DA0000021C0F82C13D0F82C1341F00801C0F8B2
:108DB0002C13D0F82C1321F40021C0F82C13D0F878
:108DC0002C1321F00801C0F82C134FF48041C0F897
:108DD00018130749C0F81C13D0F8181341F001010B
:108DE000C0F8181370470000000003401025002051
:108DF00079A5012010B40622D0F804C04FF6FF7305
:108E000001211CF0010F07D0D0F804C04AF6CE446F
:108E100064F3000CC0F804C0D0F80CC063F30F0C6E
:108E2000C0F80CC0D0F810C061F30F0CC0F810C02F
:108E3000436961F303034361816862F30201816066
:108E400081684FF6DF7211408160816841F008014E
:108E50008160816841F01001816010BC70470000A2
:108E60001848406910F0020F174818D000234FF03F
:108E7000E0210122C1F88021C1F88022016841F07F
:108E800001010160416811F0010F05D141684AF606
:108E9000CE4262F3000141600C48037070470168E4
:108EA00041F001010160C1686FF30F01491CC1600D
:108EB000816841F020018160816841F00801816092
:108EC0007047000000200040008000408C220020FD
:108ED0000021016041600181704700210160416013
:108EE0007047000007490028CA681CBF501CC860B2
:108EF00005D10020C860052A84BF012070470020EA
:108F000070470000DC20002010B5FCF7B9F91749C4
:108F100010F0010F1AD08868002100F5805090F8F9
:108F20008B2F002A18BFC0F8A41F1DD1D0F8A42F82
:108F3000521CC0F8A42FD0F8A03F9A4214D9C0F810
:108F4000A41F0120FCF7F6F9012010BD10F4807F6A
:108F50000AD0886800F5805090F88B0F20B102206D
:108F6000FCF7E8F9012010BD002010BD34000020FE
:108F70000148006870470000D02000200148806848
:108F800070470000D0200020014840687047000072
:108F9000D02000202DE9F04F87B005F0C5FCBB487C
:108FA000FFF796FFBA48FFF793FFBA48FFF790FF25
:108FB000B948FFF78DFF06F031FB824606F0BEFB95
:108FC000B648B74D00260660A96801F5805080F8C4
:108FD0009E6F80F89F6F6A6892F8F620A2B190F8B1
:108FE000870F012810D10A200122431CA0F1010C97
:108FF00001EB4C0C801EACF8D06401EB400C921CD1
:10900000ACF8D0649A42F1DB00244FF0010BA96860
:1090100001EB4400B0F8872C3AB101EBC402D2F85E
:10902000B03C0293D2F8B42C0392B0F8D024002ABA
:1090300000F0C08001EBC401D1F88024D1F8841481
:10904000CDE90021B0F8870C2246002869460CBF04
:10905000084602A804F0FCF9A96801EB4400B0F846
:10906000D024002A7ED0029B009AA2EB0309039B26
:10907000019AB2EB030848BFC8F10008B9F1000F2C
:10908000B8BFC9F100090A1992F8052E002A6A68CA
:109090000CBF92F8587092F85970B0F8872C002ADB
:1090A00018BFB845B8BFB9459DF8102001F58051EB
:1090B00042F0800222F0200291F8871F42F0400225
:1090C00061F3041204F1010161F303028DF8102031
:1090D0008DF818604DDB0099090A8DF8111001997F
:1090E000090A8DF8121000998DF8131001998DF866
:1090F0001410B0F8E414FF2928BFFF218DF81510D3
:10910000BAF1000F04BFB0F8D004ADF8160004A8FF
:1091100006F072FB04A806F039F9A86800EB4401D8
:10912000B1F8872C3AB13A46B845B2BF9145021919
:1091300082F805BE02DA021982F8056E00EBC4005F
:10914000D0F88024C0F8372CD0F88424C0F83B2C09
:10915000B1F8D024A1F8872CB1F8E424A1F89B2C15
:10916000009900E026E0C0F8B01C0199C0F8B41CDA
:1091700056E002998DF81430090A8DF81110190A79
:109180008DF8121002998DF81310B0F8E414FF292D
:1091900028BFFF218DF81510BAF1000F04BFB0F8F9
:1091A000D004ADF8160004A806F026FB04A806F0CB
:1091B000EDF835E001EB4402B2F8870C78B301F525
:1091C000805383F89FBF9DF8100093F8873F20F0ED
:1091D000A00040F0400063F30410631C63F303003D
:1091E0008DF8100002988DF81860000A8DF81100B3
:1091F0000398000A8DF8120002988DF81300039866
:109200008DF814008DF81560BAF1000F04BFB2F8A4
:10921000D004ADF81600081980F8056EC3E7FFE723
:10922000A86800EB4400641CB0F8D014A0F8871CB8
:109230000A2CFFF6ECAEAB6803F5805090F89E1F49
:10924000012915D190F89D2F90F89C1F8A4202D0D9
:1092500090F89F2F62B1134C491CC9B2A44600225A
:10926000E1FB04C25208A2EBC202114480F89C1F29
:1092700093F87F0483F8360C06F044FCFFF74EF8B1
:1092800005F022FA07B0BDE8F08F0000647F0120EE
:10929000EC7E0120147F01203C7F012078250020F6
:1092A00034000020499224490149086070470000B9
:1092B000D02000200149486070470000D0200020E5
:1092C0002DE9F84F04F008FA604D00262E21AC6815
:1092D00004F80C6B2046FBF7AFF85F20A070E67037
:1092E0002F2020706670D5F814C06661E6616B6847
:1092F0000093D5F80090B3F839600022544D02EB8A
:109300004200002105EB8018C2F13000302707EB46
:10931000A00B02EB021000EB421005EB80074FFAA6
:1093200082FA00BF08EB410000F580303CF8025B98
:10933000B0F89402401B1D78002D18BFB0EB560FFB
:1093400007DD0BFB00F5434880FB0550C510A5EB7E
:10935000E07099F80050284107EB410505F53045CC
:109360000028A5F8560930DDB3F90A50A84209DDF6
:1093700065696D1C6561B3F90AE0A569A0EB0E0E85
:109380007544A561B0421ADD94F902508D42C8BF00
:109390000D46A57094F903508D42D8BF0D46E57077
:1093A00094F900509542C8BF1546257094F90150B4
:1093B0009542D8BF1546657065686D1C6560A568E7
:1093C0008542C8BF2846A06015E0B3F90C50A842FA
:1093D00009DAE5696D1CE561B3F90CE0256AA0EBDB
:1093E0000E0E75442562656A854204DD606284F86C
:1093F0002BA084F82A10491C602993DB521C302AC8
:10940000FFF67CAF6068002818BF01200F490123D8
:10941000896801F5805282F88B0F28B192F8B70F56
:10942000002808BF82F8B73FA2680098B0F906008C
:109430008242C8BF0B70626A0098B0F9080082428D
:10944000B8BF0B700878BDE8F88F0000DC20002062
:109450001C330020ABAAAA2A10B5FFF795FD084CD3
:10946000606005F039FC2060FFF788FDA0600548CA
:109470006061BDE8104042F248610348FAF7FEBF60
:10948000DC2000201C330020ACEB002010B5FFF7DF
:109490007BFD034C606005F01FFC206010BD0000E8
:1094A000DC2000202DE9F007264B254A9C685969ED
:1094B00004F5805C9CF8875F002D07BF2478002CA2
:1094C000BDE8F0077047002807BF9CF88E0F002802
:1094D000BDE8F007704758684FF49053B0F804C0E7
:1094E000194E1A4FDFF86880DFF868904FF00000DF
:1094F000CCF16405A6FB00A44FEA941A5B1E37F971
:109500001A40AAEB8A0A00EB4A1A00F1010038F966
:109510001AA0544432F802AB5444B1F800A00AFB3C
:109520000CFA05FB04A489FB04A44FEA641AAAEB15
:10953000E47421F8024BDDD1BDE8F007704700006C
:10954000B0350120DC200020ABAAAAAAD63000202A
:10955000CC3100201F85EB512DE9F041244E002431
:1095600070688078002806D905F086FD7068641C54
:109570008078A042F8D8FBF72FFF70691D4D044694
:109580004FF41051FAF758FF7068C078471E17D390
:1095900005F072FDA11EAA1E4FF4106331F8020FF0
:1095A000B2F802C05B1E604421F8020B32F804CF0F
:1095B000088860440880F1D1FBF70EFF7F1EE7D2D8
:1095C0007168A01E4FF4106230F8023F91F803C09A
:1095D000521EB3FBFCF320F8023B91F803C0038852
:1095E000B3FBFCF30380EFD1BDE8F041FBF7F4BE21
:1095F000DC200020B03501200121B0FBF1F1491C35
:109600004908B0FBF1F211444908B0FBF1F21144F2
:109610004908B0FBF1F211444908B0FBF1F21144E2
:109620004908B0FBF1F211444908B0FBF1F21144D2
:109630004908B0FBF1F211444908B0FBF1F21144C2
:109640004908B0FBF1F211444908B0FBF1F21144B2
:109650004908B0FBF1F211444908B0FBF1F21144A2
:109660004908B0FBF1F211444908B0FBF1F008449D
:1096700040087047144B30B41B6902460020D3F8F1
:1096800027CE14688C44D3F82B5E52682944644575
:1096900004DBD3F8175E2C1B64450CDA8A4204DB2A
:1096A000D3F81B0E801A884202DA30BC02207047C1
:1096B00030BC012070478A42FADBD3F81B3E9A1A6D
:1096C0009142F5DC30BC7047F82000202DE9F04FC6
:1096D0008E488BB04FF0000AD0F80C8009216B4601
:1096E000B8F8A45098F8A670CDF800A0CDF804A062
:1096F000CDF808A0CDF80CA0CDF810A0CDF814A09E
:10970000CDF818A0CDF81CA0CDF820A0CDF824A04D
:10971000D0F810C00CF25E3606EB4100B0F87221B2
:10972000002A7DD0B0F86A03002879D106EBC10089
:10973000B8F8A440D0F82722A2420FDBDCF8179E2D
:10974000A9EB0209A145A4BFD0F82B92A14505DBE6
:10975000DCF81BBEABEB09094C4510DDD0F87745B2
:10976000A2420CD1D0F82B42D0F87B954C4506D1C3
:1097700006EB4100A0F872A10BB0BDE8F08FAA4241
:1097800019DAD0F87745A41AA7423BDA4FF001095D
:1097900043F82190D0F87BB5D0F82B92ABEB090BB6
:1097A00002FB0BFB9BFBF4F46FF0FF0BC0F822B144
:1097B000A9EB040424E0DCF8174E0A94641BA242CF
:1097C00020DDD0F87745A2EB0409B9451ADD012464
:1097D00043F82140D0F87B45D0F82BB2DDF828E0E3
:1097E000A4EB0B04AEEB020E0EFB04F494FBF9F4B5
:1097F000DDF82890ABEB040409F58079C0F82291DC
:10980000C0F82641DCF81B9ED0F82B42A9EB050BD3
:109810005C4537DD53F821B0BBF1000F12D000E0FA
:109820006DE0D0F822B11BF5807F05D0DCF817EE93
:109830000EF5807EF34556D1D0F826B109F5807E2D
:10984000F34550DDD0F877B5ABEB020BCDF828B07F
:10985000D0F87BB5A4EB0B0EBE4544DD4FF0010BF9
:1098600043F821B0A9EB0404DDF8289009FB04F9C2
:1098700099FBFEF4121BC0F82221DCF81B2E02F526
:1098800080722DE0A5422EDD53F82190B9F1000F32
:109890000FD0D0F8229119F5807F05D0DCF817BEE3
:1098A0000BF5807BD9451ED1D0F8269119F5807F24
:1098B00019DA4FF0010943F82190D0F87795A9EB18
:1098C000020BD0F87B95A9EB0409B9450FDD0BFB22
:1098D00004F494FBF9F4121BC0F822216FF0FF028C
:1098E000C0F8262103E053F82120012A07D1D0F83F
:1098F0007725C0F82722D0F87B25C0F82B22491EF7
:10990000BFF40AAF0BB0BDE8F08F0000F8200020D4
:109910002DE9F04FFE4C97B0092520694FF0010B5F
:1099200000F25E3647F6F67A4FF00008E06890F8ED
:10993000A300D0BB06EB4500B0F87211A9B3B0F894
:109940006A0390BB06EB050999F9510A02282CDD40
:1099500006EBC50707F227200021FFF78BFE002842
:1099600023DDD7F82702D7F87735D7F82B22D7F899
:109970007B15C01A00FB00F3501A00FB0030FFF704
:109980003BFE402811DD89F865BAD7F82211D7F8D7
:109990002601D7F82722C7F82221D7F82B22C7F8AB
:1099A0002621C7F82712C7F82B02E068B0F89E20DE
:1099B000002A00F06F8206EB4501B1F8C735002B95
:1099C00040F06882B1F85C34002B1CBFB1F86AC368
:1099D000BCF1000F09D0B1F84EC5BCF1000F1CBF9F
:1099E00090F8A3C0BCF1000F10D1B1F8E3C3BCF1F3
:1099F000000F1EBFB1F86AC3BCF1000F002B00F0CE
:109A0000498290F8A330002B40F0448206EBC50356
:109A1000D3F81A730997D3F81E93CDF82090CDF898
:109A20001C90D4F810C0CDF83CC0E646DCF80FCE50
:109A3000CDF808C06744D4F808C0CDF814C0B0F918
:109A40005A90DCF802C0CC4407FB0CF9DEF8177E14
:109A5000DDF808C0039707EB4C0C99FBFCF9CDF837
:109A60000890DDF81C90DEF813CECDF818C009EB95
:109A70000C07DDF814C0B0F95C90DCF806C0CC44EB
:109A800007FB0CF9DEF81B7EDDF818C0B0F95EE0CC
:109A900007EB4C0C99FBFCFCDDF80890F144B0F9A5
:109AA00060E0A9F10509F444D14506D2BCF1050FE7
:109AB00003DB47F6FA79CC4505DD90F8A2C0BCF18E
:109AC000000F00F0E7814FF0000CCDF848C0CDF852
:109AD00044C0D3F87CC6CDF840C09445B8BF4FF021
